:100000000C945D000C9485000C9485000C94850084
:100010000C9485000C9485000C9485000C9485004C
:100020000C9485000C9485000C9485000C9485003C
:100030000C9485000C9485000C9485000C9485002C
:100040000C943B030C9485000C94AB030C94850337
:100050000C9485000C9485000C9485000C9485000C
:100060000C9485000C9485000000000024002700FB
:100070002A0000000000250028002B0004040404CE
:100080000404040402020202020203030303030342
:10009000010204081020408001020408102001021F
:1000A00004081020000000080002010000030407FB
:1000B0000000000000000000860511241FBECFEFE5
:1000C000D8E0DEBFCDBF12E0A0E0B1E0EAEBFBE09C
:1000D00002C005900D92A23CB107D9F723E0A2EC33
:1000E000B2E001C01D92A936B207E1F710E0CDE5FC
:1000F000D0E004C02197FE010E94D505CC35D10780
:10010000C9F70E94DD030C94DB050C940000E9EABA
:10011000F0E02491E5E9F0E09491E1E8F0E0E49189
:10012000EE23C9F0222339F0233001F1A8F4213065
:1001300019F1223029F1F0E0EE0FFF1FEE58FF4FCA
:10014000A591B4912FB7F894EC91811126C09095A8
:100150009E239C932FBF08952730A9F02830C9F023
:10016000243049F7209180002F7D03C0209180002A
:100170002F7720938000DFCF24B52F7724BDDBCFEE
:1001800024B52F7DFBCF2091B0002F772093B000B6
:10019000D2CF2091B0002F7DF9CF9E2BDACF81E412
:1001A00080937C0080917A00806480937A008091B3
:1001B0007A0086FDFCCF80917800909179000895B7
:1001C000CF93DF9390E0FC01E057FF4F24918458D8
:1001D0009F4FFC0184918823D1F090E0880F991FF4
:1001E000FC01E859FF4FA591B491FC01EE58FF4F77
:1001F000C591D491623071F49FB7F8943C91822FED
:10020000809583238C93E8812E2B28839FBFDF91D9
:10021000CF9108958FB7F894EC912E2B2C938FBF2C
:10022000F6CF3FB7F8948091C8029091C902A0918F
:10023000CA02B091CB0226B5A89B05C02F3F19F08A
:100240000196A11DB11D3FBFBA2FA92F982F882756
:10025000BC01CD01620F711D811D911D42E0660F31
:10026000771F881F991F4A95D1F708958F929F9203
:10027000AF92BF92CF92DF92EF92FF920E94110154
:100280004B015C0188ECC82ED12CE12CF12C0E9492
:100290001101681979098A099B09683E7340810533
:1002A0009105A8F321E0C21AD108E108F10888EE0F
:1002B000880E83E0981EA11CB11CC114D104E10476
:1002C000F10429F7FF90EF90DF90CF90BF90AF90AF
:1002D0009F908F900895AF92BF92CF92DF92EF924E
:1002E000FF920F931F93CF93DF936C017B018B01E0
:1002F000040F151FEB015E01AE18BF08C017D10730
:1003000059F06991D601ED91FC910190F081E02DB9
:10031000C6010995892B79F7C501DF91CF911F910E
:100320000F91FF90EF90DF90CF90BF90AF90089526
:10033000FC01538D448D252F30E0842F90E0821BEB
:10034000930B541710F0CF96089501970895FC0170
:10035000918D828D981761F0A28DAE0FBF2FB11DC8
:100360005D968C91928D9F5F9F73928F90E0089520
:100370008FEF9FEF0895FC01918D828D981731F0DA
:10038000828DE80FF11D858D90E008958FEF9FEF2E
:100390000895FC01918D228D892F90E0805C9F4F04
:1003A000821B91098F73992708958CEC92E00E942B
:1003B000C90121E0892B09F420E0822F089580E013
:1003C00090E0892B29F00E94D50181110C94000046
:1003D0000895FC01A48DA80FB92FB11DA35ABF4FDA
:1003E0002C91848D90E001968F739927848FA68934
:1003F000B7892C93A089B1898C91837080648C9388
:10040000938D848D981306C00288F389E02D808136
:100410008F7D80830895EF92FF920F931F93CF9368
:10042000DF93EC0181E0888F9B8D8C8D98131AC02F
:10043000E889F989808185FF15C09FB7F894EE8916
:10044000FF896083E889F989808183708064808373
:100450009FBF81E090E0DF91CF911F910F91FF90BE
:10046000EF900895F62E0B8D10E00F5F1F4F0F7366
:100470001127E02E8C8D8E110CC00FB607FCFACF21
:10048000E889F989808185FFF5CFCE010E94E901D5
:10049000F1CFEB8DEC0FFD2FF11DE35AFF4FF082F2
:1004A0009FB7F8940B8FEA89FB8980818062CFCF58
:1004B000CF93DF93EC01888D8823B9F0AA89BB899B
:1004C000E889F9898C9185FD03C0808186FD0DC086
:1004D0000FB607FCF7CF8C9185FFF2CF808185FFA7
:1004E000EDCFCE010E94E901E9CFDF91CF910895D0
:1004F000CF92DF92EF92FF920F931F93CF93DF93F0
:100500008C01D0E0C0E087EDC82ED12C97E9E92E10
:1005100092E0F92E81E00E948700C6010197F1F771
:1005200080E00E948700C7010197F1F721960C1720
:100530001D0781F7DF91CF911F910F91FF90EF90F1
:10054000DF90CF900895FC0101900020E9F73197EA
:10055000AF01481B590BBC018CEC92E00C946B0171
:10056000CF93DF930E94A302EC0182E191E00E940D
:10057000A3028C0F9D1FDF91CF9108958F929F92C0
:10058000AF92BF92CF92DF92EF92FF920F931F93A1
:10059000CF93DF93CDB7DEB7A1970FB6F894DEBF48
:1005A0000FBECDBF6C01990FEE08FF08F7FE41C0EA
:1005B0006DE28CEC92E00E940B028C012227332723
:1005C000A9012C193D094E095F0919A2CE01819696
:1005D0007C019AE0892E912CA12CB12CCA01B90181
:1005E000A50194010E94B305605DF70162937F014C
:1005F000211531054105510589F790E080E03097DC
:1006000019F0CF010E94A302800F911FA1960FB68F
:10061000F894DEBF0FBECDBFDF91CF911F910F9138
:10062000FF90EF90DF90CF90BF90AF909F908F9012
:100630000895A701960119A28E010F5D1F4F8AE050
:10064000C82ED12CE12CF12CCA01B901A7019601C9
:100650000E94B305605DF80162938F012115310599
:100660004105510589F790E080E0309779F2CF019C
:100670000E94A302CBCF1F920F920FB60F921124AC
:100680002F933F938F939F93AF93BF938091C40217
:100690009091C502A091C602B091C7023091C302E9
:1006A00023E0230F2D3758F50196A11DB11D20938E
:1006B000C3028093C4029093C502A093C602B09374
:1006C000C7028091C8029091C902A091CA02B0915C
:1006D000CB020196A11DB11D8093C8029093C9025F
:1006E000A093CA02B093CB02BF91AF919F918F911B
:1006F0003F912F910F900FBE0F901F90189526E8F5
:10070000230F0296A11DB11DD2CF1F920F920FB6DB
:100710000F9211242F933F934F935F936F937F9387
:100720008F939F93AF93BF93EF93FF938CEC92E0E3
:100730000E94E901FF91EF91BF91AF919F918F913D
:100740007F916F915F914F913F912F910F900FBECD
:100750000F901F9018951F920F920FB60F921124B1
:100760002F938F939F93EF93FF93E091DC02F0918F
:10077000DD028081E091E202F091E30282FD1BC084
:1007800090818091E5028F5F8F732091E60282173E
:1007900041F0E091E502F0E0E453FD4F958F809346
:1007A000E502FF91EF919F918F912F910F900FBED6
:1007B0000F901F9018958081F4CF789484B5826053
:1007C00084BD84B5816084BD85B5826085BD85B5F5
:1007D000816085BD80916E00816080936E00109273
:1007E00081008091810082608093810080918100EE
:1007F000816080938100809180008160809380007F
:100800008091B10084608093B1008091B0008160DC
:100810008093B00080917A00846080937A00809108
:100820007A00826080937A0080917A008160809360
:100830007A0080917A00806880937A001092C100DB
:10084000E091DC02F091DD0282E08083E091D80249
:10085000F091D9021082E091DA02F091DB0280E19E
:1008600080831092E402E091E002F091E10286E0E0
:100870008083E091DE02F091DF02808180618083DD
:10088000E091DE02F091DF02808188608083E09158
:10089000DE02F091DF02808180688083E091DE02D9
:1008A000F091DF0280818F7D808361E085E00E948E
:1008B000E00061E08DE00E94E00062E08FE00E94D5
:1008C000E00080E00E94870085E191E00E94B00294
:1008D00088E491E00E94B0028CE791E00E94B002AF
:1008E00085E191E00E94B0024BE8642E7724739476
:1008F0008CEC92E00E94C901181619060CF0A6C0F3
:100900008CEC92E00E94A701853309F0EAC083EBEA
:1009100091E00E94B002812C912C540174018FE06F
:1009200090E00E947802C3010197F1F78FE090E018
:100930000E947802C3010197F1F784E190E00E94E0
:1009400078028114910471F18FB7F8942090C40259
:100950003090C5024090C6025090C7028FBF2FB79B
:10096000F8948091C4029091C502A091C602B09102
:10097000C7022FBF82199309A409B50988159905E3
:10098000AA05BB0578F481E00E94870083E790E028
:100990000197F1F780E00E94870083E796E00197D6
:1009A000F1F7DDCF80E00E94870024E6422E512C33
:1009B000D0E0C0E00FEF13E03FE0C32ED12C0E9447
:1009C000CF00801791070CF48C01C817D9070CF4DD
:1009D000EC01C6010197F1F781E0481A510879F757
:1009E0006E01C01AD10A8DEE91E00E94A302C701E8
:1009F0000E94BE0289EF91E00E94A302C6010E94FC
:100A0000BE0289E092E00E94A302C8010E94BE02D9
:100A100081E192E00E94A302CE010E94BE0289E120
:100A200092E00E94B0020E9436019AE0890E911C69
:100A3000A11CB11C86E3881681E09806A104B104CC
:100A400009F06CCF8BE192E00E94B0028091C2026B
:100A5000882309F457C084E6C82ED12CD0E0C0E02A
:100A60000FEF13E09FE0E92EF12C0E94CF008017DA
:100A700091070CF48C01C817D9070CF4EC01C701DD
:100A80000197F1F781E0C81AD10879F77E01E01AE1
:100A9000F10A89EA92E00E94A302C7010E94BE0205
:100AA00089E092E00E94A302C8010E94BE0281E197
:100AB00092E00E94A302CE010E94BE0289E192E070
:100AC0000E94B0020E94360180E090E0892B09F478
:100AD0000FCF0E94D501882309F40ACF0E9400009D
:100AE00007CF803309F0B2CF8091C20291E089270D
:100AF0008093C202882319F082E592E0A5CF8BE7AC
:100B000092E0A2CF80E00E948700DECFECECF2E022
:100B10001382128288EE93E0A0E0B0E08483958394
:100B2000A683B78384E091E09183808385EC90E095
:100B30009587848784EC90E09787868780EC90E0A7
:100B4000918B808B81EC90E0938B828B82EC90E098
:100B5000958B848B86EC90E0978B868B118E128E12
:100B6000138E148E0895A1E21A2EAA1BBB1BFD0141
:100B70000DC0AA1FBB1FEE1FFF1FA217B307E4077C
:100B8000F50720F0A21BB30BE40BF50B661F771FD4
:100B9000881F991F1A9469F76095709580959095B4
:100BA0009B01AC01BD01CF010895EE0FFF1F059021
:0A0BB000F491E02D0994F894FFCFB2
:100BBA00000000000B026B0198015802C901A7014D
:100BCA00BB010D0A003D3D3D3D3D3D3D3D3D3D3DA9
:100BDA003D3D3D3D3D3D3D3D3D3D3D3D3D3D3D3D3B
:100BEA003D3D3D3D3D3D3D3D3D3D3D3D3D3D3D3D2B
:100BFA003D3D3D3D3D3D3D00202054415020414377
:100C0A00544956452053544142494C495A41544942
:100C1A004F4E20434F524520284435202D3E204137
:100C2A003129202020202020202020002020436F4E
:100C3A006D6D616E64733A202735272D3E416374CA
:100C4A00697665205441502053776565702C2027BA
:100C5A0030272D3E546F67676C65204D6F6E69743F
:100C6A006F72000A2D2D2D205354415254204143B6
:100C7A0054495645205441502053544142494C4905
:100C8A005A4154494F4E20535745455020284D4507
:100C9A0054484F443A203529202D2D2D00446563B0
:100CAA00617944656C61793A006D73207C20416DED
:100CBA00706C69747564653A00205B4D696E3A2000
:100CCA00002C204D61783A20005D002D2D2D204505
:100CDA004E442041435449564520544150205354D0
:100CEA004142494C495A4154494F4E205357454570
:100CFA005020284D4554484F443A203529202D2D5F
:100D0A002D000A202020202020202053494C454E27
:100D1A0054205245414C2D54494D45204D4F4E4982
:100D2A00544F5220414354495645000A202020205E
:100D3A002020202053494C454E54205245414C2DE9
:100D4A0054494D45204D4F4E49544F522044454138
:100D5A004354495641544544005278204D6F6E69B8
:100D6A00746F72207C20416D706C69747564653A89
:020D7A00200057
:00000001FF
