:100000000C945D000C9485000C9485000C94850084
:100010000C9485000C9485000C9485000C9485004C
:100020000C9485000C9485000C9485000C9485003C
:100030000C9485000C9485000C9485000C9485002C
:100040000C94EE020C9485000C945E030C9438031F
:100050000C9485000C9485000C9485000C9485000C
:100060000C9485000C94850000000008000201003B
:100070000003040700000000000000000000000072
:10008000250028002B0000000000240027002A0083
:10009000040404040404040402020202020203032E
:1000A0000303030301020408102040800102040836
:1000B0001020010204081020B70411241FBECFEF46
:1000C000D8E0DEBFCDBF11E0A0E0B1E0ECE1FAE0A6
:1000D00002C005900D92A839B107D9F722E0A8E92E
:1000E000B1E001C01D92AE33B207E1F710E0CDE5FB
:1000F000D0E004C02197FE010E940605CC35D1074F
:10010000C9F70E9490030C940C050C94000090E039
:10011000FC01EC55FF4F249180579F4FFC018491C7
:10012000882399F090E0880F991FFC01EA57FF4F50
:10013000A591B491FC01E458FF4F859194918FB73C
:10014000F894EC91E22BEC938FBF089590E0FC01C2
:10015000E859FF4F2491FC01EC55FF4F3491FC010D
:10016000E057FF4FE491EE23C9F0222339F023300A
:1001700001F1A8F4213019F1223029F1F0E0EE0F5D
:10018000FF1FE458FF4FA591B4918FB7F894EC91FD
:10019000611126C030953E233C938FBF08952730D0
:1001A000A9F02830C9F0243049F7809180008F7D74
:1001B00003C0809180008F7780938000DFCF84B56B
:1001C0008F7784BDDBCF84B58F7DFBCF8091B0006E
:1001D0008F778093B000D2CF8091B0008F7DF9CF20
:1001E0003E2BDACF3FB7F89480919D0190919E010C
:1001F000A0919F01B091A00126B5A89B05C02F3FFB
:1002000019F00196A11DB11D3FBFBA2FA92F982F3C
:100210008827BC01CD01620F711D811D911D42E037
:10022000660F771F881F991F4A95D1F708958F92FF
:100230009F92AF92BF92CF92DF92EF92FF924B01CB
:100240005C010E94F2006B017C010E94F2006C19BB
:100250007D098E099F09683E734081059105A8F3C9
:1002600021E0821A9108A108B10888EEC80E83E047
:10027000D81EE11CF11C81149104A104B10429F7DA
:10028000FF90EF90DF90CF90BF90AF909F908F90B6
:100290000895AF92BF92CF92DF92EF92FF920F93A9
:1002A0001F93CF93DF936C017B018B01040F151F0C
:1002B000EB015E01AE18BF08C017D10759F0699174
:1002C000D601ED91FC910190F081E02DC6010995D8
:1002D000892B79F7C501DF91CF911F910F91FF9085
:1002E000EF90DF90CF90BF90AF900895FC01538DB9
:1002F000448D252F30E0842F90E0821B930B541700
:1003000010F0CF96089501970895FC01918D828D8C
:10031000981761F0A28DAE0FBF2FB11D5D968C9125
:10032000928D9F5F9F73928F90E008958FEF9FEF64
:100330000895FC01918D828D981731F0828DE80F20
:10034000F11D858D90E008958FEF9FEF0895FC01DA
:10035000918D228D892F90E0805C9F4F821B9109A7
:100360008F739927089581EA91E00E94A70121E007
:10037000892B09F420E0822F089580E090E0892BFA
:1003800029F00E94B30181110C9400000895FC0132
:10039000A48DA80FB92FB11DA35ABF4F2C91848DE6
:1003A00090E001968F739927848FA689B7892C9343
:1003B000A089B1898C91837080648C93938D848D96
:1003C000981306C00288F389E02D80818F7D808399
:1003D0000895EF92FF920F931F93CF93DF93EC0159
:1003E00081E0888F9B8D8C8D98131AC0E889F989DC
:1003F000808185FF15C09FB7F894EE89FF896083DF
:10040000E889F98980818370806480839FBF81E05F
:1004100090E0DF91CF911F910F91FF90EF900895A1
:10042000F62E0B8D10E00F5F1F4F0F731127E02E7C
:100430008C8D8E110CC00FB607FCFACFE889F989B4
:10044000808185FFF5CFCE010E94C701F1CFEB8DF2
:10045000EC0FFD2FF11DE35AFF4FF0829FB7F89488
:100460000B8FEA89FB8980818062CFCFCF93DF93A6
:10047000EC01888D8823B9F0AA89BB89E889F989BC
:100480008C9185FD03C0808186FD0DC00FB607FCF1
:10049000F7CF8C9185FFF2CF808185FFEDCFCE0124
:1004A0000E94C701E9CFDF91CF910895FC0101902F
:1004B0000020E9F73197AF01481B590BBC0181EAD5
:1004C00091E00C944901CF93DF930E945602EC0116
:1004D00082E191E00E9456028C0F9D1FDF91CF9127
:1004E00008958F929F92AF92BF92CF92DF92EF9238
:1004F000FF920F931F93CF93DF93CDB7DEB7A197F2
:100500000FB6F894DEBF0FBECDBF6C01990FEE0899
:10051000FF08F7FE41C06DE281EA91E00E94E90127
:100520008C0122273327A9012C193D094E095F09A7
:1005300019A2CE0181967C019AE0892E912CA12CE2
:10054000B12CCA01B901A50194010E94E404605DC7
:10055000F70162937F01211531054105510589F7A6
:1005600090E080E0309719F0CF010E945602800F92
:10057000911FA1960FB6F894DEBF0FBECDBFDF91DD
:10058000CF911F910F91FF90EF90DF90CF90BF9090
:10059000AF909F908F900895A701960119A28E01A8
:1005A0000F5D1F4F8AE0C82ED12CE12CF12CCA011F
:1005B000B901A70196010E94E404605DF80162930D
:1005C0008F01211531054105510589F790E080E043
:1005D000309779F2CF010E945602CBCF1F920F9233
:1005E0000FB60F9211242F933F938F939F93AF9346
:1005F000BF938091990190919A01A0919B01B09134
:100600009C013091980123E0230F2D3758F5019676
:10061000A11DB11D209398018093990190939A0197
:10062000A0939B01B0939C0180919D0190919E01AC
:10063000A0919F01B091A0010196A11DB11D8093D1
:100640009D0190939E01A0939F01B093A001BF9143
:10065000AF919F918F913F912F910F900FBE0F906F
:100660001F90189526E8230F0296A11DB11DD2CF29
:100670001F920F920FB60F9211242F933F934F9317
:100680005F936F937F938F939F93AF93BF93EF93FA
:10069000FF9381EA91E00E94C701FF91EF91BF9122
:1006A000AF919F918F917F916F915F914F913F910A
:1006B0002F910F900FBE0F901F9018951F920F92C1
:1006C0000FB60F9211242F938F939F93EF93FF9365
:1006D000E091B101F091B2018081E091B701F09118
:1006E000B80182FD1BC090818091BA018F5F8F732A
:1006F0002091BB01821741F0E091BA01F0E0EF5583
:10070000FE4F958F8093BA01FF91EF919F918F914A
:100710002F910F900FBE0F901F9018958081F4CFEE
:10072000789484B5826084BD84B5816084BD85B5CC
:10073000826085BD85B5816085BD80916E008160D8
:1007400080936E001092810080918100826080937E
:100750008100809181008160809381008091800080
:100760008160809380008091B10084608093B100AB
:100770008091B00081608093B00080917A008460A5
:1007800080937A0080917A00826080937A008091D1
:100790007A00816080937A0080917A0080688093EB
:1007A0007A001092C100E091B101F091B20182E0B3
:1007B0008083E091AD01F091AE011082E091AF0134
:1007C000F091B00180E180831092B901E091B50110
:1007D000F091B60186E08083E091B301F091B4011D
:1007E000808180618083E091B301F091B4018081C8
:1007F00088608083E091B301F091B40180818068CA
:100800008083E091B301F091B40180818F7D80837A
:1008100089E00E94870088E00E9487008DE00E94A6
:10082000870060E089E00E94A60060E088E00E9406
:10083000A60097EBE92EFF24F39420E4722E3FE00C
:10084000C32ED12C40E0A42E40E0B42EC2E3D0E071
:1008500061E089E00E94A60060E088E00E94A600B6
:10086000C7010197F1F760E089E00E94A60061E00E
:1008700088E00E94A600C7010197F1F7219741F790
:1008800060E089E00E94A60060E088E00E94A60087
:1008900024E630E0D0E0C0E088248A9483E0982EFB
:1008A00070927C0080917A00806480937A008091BD
:1008B0007A0086FDFCCF80917800909179008815B0
:1008C00099050CF44C01C817D9070CF4EC01C601CA
:1008D0000197F1F72150310919F78E01081919090B
:1008E00061E08DE00E94A60062E370E080E090E0AD
:1008F0000E94170160E08DE00E94A60085E191E072
:100900000E945602C8010E94710287E291E00E9493
:100910005602C4010E9471028FE291E00E945602C9
:10092000CE010E94710287E391E00E94560283E4A7
:1009300091E0053611053CF488E591E00F31110591
:1009400014F48CE791E00E94630268EE73E080E0AB
:1009500090E00E941701A114B10409F477CF0E941E
:10096000B301882309F472CF0E9400006FCFE1EA3F
:10097000F1E01382128288EE93E0A0E0B0E084837D
:100980009583A683B78384E091E09183808385EC8F
:1009900090E09587848784EC90E09787868780EC49
:1009A00090E0918B808B81EC90E0938B828B82EC3A
:1009B00090E0958B848B86EC90E0978B868B118EE4
:1009C000128E138E148E0895A1E21A2EAA1BBB1B41
:1009D000FD010DC0AA1FBB1FEE1FFF1FA217B3070B
:1009E000E407F50720F0A21BB30BE40BF50B661F21
:1009F000771F881F991F1A9469F7609570958095E5
:100A000090959B01AC01BD01CF010895EE0FFF1F32
:0C0A10000590F491E02D0994F894FFCFBC
:100A1C0000000000E901490176013602A7018501B9
:100A2C0099010D0A00517562697420416D706C69F1
:100A3C00747564653A2000205B4D696E3A20002C79
:100A4C00204D61783A20005D207C205374617465E0
:100A5C003A20007C313E2028436F686572656E74C5
:100A6C002053746174652900287C303E202B207C37
:100A7C00313E292F737172742832292028537570D6
:100A8C006572706F736974696F6E29007C303E20DB
:100A9C00284465636F6865726564202F204162731A
:080AAC006F726265642900000D
:00000001FF
