:100000000C945D000C9485000C9485000C94850084
:100010000C9485000C9485000C9485000C9485004C
:100020000C9485000C9485000C9485000C9485003C
:100030000C9485000C9485000C9485000C9485002C
:100040000C9401040C9485000C9471040C944B04E2
:100050000C9485000C9485000C9485000C9485000C
:100060000C9485000C9485000000000024002700FB
:100070002A0000000000250028002B0004040404CE
:100080000404040402020202020203030303030342
:10009000010204081020408001020408102001021F
:1000A00004081020000000080002010000030407FB
:1000B00000000000000000005D0511241FBECFEF0E
:1000C000D8E0DEBFCDBF12E0A0E0B1E0E0E5FDE0AA
:1000D00002C005900D92A235B107D9F722E0A2E542
:1000E000B2E001C01D92A83FB207E1F710E0CDE5F4
:1000F000D0E004C02197FE010E94A006CC35D107B4
:10010000C9F70E94A3040C94A6060C940000E9EA27
:10011000F0E02491E5E9F0E09491E1E8F0E0E49189
:10012000EE23C9F0222339F0233001F1A8F4213065
:1001300019F1223029F1F0E0EE0FFF1FEE58FF4FCA
:10014000A591B4912FB7F894EC91811126C09095A8
:100150009E239C932FBF08952730A9F02830C9F023
:10016000243049F7209180002F7D03C0209180002A
:100170002F7720938000DFCF24B52F7724BDDBCFEE
:1001800024B52F7DFBCF2091B0002F772093B000B6
:10019000D2CF2091B0002F7DF9CF9E2BDACF90E007
:1001A000FC01E057FF4F249184589F4FFC0184913C
:1001B000882399F090E0880F991FFC01E859FF4FC0
:1001C000A591B491FC01EE58FF4F859194918FB7A2
:1001D000F894EC91E22BEC938FBF08953FB7F8941D
:1001E0008091570290915802A0915902B0915A0201
:1001F00026B5A89B05C02F3F19F00196A11DB11D82
:100200003FBFBA2FA92F982F8827BC01CD01620FBD
:10021000711D811D911D42E0660F771F881F991F78
:100220004A95D1F708958F929F92AF92BF92CF9245
:10023000DF92EF92FF926B017C010E94EE004B0176
:100240005C01C114D104E104F104B9F00E94EE0094
:10025000681979098A099B09683E734081059105EF
:1002600080F321E0C21AD108E108F10888EE880E77
:1002700083E0981EA11CB11CE4CFFF90EF90DF90AB
:10028000CF90BF90AF909F908F900895AF92BF9204
:10029000CF92DF92EF92FF920F931F93CF93DF9352
:1002A0006C017B018B01040F151FEB015E01AE1881
:1002B000BF08C017D10759F06991D601ED91FC91A3
:1002C0000190F081E02DC6010995892B79F7C501D0
:1002D000DF91CF911F910F91FF90EF90DF90CF9022
:1002E000BF90AF900895FC01538D448D252F30E0D1
:1002F000842F90E0821B930B541710F0CF96089533
:1003000001970895FC01918D828D981761F0A28D5F
:10031000AE0FBF2FB11D5D968C91928D9F5F9F7325
:10032000928F90E008958FEF9FEF0895FC01918DDB
:10033000828D981731F0828DE80FF11D858D90E048
:1003400008958FEF9FEF0895FC01918D228D892FE5
:1003500090E0805C9F4F821B91098F7399270895CD
:100360008BE592E00E94A40121E0892B09F420E0B2
:10037000822F089580E090E0892B29F00E94B0013F
:1003800081110C9400000895FC01A48DA80FB92FD1
:10039000B11DA35ABF4F2C91848D90E001968F73AD
:1003A0009927848FA689B7892C93A089B1898C91CC
:1003B000837080648C93938D848D981306C002881B
:1003C000F389E02D80818F7D80830895EF92FF92E5
:1003D0000F931F93CF93DF93EC0181E0888F9B8D68
:1003E0008C8D98131AC0E889F989808185FF15C022
:1003F0009FB7F894EE89FF896083E889F989808145
:100400008370806480839FBF81E090E0DF91CF9113
:100410001F910F91FF90EF900895F62E0B8D10E035
:100420000F5F1F4F0F731127E02E8C8D8E110CC0A4
:100430000FB607FCFACFE889F989808185FFF5CFEF
:10044000CE010E94C401F1CFEB8DEC0FFD2FF11D09
:10045000E35AFF4FF0829FB7F8940B8FEA89FB892C
:1004600080818062CFCFCF93DF93EC01888D88238A
:10047000B9F0AA89BB89E889F9898C9185FD03C007
:10048000808186FD0DC00FB607FCF7CF8C9185FFEC
:10049000F2CF808185FFEDCFCE010E94C401E9CF6C
:1004A000DF91CF910895FC0101900020E9F7319789
:1004B000AF01481B590BBC018BE592E00C9446013F
:1004C000CF93DF930E945302EC0182E191E00E94FE
:1004D00053028C0F9D1FDF91CF9108958F929F92B1
:1004E000AF92BF92CF92DF92EF92FF920F931F9342
:1004F000CF93DF93CDB7DEB7A1970FB6F894DEBFE9
:100500000FBECDBF6C01990FEE08FF08F7FE41C08A
:100510006DE28BE592E00E94E6018C0122273327F1
:10052000A9012C193D094E095F0919A2CE01819636
:100530007C019AE0892E912CA12CB12CCA01B90121
:10054000A50194010E947E06605DF70162937F0120
:10055000211531054105510589F790E080E030977C
:1005600019F0CF010E945302800F911FA1960FB680
:10057000F894DEBF0FBECDBFDF91CF911F910F91D9
:10058000FF90EF90DF90CF90BF90AF909F908F90B3
:100590000895A701960119A28E010F5D1F4F8AE0F1
:1005A000C82ED12CE12CF12CCA01B901A70196016A
:1005B0000E947E06605DF80162938F01211531056E
:1005C0004105510589F790E080E0309779F2CF013D
:1005D0000E945302CBCF2F923F924F925F926F9225
:1005E0007F928F929F92AF92BF92CF92DF92EF92C3
:1005F000FF920F931F93CF93DF93EC0185E191E07E
:100600000E945302CE010E946E0283E491E00E9498
:100610006002412C512C32014FE1242E42E0342E55
:100620005FE0852E912C520102E310E0C130D1052C
:1006300009F08DC081E00E9487008FE491E001976E
:10064000F1F780E00E948700C1010197F1F70150A6
:10065000110981F7C301B2010E94130124E630E0C1
:1006600010E000E0EE24EA9483E0F82E81E4809329
:100670007C0080917A00806480937A0080917A0077
:1006800086FDFCCF80917800909179008E159F05B2
:100690000CF47C01081719070CF48C01C4010197B4
:1006A000F1F72150310911F76801CE18DF0889E40C
:1006B00091E00E945302C5010E946E0285E591E01F
:1006C0000E945302C6010E946E0285E691E00E94DC
:1006D0005302C7010E946E028DE691E00E94530210
:1006E000C8010E946E0285E791E00E94600268ECFA
:1006F00070E080E090E00E9413018AE0480E511CF7
:10070000611C711C86E3481681E05806610471047F
:1007100009F089CF87E791E00E945302CE010E9441
:100720006E0283E491E0DF91CF911F910F91FF90D2
:10073000EF90DF90CF90BF90AF909F908F907F9081
:100740006F905F904F903F902F900C946002C12C5F
:10075000D12C3EEDE32E32E4F32EC230D10591F4DC
:1007600081E00E94870087ED90E00197F1F780E03B
:100770000E94870087E992E00197F1F70150110983
:1007800079F768CF81E00E94870021E835E943E4EA
:100790005FE3C701B6010E94E9050E948A05623045
:1007A000710540F0660F771F660F771FCB01059725
:1007B0000197F1F780E00E9487002FE335E34EE9CF
:1007C0005FE3C701B6010E94E9050E948A05623015
:1007D000710540F0660F771F660F771FCB010597F5
:1007E0000197F1F725E83BEE41E85FE3C701B60169
:1007F0000E94E9056B017C010150110909F0C2CF8B
:1008000029CF1F920F920FB60F9211242F933F936F
:100810008F939F93AF93BF93809153029091540213
:10082000A0915502B09156023091520223E0230F5D
:100830002D3758F50196A11DB11D209352028093CA
:10084000530290935402A0935502B09356028091A4
:10085000570290915802A0915902B0915A02019604
:10086000A11DB11D8093570290935802A093590285
:10087000B0935A02BF91AF919F918F913F912F9169
:100880000F900FBE0F901F90189526E8230F029629
:10089000A11DB11DD2CF1F920F920FB60F9211243E
:1008A0002F933F934F935F936F937F938F939F9378
:1008B000AF93BF93EF93FF938BE592E00E94C40147
:1008C000FF91EF91BF91AF919F918F917F916F9128
:1008D0005F914F913F912F910F900FBE0F901F90FE
:1008E00018951F920F920FB60F9211242F938F938A
:1008F0009F93EF93FF93E0916B02F0916C028081E4
:10090000E0917102F091720282FD1BC09081809192
:1009100074028F5F8F7320917502821741F0E0910E
:100920007402F0E0E55AFD4F958F80937402FF91B9
:10093000EF919F918F912F910F900FBE0F901F906D
:1009400018958081F4CF789484B5826084BD84B595
:10095000816084BD85B5826085BD85B5816085BDBA
:1009600080916E00816080936E0010928100809172
:1009700081008260809381008091810081608093FA
:100980008100809180008160809380008091B1001F
:1009900084608093B1008091B00081608093B0004A
:1009A00080917A00846080937A0080917A008260DE
:1009B00080937A0080917A00816080937A008091A0
:1009C0007A00806880937A001092C100E0916B02F7
:1009D000F0916C0282E08083E0916702F0916802FE
:1009E0001082E0916902F0916A0280E180831092A6
:1009F0007302E0916F02F091700286E08083E091D3
:100A00006D02F0916E02808180618083E0916D02C1
:100A1000F0916E02808188608083E0916D02F09198
:100A20006E02808180688083E0916D02F0916E0299
:100A300080818F7D808385E00E94CF008DE00E94C1
:100A4000CF0080E00E94870082EA91E00E9460026D
:100A500085ED91E00E94600289E092E00E946002D0
:100A600082EA91E00E946002C0E0D0E08BE592E073
:100A70000E94A4011816190654F48BE592E00E9416
:100A80008201813381F481E090E00E94EB0280E0FA
:100A90000E948700209751F30E94B001882331F310
:100AA0000E940000E3CF823319F482E090E0EDCFA2
:100AB000833369F783E090E0E8CFEBE5F2E013825F
:100AC000128288EE93E0A0E0B0E084839583A68351
:100AD000B78384E091E09183808385EC90E09587F3
:100AE000848784EC90E09787868780EC90E0918BF8
:100AF000808B81EC90E0938B828B82EC90E0958BE5
:100B0000848B86EC90E0978B868B118E128E138EE1
:100B1000148E08950E9491056894B1110C94E30518
:100B200008950E94C80588F09F5798F0B92F99271B
:100B3000B751B0F0E1F0660F771F881F991F1AF0C8
:100B4000BA95C9F714C0B13091F00E94E205B1E046
:100B500008950C94E205672F782F8827B85F39F045
:100B6000B93FCCF3869577956795B395D9F73EF461
:100B700090958095709561957F4F8F4F9F4F089509
:100B800057FD9058440F551F59F05F3F71F047953E
:100B9000880F97FB991F61F09F3F79F08795089523
:100BA000121613061406551FF2CF4695F1DF08C042
:100BB000161617061806991FF1CF8695710561055F
:100BC00008940895E894BB2766277727CB0197F907
:100BD00008950E94FC050C946D060E945F0638F093
:100BE0000E94660620F0952311F00C9456060C9492
:100BF0005C0611240C94E3050E94C00570F3959FD8
:100C0000C1F3950F50E0551F629FF001729FBB2703
:100C1000F00DB11D639FAA27F00DB11DAA1F649F9F
:100C20006627B00DA11D661F829F2227B00DA11D52
:100C3000621F739FB00DA11D621F839FA00D611DD8
:100C4000221F749F3327A00D611D231F849F600DF9
:100C5000211D822F762F6A2F11249F5750409AF022
:100C6000F1F088234AF0EE0FFF1FBB1F661F771FAE
:100C7000881F91505040A9F79E3F510580F00C9479
:100C800056060C94E3055F3FE4F3983ED4F3869553
:100C900077956795B795F795E7959F5FC1F7FE2B19
:100CA000880F911D9695879597F9089597F99F67F5
:100CB00080E870E060E008959FEF80EC08950024E4
:100CC0000A941616170618060906089500240A94B1
:100CD00012161306140605060895092E0394000C37
:100CE00011F4882352F0BB0F40F4BF2B11F460FFC6
:100CF00004C06F5F7F4F8F4F9F4F0895A1E21A2E60
:100D0000AA1BBB1BFD010DC0AA1FBB1FEE1FFF1FAF
:100D1000A217B307E407F50720F0A21BB30BE40BFF
:100D2000F50B661F771F881F991F1A9469F7609546
:100D30007095809590959B01AC01BD01CF01089500
:100D4000EE0FFF1F0590F491E02D0994F894FFCF6A
:100D500000000000E601460173013302A401820194
:100D600096010D0A000A2D2D2D2053544152542076
:100D7000543220434F484552454E43452044454355
:100D8000415920535745455020284D4554484F441C
:100D90003A200029202D2D2D00446563617944659A
:100DA0006C61793A006D73207C20416D706C6974C0
:100DB0007564653A00205B4D696E3A20002C204D29
:100DC00061783A20005D002D2D2D20454E442054A1
:100DD0003220434F484552454E4345204445434108
:100DE0005920535745455020284D4554484F443AC3
:100DF00020003D3D3D3D3D3D3D3D3D3D3D3D3D3D7D
:100E00003D3D3D3D3D3D3D3D3D3D3D3D3D3D3D3D12
:100E10003D3D3D3D3D3D3D3D3D3D3D3D3D3D3D3D02
:100E20003D3D3D3D00202054415020544852454511
:100E30002D4D4554484F44204153594D4D45545232
:100E4000494320434F524520284435202D3E204120
:100E50003129202020202020002020436F6D6D614B
:100E60006E64733A20273127202D3E20476F6C6433
:100E7000656E20526174696F2C20273227202D3E29
:100E800020333A3120456E657267792C202733274D
:100E9000202D3E20457868616C652043686972703A
:020EA000000050
:00000001FF
