:100000000C945D000C9485000C9485000C94850084
:100010000C9485000C9485000C9485000C9485004C
:100020000C9485000C9485000C9485000C9485003C
:100030000C9485000C9485000C9485000C9485002C
:100040000C941F030C9485000C948F030C9469038B
:100050000C9485000C9485000C9485000C9485000C
:100060000C9485000C94850000000008000201003B
:100070000003040700000000000000000000000072
:10008000250028002B0000000000240027002A0083
:10009000040404040404040402020202020203032E
:1000A0000303030301020408102040800102040836
:1000B0001020010204081020C90511241FBECFEF33
:1000C000D8E0DEBFCDBF13E0A0E0B1E0E0E4FCE0AB
:1000D00002C005900D92A234B107D9F723E0A2E443
:1000E000B3E001C01D92A83EB207E1F710E0CDE5F4
:1000F000D0E004C02197FE010E941806CC35D1073C
:10010000C9F70E94C1030C941E060C94000081E400
:1001100080937C0080917A00806480937A00809143
:100120007A0086FDFCCF8091780090917900089547
:1001300090E0FC01EC55FF4F249180579F4FFC014C
:100140008491882399F090E0880F991FFC01EA5769
:10015000FF4FA591B491FC01E458FF4F8591949114
:100160008FB7F894EC91E22BEC938FBF089590E059
:10017000FC01E859FF4F2491FC01EC55FF4F3491ED
:10018000FC01E057FF4FE491EE23C9F0222339F040
:10019000233001F1A8F4213019F1223029F1F0E0E7
:1001A000EE0FFF1FE458FF4FA591B4918FB7F8945D
:1001B000EC91611126C030953E233C938FBF08958A
:1001C0002730A9F02830C9F0243049F78091800009
:1001D0008F7D03C0809180008F7780938000DFCF78
:1001E00084B58F7784BDDBCF84B58F7DFBCF8091C5
:1001F000B0008F778093B000D2CF8091B0008F7D18
:10020000F9CF3E2BDACF0F931F93CF93DF93C2E347
:10021000D0E007EB11E061E085E00E94B700C80183
:100220000197F1F760E085E00E94B700C8010197EF
:10023000F1F7219781F7DF91CF911F910F910895E9
:100240003FB7F8948091470390914803A0914903E8
:10025000B0914A0326B5A89B05C02F3F19F001961F
:10026000A11DB11D3FBFBA2FA92F982F8827BC0110
:10027000CD01620F711D811D911D42E0660F771F38
:10028000881F991F4A95D1F708958F929F92AF9238
:10029000BF92CF92DF92EF92FF926B017C010E949E
:1002A00020014B015C01C114D104E104F104B9F057
:1002B0000E942001681979098A099B09683E7340E8
:1002C0008105910580F321E0C21AD108E108F10807
:1002D00088EE880E83E0981EA11CB11CE4CFFF902D
:1002E000EF90DF90CF90BF90AF909F908F90089548
:1002F000AF92BF92CF92DF92EF92FF920F931F9334
:10030000CF93DF936C017B018B01040F151FEB0171
:100310005E01AE18BF08C017D10759F06991D60128
:10032000ED91FC910190F081E02DC6010995892B9A
:1003300079F7C501DF91CF911F910F91FF90EF9059
:10034000DF90CF90BF90AF900895FC01538D448D06
:10035000252F30E0842F90E0821B930B541710F070
:10036000CF96089501970895FC01918D828D98177D
:1003700061F0A28DAE0FBF2FB11D5D968C91928D55
:100380009F5F9F73928F90E008958FEF9FEF089586
:10039000FC01918D828D981731F0828DE80FF11D4F
:1003A000858D90E008958FEF9FEF0895FC01918D6A
:1003B000228D892F90E0805C9F4F821B91098F7363
:1003C000992708958BE493E00E94D60121E0892BC0
:1003D00009F420E0822F089580E090E0892B29F035
:1003E0000E94E20181110C9400000895FC01A48D8B
:1003F000A80FB92FB11DA35ABF4F2C91848D90E047
:1004000001968F739927848FA689B7892C93A08929
:10041000B1898C91837080648C93938D848D9813B3
:1004200006C00288F389E02D80818F7D8083089546
:10043000EF92FF920F931F93CF93DF93EC0181E034
:10044000888F9B8D8C8D98131AC0E889F9898081DB
:1004500085FF15C09FB7F894EE89FF896083E8890E
:10046000F98980818370806480839FBF81E090E000
:10047000DF91CF911F910F91FF90EF900895F62E8D
:100480000B8D10E00F5F1F4F0F731127E02E8C8D27
:100490008E110CC00FB607FCFACFE889F98980816C
:1004A00085FFF5CFCE010E94F601F1CFEB8DEC0F69
:1004B000FD2FF11DE35AFF4FF0829FB7F8940B8F89
:1004C000EA89FB8980818062CFCFCF93DF93EC01F3
:1004D000888D8823B9F0AA89BB89E889F9898C912C
:1004E00085FD03C0808186FD0DC00FB607FCF7CFE8
:1004F0008C9185FFF2CF808185FFEDCFCE010E94E8
:10050000F601E9CFDF91CF910895FC010190002021
:10051000E9F73197AF01481B590BBC018BE493E01D
:100520000C947801CF93DF930E948502EC0182E165
:1005300091E00E9485028C0F9D1FDF91CF9108955D
:100540000C9485028F929F92AF92BF92CF92DF92CE
:10055000EF92FF920F931F93CF93DF93CDB7DEB748
:10056000A1970FB6F894DEBF0FBECDBF6C01990FF7
:10057000EE08FF08F7FE41C06DE28BE493E00E94B5
:1005800018028C0122273327A9012C193D094E0995
:100590005F0919A2CE0181967C019AE0892E912CE7
:1005A000A12CB12CCA01B901A50194010E94F60544
:1005B000605DF70162937F01211531054105510509
:1005C00089F790E080E0309719F0CF010E94850212
:1005D000800F911FA1960FB6F894DEBF0FBECDBF5E
:1005E000DF91CF911F910F91FF90EF90DF90CF900F
:1005F000BF90AF909F908F900895A701960119A288
:100600008E010F5D1F4F8AE0C82ED12CE12CF12CFA
:10061000CA01B901A70196010E94F605605DF801C3
:1006200062938F01211531054105510589F790E04D
:1006300080E0309779F2CF010E948502CBCF1F92E4
:100640000F920FB60F9211242F933F938F939F9386
:10065000AF93BF938091430390914403A0914503CE
:10066000B09146033091420323E0230F2D3758F514
:100670000196A11DB11D20934203809343039093E3
:100680004403A0934503B0934603809147039091A0
:100690004803A0914903B0914A030196A11DB11DE1
:1006A0008093470390934803A0934903B0934A0370
:1006B000BF91AF919F918F913F912F910F900FBE5E
:1006C0000F901F90189526E8230F0296A11DB11DCB
:1006D000D2CF1F920F920FB60F9211242F933F93F8
:1006E0004F935F936F937F938F939F93AF93BF933A
:1006F000EF93FF938BE493E00E94F601FF91EF915B
:10070000BF91AF919F918F917F916F915F914F9129
:100710003F912F910F900FBE0F901F9018951F9231
:100720000F920FB60F9211242F938F939F93EF93F5
:10073000FF93E0915B03F0915C038081E0916103A2
:10074000F091620382FD1BC09081809164038F5FF2
:100750008F7320916503821741F0E0916403F0E00C
:10076000E55BFC4F958F80936403FF91EF919F9120
:100770008F912F910F900FBE0F901F901895808131
:10078000F4CF789484B5826084BD84B5816084BDE3
:1007900085B5826085BD85B5816085BD80916E001F
:1007A000816080936E001092810080918100826050
:1007B000809381008091810081608093810080918D
:1007C00080008160809380008091B100846080937C
:1007D000B1008091B00081608093B00080917A0078
:1007E000846080937A0080917A00826080937A009E
:1007F00080917A00816080937A0080917A0080688D
:1008000080937A001092C100E0915B03F0915C0349
:1008100082E08083E0915703F09158031082E091C9
:100820005903F0915A0380E1808310926303E091B1
:100830005F03F091600386E08083E0915D03F091B7
:100840005E03808180618083E0915D03F0915E03AF
:10085000808188608083E0915D03F0915E038081F8
:1008600080688083E0915D03F0915E0380818F7DDD
:10087000808385E00E9498008DE00E94980060E0EF
:1008800085E00E94B70085E191E00E94920288E431
:1008900091E00E9492028BE791E00E94920285E132
:1008A00091E00E94920207EB11E0FFE06F2E712CA5
:1008B000A0E02A2EA0E03A2E8BE493E00E94D6011D
:1008C000181619060CF069C08BE493E00E94B4017D
:1008D000813309F0C3C082EC91E00E949202812C26
:1008E000912C540124010E940301C501B4010E940E
:1008F000450174E6C72ED12CD0E0C0E0EE24EA9486
:10090000E3E0FE2E0E9487008E159F050CF47C010B
:10091000C817D9070CF4EC01C3010197F1F781E086
:10092000C81AD10879F76E01CE18DF088AEE91E077
:100930000E94A002C2010E94A20286EF91E00E94E2
:10094000A002C6010E94A20286E092E00E94A002DC
:10095000C7010E94A2028EE092E00E94A002CE0196
:100960000E94A20286E192E00E94920268EC70E08E
:1009700080E090E00E9445018AE0880E911CA11C55
:10098000B11C86E3881681E09806A104B10409F041
:10099000A9CF88E192E00E9492020E94030184E6BE
:1009A000C82ED12CD0E0C0E0EE24EA9493E0F92EDA
:1009B0000E9487008E159F050CF47C01C817D9078B
:1009C0000CF4EC01C3010197F1F781E0C81AD108DA
:1009D00079F76E01CE18DF0861E08DE00E94B70064
:1009E00062E370E080E090E00E94450160E08DE00D
:1009F0000E94B7008FEC92E00E94A002C6010E9404
:100A0000A20286E092E00E94A002C7010E94A20218
:100A10008EE092E00E94A002CE010E94A20281EE2E
:100A200092E00E94A00285E6C816D1040CF4A7C08B
:100A30008DEE92E00E94920268EE73E080E090E01A
:100A40000E9445012114310409F436CF0E94E201CD
:100A5000882309F431CF0E9400002ECF823309F0A1
:100A600088C08DE392E00E9492026BEF862E99245B
:100A70009A94D0E0C0E059E1E52EF12C61E085E0E8
:100A80000E94B700C8010197F1F760E085E00E947D
:100A9000B700C8010197F1F781E0E81AF10871F792
:100AA000C230D1051CF0C4010197F1F749E1E42EF1
:100AB000F12C61E085E00E94B700C8010197F1F7D1
:100AC00060E085E00E94B700C8010197F1F781E07E
:100AD000E81AF10871F724E6A22EB12CF12CE12CD2
:100AE000CC24CA9433E0D32E0E9487008C159D0538
:100AF0000CF46C01E816F9060CF47C01C3010197B3
:100B0000F1F781E0A81AB10879F75701AC18BD08D0
:100B100085E692E00E94A002CE010E94A20281E737
:100B200092E00E94A002C5010E94A20286E092E02B
:100B30000E94A002C6010E94A2028EE092E00E94E2
:100B4000A002C7010E94A20286E192E00E949202E6
:100B500068EC70E080E090E00E9445012B968CE20A
:100B6000880E911CC73ED10509F085CF81E892E03F
:100B700012CF803309F011CF86EA92E00CCF8FE1DB
:100B8000C816D1041CF082E093E054CF86E293E0D3
:100B900051CFEBE4F3E01382128288EE93E0A0E001
:100BA000B0E084839583A683B78384E091E091834A
:100BB000808385EC90E09587848784EC90E097872C
:100BC000868780EC90E0918B808B81EC90E0938B1A
:100BD000828B82EC90E0958B848B86EC90E0978BF7
:100BE000868B118E128E138E148E0895A1E21A2E0A
:100BF000AA1BBB1BFD010DC0AA1FBB1FEE1FFF1FC1
:100C0000A217B307E407F50720F0A21BB30BE40B10
:100C1000F50B661F771F881F991F1A9469F7609557
:100C20007095809590959B01AC01BD01CF01089511
:100C3000EE0FFF1F0590F491E02D0994F894FFCF7B
:100C40000000000018027801A5016502D601B40178
:100C5000C8010D0A003D3D3D3D3D3D3D3D3D3D3D15
:100C60003D3D3D3D3D3D3D3D3D3D3D3D3D3D3D3DB4
:100C70003D3D3D3D3D3D3D3D3D3D3D3D3D3D3D3DA4
:100C80003D3D3D3D3D3D3D002020544150205349D8
:100C90004E474C452D544F2D53494E474C4520430C
:100CA0004F484552454E434520434F524520284426
:100CB00035202D3E20413129202000202052656121
:100CC00064792E2053656E642027302720666F726A
:100CD00020426173656C696E652C20273127206680
:100CE0006F722054322053776565702C202732278D
:100CF00020666F7220506861736520537765657058
:100D00002E000A2D2D2D20535441525420543220B0
:100D1000434F484552454E434520444543415920A1
:100D20005357454550202D2D2D004465636179446E
:100D3000656C61793A006D73207C20416D706C693F
:100D4000747564653A00205B4D696E3A20002C2072
:100D50004D61783A20005D002D2D2D20454E442018
:100D6000543220434F484552454E43452044454365
:100D70004159205357454550202D2D2D000A2D2D2A
:100D80002D20535441525420504841534520494E40
:100D9000544552464552454E4345205357454550CC
:100DA000202D2D2D00506861736544656C61793A82
:100DB000007573207C20416D706C69747564653AB0
:100DC000002D2D2D20454E442050484153452049AB
:100DD0004E544552464552454E434520535745458E
:100DE00050202D2D2D000A2D2D2D205357495443D1
:100DF00048454420544F20434F4E54494E554F557B
:100E00005320424153454C494E45202D2D2D005134
:100E10007562697420416D706C69747564653A20FF
:100E2000005D207C2053746174653A20007C313E63
:100E30002028436F686572656E7420537461746511
:100E40002900287C303E202B207C313E292F7371D5
:100E5000727428322920285375706572706F736917
:100E600074696F6E29007C303E20284465636F688A
:100E700065726564202F204162736F726265642918
:020E8000000070
:00000001FF
