:100000000C945D000C9485000C9485000C94850084
:100010000C9485000C9485000C9485000C9485004C
:100020000C9485000C9485000C9485000C9485003C
:100030000C9485000C9485000C9485000C9485002C
:100040000C9479040C9485000C94E9040C94C3047A
:100050000C9485000C9485000C9485000C9485000C
:100060000C9485000C9485000000000024002700FB
:100070002A0000000000250028002B0004040404CE
:100080000404040402020202020203030303030342
:10009000010204081020408001020408102001021F
:1000A00004081020000000080002010000030407FB
:1000B0000000000000000000F20511241FBECFEF79
:1000C000D8E0DEBFCDBF12E0A0E0B1E0EAE7FEE09D
:1000D00002C005900D92A837B107D9F723E0A8E731
:1000E000B2E001C01D92AE31B207E1F710E0CDE5FC
:1000F000D0E004C02197FE010E943507CC35D1071E
:10010000C9F70E941B050C943B070C94000090E07B
:10011000FC01EC55FF4F2491FC01E057FF4F349157
:10012000FC01E458FF4FE491EE23C9F0222339F09B
:10013000233001F1A8F4213019F1223029F1F0E047
:10014000EE0FFF1FEE58FF4FA591B4918FB7F894B3
:10015000EC91611126C030953E233C938FBF0895EA
:100160002730A9F02830C9F0243049F78091800069
:100170008F7D03C0809180008F7780938000DFCFD8
:1001800084B58F7784BDDBCF84B58F7DFBCF809125
:10019000B0008F778093B000D2CF8091B0008F7D78
:1001A000F9CF3E2BDACFCF93DF9390E0FC01E057FD
:1001B000FF4F249184589F4FFC0184918823D1F0F4
:1001C00090E0880F991FFC01E859FF4FA591B49169
:1001D000FC01EE58FF4FC591D491623071F49FB786
:1001E000F8943C91822F809583238C93E8812E2B69
:1001F00028839FBFDF91CF9108958FB7F894EC913A
:100200002E2B2C938FBFF6CF8230910538F0880FBC
:10021000991F880F991F05970197F1F708953FB728
:10022000F89480917D0290917E02A0917F02B0911E
:10023000800226B5A89B05C02F3F19F00196A11D8D
:10024000B11D3FBFBA2FA92F982F8827BC01CD0120
:10025000620F711D811D911D42E0660F771F881F7F
:10026000991F4A95D1F708958F929F92AF92BF92AE
:10027000CF92DF92EF92FF926B017C010E940F01FF
:100280004B015C01C114D104E104F104B9F00E94F6
:100290000F01681979098A099B09683E7340810535
:1002A000910580F321E0C21AD108E108F10888EE37
:1002B000880E83E0981EA11CB11CE4CFFF90EF9044
:1002C000DF90CF90BF90AF909F908F900895AF92A6
:1002D000BF92CF92DF92EF92FF920F931F93CF9333
:1002E000DF936C017B018B01040F151FEB015E0195
:1002F000AE18BF08C017D10759F06991D601ED912A
:10030000FC910190F081E02DC6010995892B79F7C8
:10031000C501DF91CF911F910F91FF90EF90DF907A
:10032000CF90BF90AF900895FC01538D448D252F41
:1003300030E0842F90E0821B930B541710F0CF967F
:10034000089501970895FC01918D828D981761F0B1
:10035000A28DAE0FBF2FB11D5D968C91928D9F5FC8
:100360009F73928F90E008958FEF9FEF0895FC01A7
:10037000918D828D981731F0828DE80FF11D858D5A
:1003800090E008958FEF9FEF0895FC01918D228DED
:10039000892F90E0805C9F4F821B91098F73992772
:1003A000089581E892E00E94C50121E0892B09F4BB
:1003B00020E0822F089580E090E0892B29F00E94B0
:1003C000D10181110C9400000895FC01A48DA80FA7
:1003D000B92FB11DA35ABF4F2C91848D90E0019687
:1003E0008F739927848FA689B7892C93A089B189A7
:1003F0008C91837080648C93938D848D981306C048
:100400000288F389E02D80818F7D80830895EF92AB
:10041000FF920F931F93CF93DF93EC0181E0888FBE
:100420009B8D8C8D98131AC0E889F989808185FF8E
:1004300015C09FB7F894EE89FF896083E889F98930
:1004400080818370806480839FBF81E090E0DF9132
:10045000CF911F910F91FF90EF900895F62E0B8D85
:1004600010E00F5F1F4F0F731127E02E8C8D8E1140
:100470000CC00FB607FCFACFE889F989808185FFA7
:10048000F5CFCE010E94E501F1CFEB8DEC0FFD2FF2
:10049000F11DE35AFF4FF0829FB7F8940B8FEA8962
:1004A000FB8980818062CFCFCF93DF93EC01888D71
:1004B0008823B9F0AA89BB89E889F9898C9185FDDF
:1004C00003C0808186FD0DC00FB607FCF7CF8C916D
:1004D00085FFF2CF808185FFEDCFCE010E94E5013F
:1004E000E9CFDF91CF910895FC0101900020E9F759
:1004F0003197AF01481B590BBC0181E892E00C9485
:100500006701CF93DF930E947402EC0182E191E0D6
:100510000E9474028C0F9D1FDF91CF9108958F92DE
:100520009F92AF92BF92CF92DF92EF92FF920F9382
:100530001F93CF93DF93CDB7DEB7A1970FB6F89493
:10054000DEBF0FBECDBF6C01990FEE08FF08F7FEAE
:1005500041C06DE281E892E00E9407028C012227EF
:100560003327A9012C193D094E095F0919A2CE01B3
:1005700081967C019AE0892E912CA12CB12CCA0184
:10058000B901A50194010E941307605DF701629310
:100590007F01211531054105510589F790E080E083
:1005A000309719F0CF010E947402800F911FA1961D
:1005B0000FB6F894DEBF0FBECDBFDF91CF911F9174
:1005C0000F91FF90EF90DF90CF90BF90AF909F90F2
:1005D0008F900895A701960119A28E010F5D1F4FFC
:1005E0008AE0C82ED12CE12CF12CCA01B901A70157
:1005F00096010E941307605DF80162938F01211537
:1006000031054105510589F790E080E0309779F296
:10061000CF010E947402CBCF2F923F924F925F92F4
:100620006F927F928F929F92AF92BF92CF92DF9202
:10063000EF92FF920F931F93CF93DF93EC0185E12D
:1006400091E00E947402CE010E948F0283E491E047
:100650000E948102412C512C32013FE1232E32E0D5
:10066000332E4FE0842E912C520102E310E0C13072
:10067000D10509F09FC061E089E00E94870060E039
:1006800088E00E9487008FE491E00197F1F760E035
:1006900089E00E94870061E088E00E948700C10134
:1006A0000197F1F70150110931F760E089E00E94EC
:1006B000870060E088E00E948700C301B2010E94C9
:1006C000340124E630E010E000E0EE24EA9483E018
:1006D000F82E80E480937C0080917A00806480937F
:1006E0007A0080917A0086FDFCCF8091780090910D
:1006F00079008E159F050CF47C01081719070CF47E
:100700008C01C4010197F1F72150310911F76801FB
:10071000CE18DF0889E491E00E947402C5010E94AE
:100720008F0285E591E00E947402C6010E948F024B
:1007300085E691E00E947402C7010E948F028DE657
:1007400091E00E947402C8010E948F0285E791E047
:100750000E94810268EC70E080E090E00E94340129
:100760008AE0480E511C611C711C86E3481681E02A
:1007700058066104710409F077CF87E791E00E9481
:100780007402CE010E948F0283E491E0DF91CF9149
:100790001F910F91FF90EF90DF90CF90BF90AF909F
:1007A0009F908F907F906F905F904F903F902F9091
:1007B0000C948102C230D105E1F461E089E00E942D
:1007C000870060E088E00E94870087ED90E0019755
:1007D000F1F760E089E00E94870061E088E00E9414
:1007E000870087E992E00197F1F70150110929F795
:1007F0005CCFC12CD12C9EE5E92E93E4F92EC330B9
:10080000D10509F03EC0C12CD12C2EEDE22E22E400
:10081000F22E61E089E00E94870060E088E00E949B
:10082000870021E835E943E45FE3C701B6010E9490
:100830007E060E941F06CB010E94040160E089E051
:100840000E94870061E088E00E9487002FE335E383
:100850004EE95FE3C701B6010E947E060E941F06B3
:10086000CB010E94040125E83BEE41E85FE3C701AC
:10087000B6010E947E066B017C010150110949F608
:1008800014CF61E089E00E94870060E088E00E9468
:1008900087002CEF39EA41E75EE3C701B6010E9409
:1008A0007E060E941F06CB010E94040160E089E0E1
:1008B0000E94870061E088E00E94870021E835E916
:1008C00043E45FE3C701B6010E947E060E941F0653
:1008D000CB010E94040125E83BEE41E85FE3C7013C
:1008E000B6010E947E066B017C010150110949F698
:1008F000DCCE1F920F920FB60F9211242F933F93CD
:100900008F939F93AF93BF938091790290917A02D6
:10091000A0917B02B0917C023091780223E0230FFA
:100920002D3758F50196A11DB11D209378028093B3
:10093000790290937A02A0937B02B0937C0280911B
:100940007D0290917E02A0917F02B091800201967B
:10095000A11DB11D80937D0290937E02A0937F0222
:10096000B0938002BF91AF919F918F913F912F9152
:100970000F900FBE0F901F90189526E8230F029638
:10098000A11DB11DD2CF1F920F920FB60F9211244D
:100990002F933F934F935F936F937F938F939F9387
:1009A000AF93BF93EF93FF9381E892E00E94E5013C
:1009B000FF91EF91BF91AF919F918F917F916F9137
:1009C0005F914F913F912F910F900FBE0F901F900D
:1009D00018951F920F920FB60F9211242F938F9399
:1009E0009F93EF93FF93E0919102F09192028081A7
:1009F000E0919702F091980282FD1BC09081809156
:100A00009A028F5F8F7320919B02821741F0E091D1
:100A10009A02F0E0EF57FD4F958F80939A02FF9175
:100A2000EF919F918F912F910F900FBE0F901F907C
:100A300018958081F4CF789484B5826084BD84B5A4
:100A4000816084BD85B5826085BD85B5816085BDC9
:100A500080916E00816080936E0010928100809181
:100A60008100826080938100809181008160809309
:100A70008100809180008160809380008091B1002E
:100A800084608093B1008091B00081608093B00059
:100A900080917A00846080937A0080917A008260ED
:100AA00080937A0080917A00816080937A008091AF
:100AB0007A00806880937A001092C100E0919102E0
:100AC000F091920282E08083E0918D02F0918E029B
:100AD0001082E0918F02F091900280E18083109269
:100AE0009902E0919502F091960286E08083E09170
:100AF0009302F0919402808180618083E09193025F
:100B0000F0919402808188608083E0919302F0915B
:100B10009402808180688083E0919302F091940236
:100B200080818F7D808361E089E00E94D30061E055
:100B300088E00E94D30061E08DE00E94D30062E073
:100B40008EE00E94D30060E089E00E94870060E0B0
:100B500088E00E94870082EA91E00E94810285ED90
:100B600091E00E94810288E092E00E9481028AE383
:100B700092E00E94810282EA91E00E948102C0E03C
:100B8000D0E081E892E00E94C5011816190654F4DD
:100B900081E892E00E94A3018133A9F481E090E012
:100BA0000E940C0360E089E00E94870060E088E01A
:100BB0000E948700209729F30E94D101882309F31E
:100BC0000E940000DECF823319F482E090E0E8CF8B
:100BD000833319F483E090E0E3CF843319F784E0A2
:100BE00090E0DECFE1E8F2E01382128288EE93E03B
:100BF000A0E0B0E084839583A683B78384E091E08E
:100C00009183808385EC90E09587848784EC90E0E5
:100C10009787868780EC90E0918B808B81EC90E0C9
:100C2000938B828B82EC90E0958B848B86EC90E0AA
:100C3000978B868B118E128E138E148E08950E94C0
:100C400026066894B1110C94780608950E945D06FA
:100C500088F09F5798F0B92F9927B751B0F0E1F07D
:100C6000660F771F881F991F1AF0BA95C9F714C02D
:100C7000B13091F00E947706B1E008950C947706A8
:100C8000672F782F8827B85F39F0B93FCCF3869566
:100C900077956795B395D9F73EF4909580957095C3
:100CA00061957F4F8F4F9F4F089557FD9058440F88
:100CB000551F59F05F3F71F04795880F97FB991FBB
:100CC00061F09F3F79F08795089512161306140678
:100CD000551FF2CF4695F1DF08C016161706180605
:100CE000991FF1CF86957105610508940895E894E0
:100CF000BB2766277727CB0197F908950E949106B5
:100D00000C9402070E94F40638F00E94FB0620F0C3
:100D1000952311F00C94EB060C94F10611240C941D
:100D200078060E94550670F3959FC1F3950F50E029
:100D3000551F629FF001729FBB27F00DB11D639F8D
:100D4000AA27F00DB11DAA1F649F6627B00DA11D33
:100D5000661F829F2227B00DA11D621F739FB00DD9
:100D6000A11D621F839FA00D611D221F749F332749
:100D7000A00D611D231F849F600D211D822F762FE2
:100D80006A2F11249F5750409AF0F1F088234AF0BF
:100D9000EE0FFF1FBB1F661F771F881F915050402B
:100DA000A9F79E3F510580F00C94EB060C94780651
:100DB0005F3FE4F3983ED4F3869577956795B795B2
:100DC000F795E7959F5FC1F7FE2B880F911D9695CC
:100DD000879597F9089597F99F6780E870E060E03C
:100DE00008959FEF80EC089500240A9416161706C4
:100DF00018060906089500240A941216130614060C
:100E000005060895092E0394000C11F4882352F06E
:100E1000BB0F40F4BF2B11F460FF04C06F5F7F4F26
:100E20008F4F9F4F0895A1E21A2EAA1BBB1BFD01F5
:100E30000DC0AA1FBB1FEE1FFF1FA217B307E407B9
:100E4000F50720F0A21BB30BE40BF50B661F771F11
:100E5000881F991F1A9469F76095709580959095F1
:100E60009B01AC01BD01CF010895EE0FFF1F05905E
:0A0E7000F491E02D0994F894FFCFEF
:100E7A00000000000702670194015402C501A301A2
:100E8A00B7010D0A000A2D2D2D205354415254202A
:100E9A00543220434F484552454E4345204445432A
:100EAA00415920535745455020284D4554484F44F1
:100EBA003A200029202D2D2D00446563617944656F
:100ECA006C61793A006D73207C20416D706C697495
:100EDA007564653A00205B4D696E3A20002C204DFE
:100EEA0061783A20005D002D2D2D20454E44205476
:100EFA003220434F484552454E43452044454341DD
:100F0A005920535745455020284D4554484F443A97
:100F1A0020003D3D3D3D3D3D3D3D3D3D3D3D3D3D51
:100F2A003D3D3D3D3D3D3D3D3D3D3D3D3D3D3D3DE7
:100F3A003D3D3D3D3D3D3D3D3D3D3D3D3D3D3D3DD7
:100F4A003D3D3D3D00202054415020325332502037
:100F5A0031305620444946464552454E5449414C43
:100F6A0020434F5245202844392F4438202D3E2013
:100F7A0041302920202020002020494E5445524E3D
:100F8A00414C2050554C4C2D555020414354495604
:100F9A004520284E4F20464C4F4154494E47204841
:100FAA00554D29202020202020002020436F6D6DE0
:100FBA00616E64733A202731272D3E476F6C646552
:100FCA006E2C202732272D3E333A312C2027332707
:100FDA002D3E43686972702C202734272D3E4675B2
:080FEA007365642054415000BE
:00000001FF
