:100000000C945D000C9485000C9485000C94850084
:100010000C9485000C9485000C9485000C9485004C
:100020000C9485000C9485000C9485000C9485003C
:100030000C9485000C9485000C9485000C9485002C
:100040000C94FC020C9485000C946C030C944603F5
:100050000C9485000C9485000C9485000C9485000C
:100060000C9485000C9485000000000024002700FB
:100070002A0000000000250028002B0004040404CE
:100080000404040402020202020203030303030342
:10009000010204081020408001020408102001021F
:1000A00004081020000000080002010000030407FB
:1000B0000000000000000000570511241FBECFEF14
:1000C000D8E0DEBFCDBF12E0A0E0B1E0ECE5FBE0A0
:1000D00002C005900D92A439B107D9F723E0A4E935
:1000E000B2E001C01D92AA33B207E1F710E0CDE5FE
:1000F000D0E004C02197FE010E94A605CC35D107AF
:10010000C9F70E949E030C94AC050C940000E9EA28
:10011000F0E02491E5E9F0E09491E1E8F0E0E49189
:10012000EE23C9F0222339F0233001F1A8F4213065
:1001300019F1223029F1F0E0EE0FFF1FEE58FF4FCA
:10014000A591B4912FB7F894EC91811126C09095A8
:100150009E239C932FBF08952730A9F02830C9F023
:10016000243049F7209180002F7D03C0209180002A
:100170002F7720938000DFCF24B52F7724BDDBCFEE
:1001800024B52F7DFBCF2091B0002F772093B000B6
:10019000D2CF2091B0002F7DF9CF9E2BDACF81E412
:1001A00080937C0080917A00806480937A008091B3
:1001B0007A0086FDFCCF80917800909179000895B7
:1001C00090E0FC01E057FF4F249184589F4FFC01C1
:1001D0008491882399F090E0880F991FFC01E859D9
:1001E000FF4FA591B491FC01EE58FF4F859194917A
:1001F0008FB7F894EC91E22BEC938FBF08953FB743
:10020000F8948091990290919A02A0919B02B091EA
:100210009C0226B5A89B05C02F3F19F00196A11D91
:10022000B11D3FBFBA2FA92F982F8827BC01CD0140
:10023000620F711D811D911D42E0660F771F881F9F
:10024000991F4A95D1F708958F929F92AF92BF92CE
:10025000CF92DF92EF92FF926B017C010E94FF0030
:100260004B015C01C114D104E104F104B9F00E9416
:10027000FF00681979098A099B09683E7340810566
:10028000910580F321E0C21AD108E108F10888EE57
:10029000880E83E0981EA11CB11CE4CFFF90EF9064
:1002A000DF90CF90BF90AF909F908F900895AF92C6
:1002B000BF92CF92DF92EF92FF920F931F93CF9353
:1002C000DF936C017B018B01040F151FEB015E01B5
:1002D000AE18BF08C017D10759F06991D601ED914A
:1002E000FC910190F081E02DC6010995892B79F7E9
:1002F000C501DF91CF911F910F91FF90EF90DF909B
:10030000CF90BF90AF900895FC01538D448D252F61
:1003100030E0842F90E0821B930B541710F0CF969F
:10032000089501970895FC01918D828D981761F0D1
:10033000A28DAE0FBF2FB11D5D968C91928D9F5FE8
:100340009F73928F90E008958FEF9FEF0895FC01C7
:10035000918D828D981731F0828DE80FF11D858D7A
:1003600090E008958FEF9FEF0895FC01918D228D0D
:10037000892F90E0805C9F4F821B91098F73992792
:1003800008958DE992E00E94B50121E0892B09F4DE
:1003900020E0822F089580E090E0892B29F00E94D0
:1003A000C10181110C9400000895FC01A48DA80FD7
:1003B000B92FB11DA35ABF4F2C91848D90E00196A7
:1003C0008F739927848FA689B7892C93A089B189C7
:1003D0008C91837080648C93938D848D981306C068
:1003E0000288F389E02D80818F7D80830895EF92CC
:1003F000FF920F931F93CF93DF93EC0181E0888FDF
:100400009B8D8C8D98131AC0E889F989808185FFAE
:1004100015C09FB7F894EE89FF896083E889F98950
:1004200080818370806480839FBF81E090E0DF9152
:10043000CF911F910F91FF90EF900895F62E0B8DA5
:1004400010E00F5F1F4F0F731127E02E8C8D8E1160
:100450000CC00FB607FCFACFE889F989808185FFC7
:10046000F5CFCE010E94D501F1CFEB8DEC0FFD2F22
:10047000F11DE35AFF4FF0829FB7F8940B8FEA8982
:10048000FB8980818062CFCFCF93DF93EC01888D91
:100490008823B9F0AA89BB89E889F9898C9185FDFF
:1004A00003C0808186FD0DC00FB607FCF7CF8C918D
:1004B00085FFF2CF808185FFEDCFCE010E94D5016F
:1004C000E9CFDF91CF910895FC0101900020E9F779
:1004D0003197AF01481B590BBC018DE992E00C9498
:1004E0005701CF93DF930E946402EC0182E191E017
:1004F0000E9464028C0F9D1FDF91CF9108958F920F
:100500009F92AF92BF92CF92DF92EF92FF920F93A2
:100510001F93CF93DF93CDB7DEB7A1970FB6F894B3
:10052000DEBF0FBECDBF6C01990FEE08FF08F7FECE
:1005300041C06DE28DE992E00E94F7018C01222713
:100540003327A9012C193D094E095F0919A2CE01D3
:1005500081967C019AE0892E912CA12CB12CCA01A4
:10056000B901A50194010E948405605DF7016293C1
:100570007F01211531054105510589F790E080E0A3
:10058000309719F0CF010E946402800F911FA1964D
:100590000FB6F894DEBF0FBECDBFDF91CF911F9194
:1005A0000F91FF90EF90DF90CF90BF90AF909F9012
:1005B0008F900895A701960119A28E010F5D1F4F1C
:1005C0008AE0C82ED12CE12CF12CCA01B901A70177
:1005D00096010E948405605DF80162938F012115E8
:1005E00031054105510589F790E080E0309779F2B7
:1005F000CF010E946402CBCF1F920F920FB60F92D1
:1006000011242F933F938F939F93AF93BF93809128
:10061000950290919602A0919702B0919802309124
:10062000940223E0230F2D3758F50196A11DB11D2B
:10063000209394028093950290939602A093970240
:10064000B09398028091990290919A02A0919B0296
:10065000B0919C020196A11DB11D809399029093C7
:100660009A02A0939B02B0939C02BF91AF919F917D
:100670008F913F912F910F900FBE0F901F90189563
:1006800026E8230F0296A11DB11DD2CF1F920F9213
:100690000FB60F9211242F933F934F935F936F9355
:1006A0007F938F939F93AF93BF93EF93FF938DE9C6
:1006B00092E00E94D501FF91EF91BF91AF919F9180
:1006C0008F917F916F915F914F913F912F910F90FB
:1006D0000FBE0F901F9018951F920F920FB60F929A
:1006E00011242F938F939F93EF93FF93E091AD028B
:1006F000F091AE028081E091B302F091B40282FDEC
:100700001BC090818091B6028F5F8F732091B702DA
:10071000821741F0E091B602F0E0E356FD4F958F6D
:100720008093B602FF91EF919F918F912F910F903F
:100730000FBE0F901F9018958081F4CF789484B5E8
:10074000826084BD84B5816084BD85B5826085BDCD
:1007500085B5816085BD80916E00816080936E005B
:10076000109281008091810082608093810080914D
:1007700081008160809381008091800081608093FE
:1007800080008091B10084608093B1008091B000BE
:1007900081608093B00080917A00846080937A00B9
:1007A00080917A00826080937A0080917A008160E3
:1007B00080937A0080917A00806880937A0010920A
:1007C000C100E091AD02F091AE0282E08083E09141
:1007D000A902F091AA021082E091AB02F091AC0262
:1007E00080E180831092B502E091B102F091B202F3
:1007F00086E08083E091AF02F091B0028081806159
:100800008083E091AF02F091B002808188608083A4
:10081000E091AF02F091B002808180688083E09126
:10082000AF02F091B00280818F7D808385E00E94CD
:10083000E0008DE00E94E00080E00E94870085E1FA
:1008400091E00E94710288E491E00E9471028BE7BE
:1008500091E00E94710285E191E00E947102C7EB74
:10086000D1E07FE0472E512CE0E02E2EE0E03E2E3E
:100870008DE992E00E94B501181619060CF078C0B7
:100880008DE992E00E949301813309F089C080EBE9
:1008900091E00E947102812C912C5401340102E3F9
:1008A00010E081E00E948700CE010197F1F780E01F
:1008B0000E948700CE010197F1F70150110989F7D5
:1008C000C501B4010E94240154E6C52ED12C10E0CC
:1008D00000E0EE24EA9463E0F62E0E94CF008E152D
:1008E0009F050CF47C01081719070CF48C01C20158
:1008F0000197F1F781E0C81AD10879F76801CE189D
:10090000DF0888ED91E00E946402C3010E947F022B
:1009100084EE91E00E946402C6010E947F0284EF8F
:1009200091E00E946402C7010E947F028CEF91E077
:100930000E946402C8010E947F0284E092E00E944B
:10094000710268EC70E080E090E00E9424018AE08F
:10095000880E911CA11CB11C86E3881681E09806C4
:10096000A104B10409F09ACF86E092E00E947102DE
:1009700081E00E948700CE010197F1F780E00E949C
:100980008700CE010197F1F72114310409F470CFEB
:100990000E94C101882309F46BCF0E94000068CF38
:1009A000823331F78BE292E00E9471024BEF842E8A
:1009B00099249A9410E000E039E1E32EF12C81E0D3
:1009C0000E948700CE010197F1F780E00E94870026
:1009D000CE010197F1F781E0E81AF10881F70230C2
:1009E00011051CF0C4010197F1F729E1E22EF12C69
:1009F00081E00E948700CE010197F1F780E00E941C
:100A00008700CE010197F1F781E0E81AF10881F73C
:100A100084E6A82EB12CF12CE12CCC24CA9493E0CE
:100A2000D92E0E94CF008C159D050CF46C01E816A0
:100A3000F9060CF47C01C2010197F1F781E0A81AD4
:100A4000B10879F75701AC18BD0883E592E00E9420
:100A50006402C8010E947F028FE592E00E94640256
:100A6000C5010E947F0284EF91E00E946402C601EA
:100A70000E947F028CEF91E00E946402C7010E94F5
:100A80007F0284E092E00E94710268EC70E080E0F6
:100A900090E00E942401055F1F4F8CE2880E911C9C
:100AA000073E110509F088CF8FE692E05FCFEDE9B0
:100AB000F2E01382128288EE93E0A0E0B0E084833B
:100AC0009583A683B78384E091E09183808385EC4E
:100AD00090E09587848784EC90E09787868780EC08
:100AE00090E0918B808B81EC90E0938B828B82ECF9
:100AF00090E0958B848B86EC90E0978B868B118EA3
:100B0000128E138E148E0895A1E21A2EAA1BBB1BFF
:100B1000FD010DC0AA1FBB1FEE1FFF1FA217B307C9
:100B2000E407F50720F0A21BB30BE40BF50B661FDF
:100B3000771F881F991F1A9469F7609570958095A3
:100B400090959B01AC01BD01CF010895EE0FFF1FF1
:0C0B50000590F491E02D0994F894FFCF7B
:100B5C0000000000F701570184014402B501930124
:100B6C00A7010D0A003D3D3D3D3D3D3D3D3D3D3D1B
:100B7C003D3D3D3D3D3D3D3D3D3D3D3D3D3D3D3D99
:100B8C003D3D3D3D3D3D3D3D3D3D3D3D3D3D3D3D89
:100B9C003D3D3D3D3D3D3D00202054415020434FC7
:100BAC00484552454E434520434F52452028443535
:100BBC00202D3E20413129202D20434F4E54494EAB
:100BCC00554F55532048554D20200020205265612B
:100BDC0064792E2053656E642027312720666F724E
:100BEC002054322053776565702C202732272066DD
:100BFC006F722050686173652053776565702E00A5
:100C0C000A2D2D2D20535441525420543220434F41
:100C1C00484552454E43452044454341592053577E
:100C2C00454550202D2D2D00446563617944656C3C
:100C3C0061793A006D73207C20416D706C6974751C
:100C4C0064653A00205B4D696E3A20002C204D61A2
:100C5C00783A20005D002D2D2D20454E4420543235
:100C6C0020434F484552454E434520444543415946
:100C7C00205357454550202D2D2D000A2D2D2D206C
:100C8C00535441525420504841534520494E5445E9
:100C9C0052464552454E4345205357454550202D0D
:100CAC002D2D00506861736544656C61793A00754F
:100CBC0073207C20416D706C69747564653A002DED
:100CCC002D2D20454E4420504841534520494E542B
:100CDC004552464552454E434520535745455020B5
:040CEC002D2D2D007D
:00000001FF
