:100000000C945D000C9485000C9485000C94850084
:100010000C9485000C9485000C9485000C9485004C
:100020000C9485000C9485000C9485000C9485003C
:100030000C9485000C9485000C9485000C9485002C
:100040000C9453030C9485000C94C3030C949D03EF
:100050000C9485000C9485000C9485000C9485000C
:100060000C9485000C94850000000008000201003B
:100070000003040700000000000000000000000072
:10008000250028002B0000000000240027002A0083
:10009000040404040404040402020202020203032E
:1000A0000303030301020408102040800102040836
:1000B0001020010204081020850511241FBECFEF77
:1000C000D8E0DEBFCDBF13E0A0E0B1E0E8EBFBE09D
:1000D00002C005900D92A034B107D9F723E0A0E447
:1000E000B3E001C01D92A63EB207E1F710E0CDE5F6
:1000F000D0E004C02197FE010E94D405CC35D10781
:10010000C9F70E94F5030C94DA050C94000090E006
:10011000FC01EC55FF4F249180579F4FFC018491C7
:10012000882399F090E0880F991FFC01EA57FF4F50
:10013000A591B491FC01E458FF4F859194918FB73C
:10014000F894EC91E22BEC938FBF089580E48093B8
:100150007C0080917A00806480937A0080917A009C
:1001600086FDFCCF8091780090917900089590E011
:10017000FC01E859FF4F2491FC01EC55FF4F3491ED
:10018000FC01E057FF4FE491EE23C9F0222339F040
:10019000233001F1A8F4213019F1223029F1F0E0E7
:1001A000EE0FFF1FE458FF4FA591B4918FB7F8945D
:1001B000EC91611126C030953E233C938FBF08958A
:1001C0002730A9F02830C9F0243049F78091800009
:1001D0008F7D03C0809180008F7780938000DFCF78
:1001E00084B58F7784BDDBCF84B58F7DFBCF8091C5
:1001F000B0008F778093B000D2CF8091B0008F7D18
:10020000F9CF3E2BDACF3FB7F89480914503909118
:100210004603A0914703B091480326B5A89B05C0AB
:100220002F3F19F00196A11DB11D3FBFBA2FA92F75
:10023000982F8827BC01CD01620F711D811D911D72
:1002400042E0660F771F881F991F4A95D1F70895DE
:100250008F929F92AF92BF92CF92DF92EF92FF92D6
:100260006B017C010E9403014B015C01C114D104AC
:10027000E104F104B9F00E940301681979098A09BF
:100280009B09683E73408105910580F321E0C21A05
:10029000D108E108F10888EE880E83E0981EA11CC1
:1002A000B11CE4CFFF90EF90DF90CF90BF90AF9064
:1002B0009F908F900895AF92BF92CF92DF92EF926E
:1002C000FF920F931F93CF93DF936C017B018B0100
:1002D000040F151FEB015E01AE18BF08C017D10750
:1002E00059F06991D601ED91FC910190F081E02DDA
:1002F000C6010995892B79F7C501DF91CF911F912F
:100300000F91FF90EF90DF90CF90BF90AF90089546
:10031000FC01538D448D252F30E0842F90E0821B0B
:10032000930B541710F0CF96089501970895FC0190
:10033000918D828D981761F0A28DAE0FBF2FB11DE8
:100340005D968C91928D9F5F9F73928F90E0089540
:100350008FEF9FEF0895FC01918D828D981731F0FA
:10036000828DE80FF11D858D90E008958FEF9FEF4E
:100370000895FC01918D228D892F90E0805C9F4F24
:10038000821B91098F739927089589E493E00E9455
:10039000B90121E0892B09F420E0822F089580E043
:1003A00090E0892B29F00E94C50181110C94000076
:1003B0000895FC01A48DA80FB92FB11DA35ABF4FFA
:1003C0002C91848D90E001968F739927848FA68954
:1003D000B7892C93A089B1898C91837080648C93A8
:1003E000938D848D981306C00288F389E02D808157
:1003F0008F7D80830895EF92FF920F931F93CF9389
:10040000DF93EC0181E0888F9B8D8C8D98131AC04F
:10041000E889F989808185FF15C09FB7F894EE8936
:10042000FF896083E889F989808183708064808393
:100430009FBF81E090E0DF91CF911F910F91FF90DE
:10044000EF900895F62E0B8D10E00F5F1F4F0F7386
:100450001127E02E8C8D8E110CC00FB607FCFACF41
:10046000E889F989808185FFF5CFCE010E94D90105
:10047000F1CFEB8DEC0FFD2FF11DE35AFF4FF08212
:100480009FB7F8940B8FEA89FB8980818062CFCF78
:10049000CF93DF93EC01888D8823B9F0AA89BB89BB
:1004A000E889F9898C9185FD03C0808186FD0DC0A6
:1004B0000FB607FCF7CF8C9185FFF2CF808185FFC7
:1004C000EDCFCE010E94D901E9CFDF91CF91089500
:1004D000CF92DF92EF92FF920F931F93CF93DF9310
:1004E00084E6E82EF12C10E000E0CFEFD3E09FE0AF
:1004F000C92ED12C0E94A6008C179D070CF4EC018C
:10050000081719070CF48C01C6010197F1F781E077
:10051000E81AF10879F7C8018C1B9D0BDF91CF9188
:100520001F910F91FF90EF90DF90CF900895EF9281
:10053000FF920F931F93CF93DF937C01D0E0C0E035
:1005400007EB11E061E089E00E94B700C801019764
:10055000F1F760E089E00E94B700C8010197F1F768
:100560002196EC16FD0671F7DF91CF911F910F9147
:10057000FF90EF900895FC0101900020E9F731977A
:10058000AF01481B590BBC0189E493E00C945B015B
:10059000CF93DF930E94BB02EC0182E191E00E94C5
:1005A000BB028C0F9D1FDF91CF9108958F929F9278
:1005B000AF92BF92CF92DF92EF92FF920F931F9371
:1005C000CF93DF93CDB7DEB7A1970FB6F894DEBF18
:1005D0000FBECDBF6C01990FEE08FF08F7FE41C0BA
:1005E0006DE289E493E00E94FB018C01222733270E
:1005F000A9012C193D094E095F0919A2CE01819666
:100600007C019AE0892E912CA12CB12CCA01B90150
:10061000A50194010E94B205605DF70162937F011C
:10062000211531054105510589F790E080E03097AB
:1006300019F0CF010E94BB02800F911FA1960FB647
:10064000F894DEBF0FBECDBFDF91CF911F910F9108
:10065000FF90EF90DF90CF90BF90AF909F908F90E2
:100660000895A701960119A28E010F5D1F4F8AE020
:10067000C82ED12CE12CF12CCA01B901A701960199
:100680000E94B205605DF80162938F01211531056A
:100690004105510589F790E080E0309779F2CF016C
:1006A0000E94BB02CBCF1F920F920FB60F92112464
:1006B0002F933F938F939F93AF93BF938091410369
:1006C00090914203A0914303B091440330914003C1
:1006D00023E0230F2D3758F50196A11DB11D20935E
:1006E00040038093410390934203A0934303B0934C
:1006F00044038091450390914603A0914703B09134
:1007000048030196A11DB11D8093450390934603B4
:10071000A0934703B0934803BF91AF919F918F91EE
:100720003F912F910F900FBE0F901F90189526E8C4
:10073000230F0296A11DB11DD2CF1F920F920FB6AB
:100740000F9211242F933F934F935F936F937F9357
:100750008F939F93AF93BF93EF93FF9389E493E0BD
:100760000E94D901FF91EF91BF91AF919F918F911D
:100770007F916F915F914F913F912F910F900FBE9D
:100780000F901F9018951F920F920FB60F92112481
:100790002F938F939F93EF93FF93E0915903F091E1
:1007A0005A038081E0915F03F091600382FD1BC0DA
:1007B0009081809162038F5F8F7320916303821712
:1007C00041F0E0916203F0E0E75BFC4F958F80938E
:1007D0006203FF91EF919F918F912F910F900FBE28
:1007E0000F901F9018958081F4CF789484B5826023
:1007F00084BD84B5816084BD85B5826085BD85B5C5
:10080000816085BD80916E00816080936E00109242
:1008100081008091810082608093810080918100BD
:10082000816080938100809180008160809380004E
:100830008091B10084608093B1008091B0008160AC
:100840008093B00080917A00846080937A008091D8
:100850007A00826080937A0080917A008160809330
:100860007A0080917A00806880937A001092C100AB
:10087000E0915903F0915A0382E08083E09155039F
:10088000F09156031082E0915703F091580380E1F4
:10089000808310926103E0915D03F0915E0386E036
:1008A0008083E0915B03F0915C03808180618083B1
:1008B000E0915B03F0915C03808188608083E0912C
:1008C0005B03F0915C03808180688083E0915B032F
:1008D000F0915C0380818F7D808389E00E94870096
:1008E0008DE00E94870085E191E00E94C80288E4C3
:1008F00091E00E94C8028BE791E00E94C80285E166
:1009000091E00E94C8020FE010E030E0A32E30E03A
:10091000B32E89E493E00E94B901181619060CF071
:1009200041C089E493E00E949701813309F09DC0A2
:1009300082EC91E00E94C802C12CD12C760182E3A6
:1009400090E00E949702C701B6010E9428010E9410
:100950006802EC018AEE91E00E94BB02C6010E948F
:10096000D60286EF91E00E94BB02CE010E94D60221
:1009700082E191E00E94BB0264E670E080E090E0DA
:100980000E9428018AE0C80ED11CE11CF11C86E3FC
:10099000C81681E0D806E104F10489F686E092E009
:1009A0000E94C80282E390E00E94970284E6C82E6B
:1009B000D12CD0E0C0E0EE24EA9493E0F92E0E941E
:1009C000A6008E159F050CF47C01C817D9070CF4FE
:1009D000EC01C8010197F1F781E0C81AD10879F755
:1009E0006E01CE18DF0861E08DE00E94B70062E37F
:1009F00070E080E090E00E94280160E08DE00E94BD
:100A0000B7008DEB92E00E94BB02C6010E94D602A5
:100A10008FEC92E00E94BB02C7010E94D60287EDD4
:100A200092E00E94BB02CE010E94D6028FED92E0BE
:100A30000E94BB0285E6C816D1040CF45CC08BEEA4
:100A400092E00E94C80268EE73E080E090E00E94AD
:100A50002801A114B10409F45CCF0E94C5018823C8
:100A600009F457CF0E94000054CF823309F03DC0F3
:100A70008BE292E00E94C8022BEFE22EFF24FA9450
:100A8000D0E0C0E089E190E00E949702C230D10539
:100A90001CF0C7010197F1F789E190E00E949702ED
:100AA0000E9468026C0183E592E00E94BB02CE01C5
:100AB0000E94D6028FE592E00E94BB02C6010E940E
:100AC000D60282E191E00E94BB0264E670E080E021
:100AD00090E00E9428012B968CE2E80EF11CC73EA4
:100AE000D10581F68FE692E05BCF803309F05ACFD3
:100AF00084E992E055CF8FE1C816D1041CF080E064
:100B000093E09FCF84E293E09CCFE9E4F3E013828B
:100B1000128288EE93E0A0E0B0E084839583A68300
:100B2000B78384E091E09183808385EC90E09587A2
:100B3000848784EC90E09787868780EC90E0918BA7
:100B4000808B81EC90E0938B828B82EC90E0958B94
:100B5000848B86EC90E0978B868B118E128E138E91
:100B6000148E0895A1E21A2EAA1BBB1BFD010DC015
:100B7000AA1FBB1FEE1FFF1FA217B307E407F5074D
:100B800020F0A21BB30BE40BF50B661F771F881F29
:100B9000991F1A9469F760957095809590959B01BF
:100BA000AC01BD01CF010895EE0FFF1F0590F49138
:080BB000E02D0994F894FFCF39
:100BB80000000000FB015B0188014802B9019701B0
:100BC800AB010D0A003D3D3D3D3D3D3D3D3D3D3DBB
:100BD8003D3D3D3D3D3D3D3D3D3D3D3D3D3D3D3D3D
:100BE8003D3D3D3D3D3D3D3D3D3D3D3D3D3D3D3D2D
:100BF8003D3D3D3D3D3D3D002020544150204D416F
:100C080043524F53434F5049432051554249542072
:100C1800445249564552202620444941474E4F5395
:100C280054494320434F52452020002020526561FB
:100C380064792E2053656E642027302720666F72F2
:100C480020426173656C696E652C20273127206608
:100C58006F722054322053776565702C2027322715
:100C680020666F72205068617365205377656570E0
:100C78002E000A2D2D2D2053544152542054322039
:100C8800434F484552454E4345204445434159202A
:100C98005357454550202D2D2D00446563617944F7
:100CA800656C61793A006D73207C20416D706C69C8
:100CB800747564653A002D2D2D20454E442054321C
:100CC80020434F484552454E4345204445434159EA
:100CD800205357454550202D2D2D000A2D2D2D2010
:100CE800535441525420504841534520494E54458D
:100CF80052464552454E4345205357454550202DB1
:100D08002D2D00506861736544656C61793A0075F2
:100D180073207C20416D706C69747564653A002D90
:100D28002D2D20454E4420504841534520494E54CE
:100D38004552464552454E43452053574545502058
:100D48002D2D2D000A2D2D2D20535749544348454C
:100D58004420544F20434F4E54494E554F5553202D
:100D6800424153454C494E45202D2D2D0051756269
:100D7800697420416D706C69747564653A2000204F
:100D88005B4D696E3A20002C204D61783A20005D59
:100D9800207C2053746174653A20007C313E202801
:100DA800436F686572656E742053746174652900B9
:100DB800287C303E202B207C313E292F73717274A1
:100DC80028322920285375706572706F73697469A9
:100DD8006F6E29007C303E20284465636F68657219
:100DE8006564202F204162736F7262656429000078
:00000001FF
