:100000000C945D000C9485000C9485000C94850084
:100010000C9485000C9485000C9485000C9485004C
:100020000C9485000C9485000C9485000C9485003C
:100030000C9485000C9485000C9485000C9485002C
:100040000C947F040C9485000C94EF040C94C90468
:100050000C9485000C9485000C9485000C9485000C
:100060000C9485000C9485000000000024002700FB
:100070002A0000000000250028002B0004040404CE
:100080000404040402020202020203030303030342
:10009000010204081020408001020408102001021F
:1000A00004081020000000080002010000030407FB
:1000B0000000000000000000550611241FBECFEF15
:1000C000D8E0DEBFCDBF12E0A0E0B1E0E0E4FFE0A9
:1000D00002C005900D92A43FB107D9F723E0A4EF29
:1000E000B2E001C01D92AB39B207E1F710E0CDE5F7
:1000F000D0E004C02197FE010E949807CC35D107BB
:10010000C9F70E9421050C949E070C94000080E41E
:1001100080937C0080917A00806480937A00809143
:100120007A0086FDFCCF8091780090917900089547
:1001300090E0FC01EC55FF4F2491FC01E057FF4F8C
:100140003491FC01E458FF4FE491EE23C9F02223DF
:1001500039F0233001F1A8F4213019F1223029F1CE
:10016000F0E0EE0FFF1FEE58FF4FA591B4918FB74F
:10017000F894EC91611126C030953E233C938FBFDB
:1001800008952730A9F02830C9F0243049F780912C
:1001900080008F7D03C0809180008F7780938000E6
:1001A000DFCF84B58F7784BDDBCF84B58F7DFBCF68
:1001B0008091B0008F778093B000D2CF8091B00053
:1001C0008F7DF9CF3E2BDACFCF93DF9390E0FC0108
:1001D000E057FF4F249184589F4FFC01849188235E
:1001E000D1F090E0880F991FFC01E859FF4FA591CD
:1001F000B491FC01EE58FF4FC591D491623071F477
:100200009FB7F8943C91822F809583238C93E8814B
:100210002E2B28839FBFDF91CF9108958FB7F8943D
:10022000EC912E2B2C938FBFF6CF8230910538F0B6
:10023000880F991F880F991F05970197F1F7089567
:100240003FB7F8948091FA029091FB02A091FC02D2
:10025000B091FD0226B5A89B05C02F3F19F001966D
:10026000A11DB11D3FBFBA2FA92F982F8827BC0110
:10027000CD01620F711D811D911D42E0660F771F38
:10028000881F991F4A95D1F708958F929F92AF9238
:10029000BF92CF92DF92EF92FF926B017C010E949E
:1002A00020014B015C01C114D104E104F104B9F057
:1002B0000E942001681979098A099B09683E7340E8
:1002C0008105910580F321E0C21AD108E108F10807
:1002D00088EE880E83E0981EA11CB11CE4CFFF902D
:1002E000EF90DF90CF90BF90AF909F908F90089548
:1002F000AF92BF92CF92DF92EF92FF920F931F9334
:10030000CF93DF936C017B018B01040F151FEB0171
:100310005E01AE18BF08C017D10759F06991D60128
:10032000ED91FC910190F081E02DC6010995892B9A
:1003300079F7C501DF91CF911F910F91FF90EF9059
:10034000DF90CF90BF90AF900895FC01538D448D06
:10035000252F30E0842F90E0821B930B541710F070
:10036000CF96089501970895FC01918D828D98177D
:1003700061F0A28DAE0FBF2FB11D5D968C91928D55
:100380009F5F9F73928F90E008958FEF9FEF089586
:10039000FC01918D828D981731F0828DE80FF11D4F
:1003A000858D90E008958FEF9FEF0895FC01918D6A
:1003B000228D892F90E0805C9F4F821B91098F7363
:1003C000992708958EEF92E00E94D60121E0892BB3
:1003D00009F420E0822F089580E090E0892B29F035
:1003E0000E94E20181110C9400000895FC01A48D8B
:1003F000A80FB92FB11DA35ABF4F2C91848D90E047
:1004000001968F739927848FA689B7892C93A08929
:10041000B1898C91837080648C93938D848D9813B3
:1004200006C00288F389E02D80818F7D8083089546
:10043000EF92FF920F931F93CF93DF93EC0181E034
:10044000888F9B8D8C8D98131AC0E889F9898081DB
:1004500085FF15C09FB7F894EE89FF896083E8890E
:10046000F98980818370806480839FBF81E090E000
:10047000DF91CF911F910F91FF90EF900895F62E8D
:100480000B8D10E00F5F1F4F0F731127E02E8C8D27
:100490008E110CC00FB607FCFACFE889F98980816C
:1004A00085FFF5CFCE010E94F601F1CFEB8DEC0F69
:1004B000FD2FF11DE35AFF4FF0829FB7F8940B8F89
:1004C000EA89FB8980818062CFCFCF93DF93EC01F3
:1004D000888D8823B9F0AA89BB89E889F9898C912C
:1004E00085FD03C0808186FD0DC00FB607FCF7CFE8
:1004F0008C9185FFF2CF808185FFEDCFCE010E94E8
:10050000F601E9CFDF91CF910895FC010190002021
:10051000E9F73197AF01481B590BBC018EEF92E010
:100520000C947801CF93DF930E948502EC0182E165
:1005300091E00E9485028C0F9D1FDF91CF9108955D
:100540008F929F92AF92BF92CF92DF92EF92FF92E3
:100550000F931F93CF93DF93CDB7DEB7A1970FB65D
:10056000F894DEBF0FBECDBF6C01990FEE08FF08F7
:10057000F7FE41C06DE28EEF92E00E9418028C01FE
:1005800022273327A9012C193D094E095F0919A219
:10059000CE0181967C019AE0892E912CA12CB12C60
:1005A000CA01B901A50194010E947607605DF701B7
:1005B00062937F01211531054105510589F790E0CE
:1005C00080E0309719F0CF010E948502800F911FC3
:1005D000A1960FB6F894DEBF0FBECDBFDF91CF91CD
:1005E0001F910F91FF90EF90DF90CF90BF90AF9051
:1005F0009F908F900895A701960119A28E010F5D1B
:100600001F4F8AE0C82ED12CE12CF12CCA01B90170
:10061000A70196010E947607605DF80162938F0141
:10062000211531054105510589F790E080E03097AB
:1006300079F2CF010E948502CBCF2F923F924F9249
:100640005F926F927F928F929F92AF92BF92CF9262
:10065000DF92EF92FF920F931F93CF93DF93EC0102
:1006600085E191E00E948502CE010E94A00283E410
:1006700091E00E949202812C912C54014FE4242E8F
:10068000332433945FE1452E52E0552E340102E3CA
:1006900010E0C130D10509F093C061E089E00E940B
:1006A000980060E088E00E949800C1010197F1F78E
:1006B00060E089E00E94980061E088E00E94980074
:1006C000C2010197F1F70150110939F760E089E0A3
:1006D0000E94980060E088E00E949800C501B40183
:1006E0000E94450184E6C82ED12C10E000E0EE24E3
:1006F000EA9493E0F92E0E9487008E159F050CF472
:100700007C01081719070CF48C018FE090E0019729
:10071000F1F781E0C81AD10871F76801CE18DF0837
:1007200089E491E00E948502C3010E94A00285E550
:1007300091E00E948502C6010E94A00285E691E038
:100740000E948502C7010E94A0028DE691E00E94EE
:100750008502C8010E94A00285E791E00E949202F2
:1007600068EC70E080E090E00E9445018AE0880E2D
:10077000911CA11CB11C86E3881681E09806A10497
:10078000B10409F083CF87E791E00E948502CE0192
:100790000E94A00283E491E0DF91CF911F910F911D
:1007A000FF90EF90DF90CF90BF90AF909F908F9091
:1007B0007F906F905F904F903F902F900C9492029B
:1007C000C230D105E1F461E089E00E94980060E068
:1007D00088E00E94980087ED90E00197F1F760E0D3
:1007E00089E00E94980061E088E00E94980087E913
:1007F00092E00197F1F70150110929F767CFC12C59
:10080000D12C2EE5E22E23E4F22EC330D10509F0DF
:100810003EC0C12CD12C3EEDE32E32E4F32E61E03C
:1008200089E00E94980060E088E00E94980021E83A
:1008300035E943E45FE3C701B6010E94E1060E9487
:100840008206CB010E94150160E089E00E949800B9
:1008500061E088E00E9498002FE335E34EE95FE312
:10086000C701B6010E94E1060E948206CB010E94E8
:10087000150125E83BEE41E85FE3C701B6010E94A0
:10088000E1066B017C010150110949F61FCF61E0BF
:1008900089E00E94980060E088E00E9498002CEFB8
:1008A00039EA41E75EE3C701B6010E94E1060E9412
:1008B0008206CB010E94150160E089E00E94980049
:1008C00061E088E00E94980021E835E943E45FE3B5
:1008D000C701B6010E94E1060E948206CB010E9478
:1008E000150125E83BEE41E85FE3C701B6010E9430
:1008F000E1066B017C010150110949F6E7CE1F9218
:100900000F920FB60F9211242F933F938F939F93C3
:10091000AF93BF938091F6029091F702A091F802F5
:10092000B091F9023091F50223E0230F2D3758F5ED
:100930000196A11DB11D2093F5028093F6029093BC
:10094000F702A093F802B093F9028091FA02909115
:10095000FB02A091FC02B091FD020196A11DB11D08
:100960008093FA029093FB02A093FC02B093FD02E5
:10097000BF91AF919F918F913F912F910F900FBE9B
:100980000F901F90189526E8230F0296A11DB11D08
:10099000D2CF1F920F920FB60F9211242F933F9335
:1009A0004F935F936F937F938F939F93AF93BF9377
:1009B000EF93FF938EEF92E00E94F601FF91EF918B
:1009C000BF91AF919F918F917F916F915F914F9167
:1009D0003F912F910F900FBE0F901F9018951F926F
:1009E0000F920FB60F9211242F938F939F93EF9333
:1009F000FF93E0910E03F0910F038081E0911403C7
:100A0000F091150382FD1BC09081809117038F5FC9
:100A10008F7320911803821741F0E0911703F0E0E3
:100A2000E250FD4F958F80931703FF91EF919F91B7
:100A30008F912F910F900FBE0F901F90189580816E
:100A4000F4CF789484B5826084BD84B5816084BD20
:100A500085B5826085BD85B5816085BD80916E005C
:100A6000816080936E00109281008091810082608D
:100A700080938100809181008160809381008091CA
:100A800080008160809380008091B10084608093B9
:100A9000B1008091B00081608093B00080917A00B5
:100AA000846080937A0080917A00826080937A00DB
:100AB00080917A00816080937A0080917A008068CA
:100AC00080937A001092C100E0910E03F0910F0321
:100AD00082E08083E0910A03F0910B031082E091A1
:100AE0000C03F0910D0380E1808310921603E091D6
:100AF0001203F091130386E08083E0911003F091DC
:100B00001103808180618083E0911003F0911103D3
:100B1000808188608083E0911003F09111038081CF
:100B200080688083E0911003F091110380818F7DB4
:100B3000808361E089E00E94E40061E088E00E9437
:100B4000E40061E08DE00E94E40062E08EE00E943B
:100B5000E40060E089E00E94980060E088E00E9484
:100B6000980082EA91E00E94920285ED91E00E9455
:100B7000920288E092E00E9492028AE392E00E9450
:100B8000920282EA91E00E949202992493949FE05B
:100B9000C92ED12C20E0E22E20E0F22E8EEF92E042
:100BA0000E94D601181619065CF48EEF92E00E949E
:100BB000B401813309F04FC081E090E00E941D0331
:100BC0008091F402882309F467C084E6A82EB12C32
:100BD000D0E0C0E00FEF13E00E948700801791077C
:100BE0000CF48C01C817D9070CF4EC01C60101976D
:100BF000F1F781E0A81AB10879F75E01A01AB10AED
:100C00008AED92E00E948502C5010E94A00285E65D
:100C100091E00E948502C8010E94A0028DE691E049
:100C20000E948502CE010E94A00285E791E00E9409
:100C3000920268EC70E080E090E00E944501E114CF
:100C4000F10409F4ABCF0E94E201882309F4A6CF96
:100C50000E940000A3CF823319F482E090E0AECF6F
:100C6000833319F483E090E0A9CF843319F484E04E
:100C700090E0A4CF803309F0A3CF8091F4028925BE
:100C80008093F402882329F089E892E00E9492027E
:100C900097CF8FEA92E0FACF60E089E00E94980057
:100CA00060E088E00E949800CACFEEEFF2E0138285
:100CB000128288EE93E0A0E0B0E084839583A6835F
:100CC000B78384E091E09183808385EC90E0958701
:100CD000848784EC90E09787868780EC90E0918B06
:100CE000808B81EC90E0938B828B82EC90E0958BF3
:100CF000848B86EC90E0978B868B118E128E138EF0
:100D0000148E08950E9489066894B1110C94DB0634
:100D100008950E94C00688F09F5798F0B92F992730
:100D2000B751B0F0E1F0660F771F881F991F1AF0D6
:100D3000BA95C9F714C0B13091F00E94DA06B1E05B
:100D400008950C94DA06672F782F8827B85F39F05A
:100D5000B93FCCF3869577956795B395D9F73EF46F
:100D600090958095709561957F4F8F4F9F4F089517
:100D700057FD9058440F551F59F05F3F71F047954C
:100D8000880F97FB991F61F09F3F79F08795089531
:100D9000121613061406551FF2CF4695F1DF08C050
:100DA000161617061806991FF1CF8695710561056D
:100DB00008940895E894BB2766277727CB0197F915
:100DC00008950E94F4060C9465070E94570738F0B6
:100DD0000E945E0720F0952311F00C944E070C94AE
:100DE000540711240C94DB060E94B80670F3959FFB
:100DF000C1F3950F50E0551F629FF001729FBB2712
:100E0000F00DB11D639FAA27F00DB11DAA1F649FAD
:100E10006627B00DA11D661F829F2227B00DA11D60
:100E2000621F739FB00DA11D621F839FA00D611DE6
:100E3000221F749F3327A00D611D231F849F600D07
:100E4000211D822F762F6A2F11249F5750409AF030
:100E5000F1F088234AF0EE0FFF1FBB1F661F771FBC
:100E6000881F91505040A9F79E3F510580F00C9487
:100E70004E070C94DB065F3FE4F3983ED4F386956F
:100E800077956795B795F795E7959F5FC1F7FE2B27
:100E9000880F911D9695879597F9089597F99F6703
:100EA00080E870E060E008959FEF80EC08950024F2
:100EB0000A941616170618060906089500240A94BF
:100EC00012161306140605060895092E0394000C45
:100ED00011F4882352F0BB0F40F4BF2B11F460FFD4
:100EE00004C06F5F7F4F8F4F9F4F0895A1E21A2E6E
:100EF000AA1BBB1BFD010DC0AA1FBB1FEE1FFF1FBE
:100F0000A217B307E407F50720F0A21BB30BE40B0D
:100F1000F50B661F771F881F991F1A9469F7609554
:100F20007095809590959B01AC01BD01CF0108950E
:100F3000EE0FFF1F0590F491E02D0994F894FFCF78
:100F40000000000018027801A5016502D601B40175
:100F5000C8010D0A000A2D2D2D2053544152542052
:100F6000543220434F484552454E43452044454363
:100F7000415920535745455020284D4554484F442A
:100F80003A200029202D2D2D0044656361794465A8
:100F90006C61793A006D73207C20416D706C6974CE
:100FA0007564653A00205B4D696E3A20002C204D37
:100FB00061783A20005D002D2D2D20454E442054AF
:100FC0003220434F484552454E4345204445434116
:100FD0005920535745455020284D4554484F443AD1
:100FE00020003D3D3D3D3D3D3D3D3D3D3D3D3D3D8B
:100FF0003D3D3D3D3D3D3D3D3D3D3D3D3D3D3D3D21
:101000003D3D3D3D3D3D3D3D3D3D3D3D3D3D3D3D10
:101010003D3D3D3D00202054415020325332502070
:1010200031305620444946464552454E5449414C7C
:1010300020434F5245202844392F4438202D3E204C
:1010400041302920202020002020494E5445524E76
:10105000414C2050554C4C2D55502041435449563D
:101060004520284E4F20464C4F4154494E4720487A
:10107000554D29202020202020002020436F6D6D19
:10108000616E64733A202731272D3E476F6C64658B
:101090006E2C202732272D3E333A312C2027332740
:1010A0002D3E43686972702C202734272D3E4675EB
:1010B0007365642C202730272D3E546F67676C655D
:1010C000204D6F6E69746F72000AF09F93A12053D8
:1010D000494C454E54205245414C2D54494D4520D4
:1010E0004D4F4E49544F5220414354495645000AF2
:1010F000F09F94872053494C454E54205245414C13
:101100002D54494D45204D4F4E49544F5220444592
:10111000414354495641544544005278204D6F6E26
:1011200069746F72207C20416D706C6974756465A0
:041130003A20000061
:00000001FF
