:100000000C945D000C9485000C9485000C94850084
:100010000C9485000C9485000C9485000C9485004C
:100020000C9485000C9485000C9485000C9485003C
:100030000C9485000C9485000C9485000C9485002C
:100040000C94CB020C9485000C943B030C94150388
:100050000C9485000C9485000C9485000C9485000C
:100060000C9485000C94850000000008000201003B
:100070000003040700000000000000000000000072
:10008000250028002B0000000000240027002A0083
:10009000040404040404040402020202020203032E
:1000A0000303030301020408102040800102040836
:1000B0001020010204081020430411241FBECFEFBA
:1000C000D8E0DEBFCDBF11E0A0E0B1E0EEEAF9E09C
:1000D00002C005900D92A23CB107D9F722E0A2EC34
:1000E000B1E001C01D92A836B207E1F710E0CDE5FE
:1000F000D0E004C02197FE010E94CF04CC35D10787
:10010000C9F70E946D030C94D5040C94000090E094
:10011000FC01EC55FF4F249180579F4FFC018491C7
:10012000882399F090E0880F991FFC01EA57FF4F50
:10013000A591B491FC01E458FF4F859194918FB73C
:10014000F894EC91E22BEC938FBF089590E0FC01C2
:10015000E859FF4F2491FC01EC55FF4F3491FC010D
:10016000E057FF4FE491EE23C9F0222339F023300A
:1001700001F1A8F4213019F1223029F1F0E0EE0F5D
:10018000FF1FE458FF4FA591B4918FB7F894EC91FD
:10019000611126C030953E233C938FBF08952730D0
:1001A000A9F02830C9F0243049F7809180008F7D74
:1001B00003C0809180008F7780938000DFCF84B56B
:1001C0008F7784BDDBCF84B58F7DFBCF8091B0006E
:1001D0008F778093B000D2CF8091B0008F7DF9CF20
:1001E0003E2BDACF3FB7F8948091C7019091C801B8
:1001F000A091C901B091CA0126B5A89B05C02F3FA7
:1002000019F00196A11DB11D3FBFBA2FA92F982F3C
:100210008827BC01CD01620F711D811D911D42E037
:10022000660F771F881F991F4A95D1F708958F92FF
:100230009F92AF92BF92CF92DF92EF92FF920E9475
:10024000F2004B015C0184E6C82ED12CE12CF12C8C
:100250000E94F200681979098A099B09683E734077
:1002600081059105A8F321E0C21AD108E108F1083F
:1002700088EE880E83E0981EA11CB11CC114D10425
:10028000E104F10429F7FF90EF90DF90CF90BF9049
:10029000AF909F908F900895AF92BF92CF92DF92D0
:1002A000EF92FF920F931F93CF93DF936C017B012B
:1002B0008B01040F151FEB015E01AE18BF08C017BC
:1002C000D10759F06991D601ED91FC910190F0812F
:1002D000E02DC6010995892B79F7C501DF91CF91F2
:1002E0001F910F91FF90EF90DF90CF90BF90AF9054
:1002F0000895FC01538D448D252F30E0842F90E02C
:10030000821B930B541710F0CF9608950197089510
:10031000FC01918D828D981761F0A28DAE0FBF2FD9
:10032000B11D5D968C91928D9F5F9F73928F90E02F
:1003300008958FEF9FEF0895FC01918D828D98179E
:1003400031F0828DE80FF11D858D90E008958FEFDB
:100350009FEF0895FC01918D228D892F90E0805CA4
:100360009F4F821B91098F73992708958BEC91E021
:100370000E94AA0121E0892B09F420E0822F089530
:1003800080E090E0892B29F00E94B60181110C9445
:1003900000000895FC01A48DA80FB92FB11DA35A28
:1003A000BF4F2C91848D90E001968F739927848F95
:1003B000A689B7892C93A089B1898C9183708064B8
:1003C0008C93938D848D981306C00288F389E02D59
:1003D00080818F7D80830895EF92FF920F931F930A
:1003E000CF93DF93EC0181E0888F9B8D8C8D9813E8
:1003F0001AC0E889F989808185FF15C09FB7F894F4
:10040000EE89FF896083E889F9898081837080643F
:1004100080839FBF81E090E0DF91CF911F910F918A
:10042000FF90EF900895F62E0B8D10E00F5F1F4F99
:100430000F731127E02E8C8D8E110CC00FB607FCA8
:10044000FACFE889F989808185FFF5CFCE010E9436
:10045000CA01F1CFEB8DEC0FFD2FF11DE35AFF4FD9
:10046000F0829FB7F8940B8FEA89FB8980818062C4
:10047000CFCFCF93DF93EC01888D8823B9F0AA8981
:10048000BB89E889F9898C9185FD03C0808186FD4F
:100490000DC00FB607FCF7CF8C9185FFF2CF80819E
:1004A00085FFEDCFCE010E94CA01E9CFDF91CF9148
:1004B00008958F929F92AF92BF92CF92DF92EF9268
:1004C000FF92CF93DF93EC019C01DB010E948F042C
:1004D00028EE33E040E050E00E94700449015A01E8
:1004E0009E01DD0F440B550B60E271EA87E090E05E
:1004F0000E947004220F331F220F331FE90125973A
:10050000C12CD12C760161E089E00E94A60060E058
:1005100088E00E94A600CE010197F1F760E089E033
:100520000E94A60061E088E00E94A600CE0101972B
:10053000F1F78FEFC81AD80AE80AF80A8C149D045C
:10054000AE04BF0401F7DF91CF91FF90EF90DF90F1
:10055000CF90BF90AF909F908F900895CF93DF93EF
:10056000FC0101900020E9F73197AF01481B590BBE
:10057000BC018BEC91E00E944C01EC0142E050E0A8
:1005800062E171E08BEC91E00E944C018C0F9D1FA9
:10059000DF91CF9108951F920F920FB60F92112401
:1005A0002F933F938F939F93AF93BF938091C301FA
:1005B0009091C401A091C501B091C6013091C201D2
:1005C00023E0230F2D3758F50196A11DB11D20936F
:1005D000C2018093C3019093C401A093C501B0935D
:1005E000C6018091C7019091C801A091C901B09145
:1005F000CA010196A11DB11D8093C7019093C80146
:10060000A093C901B093CA01BF91AF919F918F91FF
:100610003F912F910F900FBE0F901F90189526E8D5
:10062000230F0296A11DB11DD2CF1F920F920FB6BC
:100630000F9211242F933F934F935F936F937F9368
:100640008F939F93AF93BF93EF93FF938BEC91E0C6
:100650000E94CA01FF91EF91BF91AF919F918F913D
:100660007F916F915F914F913F912F910F900FBEAE
:100670000F901F9018951F920F920FB60F92112492
:100680002F938F939F93EF93FF93E091DB01F09172
:10069000DC018081E091E101F091E20182FD1BC06B
:1006A00090818091E4018F5F8F732091E501821723
:1006B00041F0E091E401F0E0E553FE4F958F809327
:1006C000E401FF91EF919F918F912F910F900FBEB9
:1006D0000F901F9018958081F4CF789484B5826034
:1006E00084BD84B5816084BD85B5826085BD85B5D6
:1006F000816085BD80916E00816080936E00109254
:1007000081008091810082608093810080918100CE
:10071000816080938100809180008160809380005F
:100720008091B10084608093B1008091B0008160BD
:100730008093B00080917A00846080937A008091E9
:100740007A00826080937A0080917A008160809341
:100750007A0080917A00806880937A001092C100BC
:10076000E091DB01F091DC0182E08083E091D70130
:10077000F091D8011082E091D901F091DA0180E185
:1007800080831092E301E091DF01F091E00186E0C7
:100790008083E091DD01F091DE01808180618083C2
:1007A000E091DD01F091DE01808188608083E0913D
:1007B000DD01F091DE01808180688083E091DD01C0
:1007C000F091DE0180818F7D808389E00E94870027
:1007D00088E00E9487008DE00E94870060E089E049
:1007E0000E94A60060E088E00E94A60085E191E0FA
:1007F0000E94AE0288E491E00E94AE0285E191E0A1
:100800000E94AE02C3E0D0E061E08DE00E94A6004D
:100810000E94170160E08DE00E94A6000E9417016F
:10082000219791F78CE791E00E94AE0264EF71E0AE
:1008300080ED97E00E9459020E94170164EF71E079
:1008400088EB9BE00E9459020E94170168EE73E05A
:1008500080EA9FE00E94590260E089E00E94A600C1
:1008600060E088E00E94A60083EA91E00E94AE0268
:10087000C0E0D0E02097F1F30E94B6018823D1F3C5
:100880000E940000F7CFEBECF1E01382128288EEB9
:1008900093E0A0E0B0E084839583A683B78384E0EF
:1008A00091E09183808385EC90E09587848784EC48
:1008B00090E09787868780EC90E0918B808B81EC2D
:1008C00090E0938B828B82EC90E0958B848B86EC0E
:1008D00090E0978B868B118E128E138E148E089556
:1008E000052E97FB1EF400940E94870457FD07D045
:1008F0000E94AD0407FC03D04EF40C94870450957D
:100900004095309521953F4F4F4F5F4F08959095FB
:100910008095709561957F4F8F4F9F4F08950E94EE
:100920009704332312F48A1B9B0B0C94A804A29FF8
:10093000B001B39FC001A39F700D811D1124911DB3
:10094000B29F700D811D1124911D08950E9497047E
:10095000B7FF0895821B930B0895A1E21A2EAA1BDC
:10096000BB1BFD010DC0AA1FBB1FEE1FFF1FA2175F
:10097000B307E407F50720F0A21BB30BE40BF50B5C
:10098000661F771F881F991F1A9469F760957095E5
:10099000809590959B01AC01BD01CF010895EE0FAC
:0E09A000FF1F0590F491E02D0994F894FFCF0D
:1009AE0000000000EC014C0179013902AA01880116
:1009BE009C010D0A003D3D3D3D3D3D3D3D3D3D3DD6
:1009CE003D3D3D3D3D3D3D3D3D3D3D3D3D3D3D3D49
:1009DE003D3D3D3D3D3D3D3D3D3D3D3D3D3D3D3D39
:1009EE003D3D3D3D3D3D3D002020544150203130A8
:1009FE005620444946464552454E5449414C204A9C
:100A0E00494E474C45205445535420425552535459
:100A1E00202020202020202020202000F09F93A1A5
:100A2E0020504C4159494E4720313056204A494EAC
:100A3E00474C452028444F20444F20444F4F292EE9
:100A4E002E2E00F09F9487204A494E474C45204653
:100A5E00494E49534845442E2053494C454E542E39
:020A6E00000086
:00000001FF
