:100000000C945D000C9485000C9485000C94850084
:100010000C9485000C9485000C9485000C9485004C
:100020000C9485000C9485000C9485000C9485003C
:100030000C9485000C9485000C9485000C9485002C
:100040000C94EC020C9485000C945C030C94360325
:100050000C9485000C9485000C9485000C9485000C
:100060000C9485000C9485000000000024002700FB
:100070002A0000000000250028002B0004040404CE
:100080000404040402020202020203030303030342
:10009000010204081020408001020408102001021F
:1000A00004081020000000080002010000030407FB
:1000B0000000000000000000EA0411241FBECFEF82
:1000C000D8E0DEBFCDBF11E0A0E0B1E0E2E8FAE0A9
:1000D00002C005900D92A836B107D9F722E0A8E634
:1000E000B1E001C01D92AE30B207E1F710E0CDE5FE
:1000F000D0E004C02197FE010E943905CC35D1071C
:10010000C9F70E948E030C943F050C940000E9EAA5
:10011000F0E02491E5E9F0E09491E1E8F0E0E49189
:10012000EE23C9F0222339F0233001F1A8F4213065
:1001300019F1223029F1F0E0EE0FFF1FEE58FF4FCA
:10014000A591B4912FB7F894EC91811126C09095A8
:100150009E239C932FBF08952730A9F02830C9F023
:10016000243049F7209180002F7D03C0209180002A
:100170002F7720938000DFCF24B52F7724BDDBCFEE
:1001800024B52F7DFBCF2091B0002F772093B000B6
:10019000D2CF2091B0002F7DF9CF9E2BDACFCF9315
:1001A000DF9390E0FC01E057FF4F249184589F4F6C
:1001B000FC0184918823D1F090E0880F991FFC0105
:1001C000E859FF4FA591B491FC01EE58FF4FC5913E
:1001D000D491623071F49FB7F8943C91822F80954E
:1001E00083238C93E8812E2B28839FBFDF91CF91AF
:1001F00008958FB7F894EC912E2B2C938FBFF6CFE8
:100200003FB7F89480916D0190916E01A0916F01BC
:10021000B091700126B5A89B05C02F3F19F001963B
:10022000A11DB11D3FBFBA2FA92F982F8827BC0150
:10023000CD01620F711D811D911D42E0660F771F78
:10024000881F991F4A95D1F708958F929F92AF9278
:10025000BF92CF92DF92EF92FF924B015C010E941E
:1002600000016B017C010E9400016C197D098E095F
:100270009F09683E734081059105A8F321E0821A29
:100280009108A108B10888EEC80E83E0D81EE11CD1
:10029000F11C81149104A104B10429F7FF90EF909F
:1002A000DF90CF90BF90AF909F908F900895AF92C6
:1002B000BF92CF92DF92EF92FF920F931F93CF9353
:1002C000DF936C017B018B01040F151FEB015E01B5
:1002D000AE18BF08C017D10759F06991D601ED914A
:1002E000FC910190F081E02DC6010995892B79F7E9
:1002F000C501DF91CF911F910F91FF90EF90DF909B
:10030000CF90BF90AF900895FC01538D448D252F61
:1003100030E0842F90E0821B930B541710F0CF969F
:10032000089501970895FC01918D828D981761F0D1
:10033000A28DAE0FBF2FB11D5D968C91928D9F5FE8
:100340009F73928F90E008958FEF9FEF0895FC01C7
:10035000918D828D981731F0828DE80FF11D858D7A
:1003600090E008958FEF9FEF0895FC01918D228D0D
:10037000892F90E0805C9F4F821B91098F73992792
:10038000089581E791E00E94B50121E0892B09F4ED
:1003900020E0822F089580E090E0892B29F00E94D0
:1003A000C10181110C9400000895FC01A48DA80FD7
:1003B000B92FB11DA35ABF4F2C91848D90E00196A7
:1003C0008F739927848FA689B7892C93A089B189C7
:1003D0008C91837080648C93938D848D981306C068
:1003E0000288F389E02D80818F7D80830895EF92CC
:1003F000FF920F931F93CF93DF93EC0181E0888FDF
:100400009B8D8C8D98131AC0E889F989808185FFAE
:1004100015C09FB7F894EE89FF896083E889F98950
:1004200080818370806480839FBF81E090E0DF9152
:10043000CF911F910F91FF90EF900895F62E0B8DA5
:1004400010E00F5F1F4F0F731127E02E8C8D8E1160
:100450000CC00FB607FCFACFE889F989808185FFC7
:10046000F5CFCE010E94D501F1CFEB8DEC0FFD2F22
:10047000F11DE35AFF4FF0829FB7F8940B8FEA8982
:10048000FB8980818062CFCFCF93DF93EC01888D91
:100490008823B9F0AA89BB89E889F9898C9185FDFF
:1004A00003C0808186FD0DC00FB607FCF7CF8C918D
:1004B00085FFF2CF808185FFEDCFCE010E94D5016F
:1004C000E9CFDF91CF910895FC0101900020E9F779
:1004D0003197AF01481B590BBC0181E791E00C94A7
:1004E00057018F929F92AF92BF92CF92DF92EF927D
:1004F000FF920F931F93CF93DF93CDB7DEB7A197F2
:100500000FB6F894DEBF0FBECDBF6B017C01F7FEC6
:1005100041C06DE281E791E00E94F7018C01222742
:100520003327A9012C193D094E095F0919A2CE01F3
:1005300081967C019AE0892E912CA12CB12CCA01C4
:10054000B901A50194010E941705605DF70162934E
:100550007F01211531054105510589F790E080E0C3
:10056000309719F0CF010E946402800F911FA1966D
:100570000FB6F894DEBF0FBECDBFDF91CF911F91B4
:100580000F91FF90EF90DF90CF90BF90AF909F9032
:100590008F900895AC019B0119A28E010F5D1F4F32
:1005A0008AE0C82ED12CE12CF12CCA01B901A70197
:1005B00096010E941705605DF80162938F01211575
:1005C00031054105510589F790E080E0309779F2D7
:1005D000CF010E946402CBCF1F920F920FB60F92F1
:1005E00011242F933F938F939F93AF93BF93809149
:1005F000690190916A01A0916B01B0916C013091F9
:10060000680123E0230F2D3758F50196A11DB11D78
:10061000209368018093690190936A01A0936B0114
:10062000B0936C0180916D0190916E01A0916F016A
:10063000B09170010196A11DB11D80936D01909341
:100640006E01A0936F01B0937001BF91AF919F9124
:100650008F913F912F910F900FBE0F901F90189583
:1006600026E8230F0296A11DB11DD2CF1F920F9233
:100670000FB60F9211242F933F934F935F936F9375
:100680007F938F939F93AF93BF93EF93FF9381E7F4
:1006900091E00E94D501FF91EF91BF91AF919F91A1
:1006A0008F917F916F915F914F913F912F910F901B
:1006B0000FBE0F901F9018951F920F920FB60F92BA
:1006C00011242F938F939F93EF93FF93E0918101D8
:1006D000F09182018081E0918701F091880182FD93
:1006E0001BC0908180918A018F5F8F7320918B0155
:1006F000821741F0E0918A01F0E0EF58FE4F958FAC
:1007000080938A01FF91EF919F918F912F910F908C
:100710000FBE0F901F9018958081F4CFCF93DF9379
:10072000CDB7DEB760970FB6F894DEBF0FBECDBF72
:10073000789484B5826084BD84B5816084BD85B5BC
:10074000826085BD85B5816085BD80916E008160C8
:1007500080936E001092810080918100826080936E
:100760008100809181008160809381008091800070
:100770008160809380008091B10084608093B1009B
:100780008091B00081608093B00080917A00846095
:1007900080937A0080917A00826080937A008091C1
:1007A0007A00816080937A0080917A0080688093DB
:1007B0007A001092C100E0918101F091820182E003
:1007C0008083E0917D01F0917E011082E0917F01B4
:1007D000F091800180E1808310928901E091850190
:1007E000F091860186E08083E0918301F09184019D
:1007F000808180618083E0918301F0918401808118
:1008000088608083E0918301F09184018081806819
:100810008083E0918301F091840180818F7D8083CA
:1008200061E085E00E94CF0080E00E94870062E0E6
:100830008EE00E94CF0062E08FE00E94CF0062E075
:1008400080E10E94CF0062E081E10E94CF0062E07F
:1008500082E10E94CF0062E083E10E94CF002FE09E
:10086000222E312C30E0832E30E0932E82E291E074
:100870000E94640284E491E00E94640280E1E0E06E
:10088000F1E0DE01119601900D928A95E1F7CE011B
:1008900001965C01412C512C3201F501F080F2E00F
:1008A000AF0EB11C02E310E081E00E94870087EDEB
:1008B00090E00197F1F780E00E94870087E992E0DD
:1008C0000197F1F70150110979F780E00E94870044
:1008D00082EF8F0D9DE09F1508F08F2D877080644B
:1008E00044E650E010E000E0EE24EA9493E0F92EB4
:1008F00080937C0090917A00906490937A0090911C
:100900007A0096FDFCCF20917800309179002E1569
:100910003F050CF47901021713070CF48901F1016A
:100920003197F1F74150510919F76801CE18DF08E6
:1009300087E491E00E946402C301B2010E94710247
:100940008DE491E00E946402B601DD0C880B990BE6
:100950000E94710286E591E00E946402B701FF0CDB
:10096000880B990B0E9471028EE591E00E9464024F
:10097000B801110F880B990B0E94710286E691E075
:100980000E94640284E491E00E94640264E670E0E4
:1009900080E090E00E942501EFEF4E1A5E0A6E0A99
:1009A0007E0AF8E04F1651046104710409F075CF16
:1009B00068EB7BE080E090E00E94250181149104C7
:1009C00009F454CF0E94C101882309F44FCF0E943B
:1009D00000004CCFE1E7F1E01382128288EE93E051
:1009E000A0E0B0E084839583A683B78384E191E09F
:1009F0009183808385EC90E09587848784EC90E0F8
:100A00009787868780EC90E0918B808B81EC90E0DB
:100A1000938B828B82EC90E0958B848B86EC90E0BC
:100A2000978B868B118E128E138E148E0895A1E2F1
:100A30001A2EAA1BBB1BFD010DC0AA1FBB1FEE1F58
:100A4000FF1FA217B307E407F50720F0A21BB30BA3
:100A5000E40BF50B661F771F881F991F1A9469F71F
:100A600060957095809590959B01AC01BD01CF017B
:100A70000895EE0FFF1F0590F491E02D0994F8946E
:020A8000FFCFA6
:100A82000E000F00100011001200130014001500D8
:100A920000000000F701570184014402B5019301EF
:100AA200A7010A2D2D2D20414E414C4F4720504980
:100AB2004E2041434F5553544943205343414E2006
:100AC2002D2D2D000D0A0050696E204100207C2042
:100AD200416D703A2000205B4D696E3A20002C2057
:080AE2004D61783A20005D002F
:00000001FF
