:100000000C945D000C9485000C9485000C94850084
:100010000C9485000C9485000C9485000C9485004C
:100020000C9485000C9485000C9485000C9485003C
:100030000C9485000C9485000C9485000C9485002C
:100040000C94EF020C9485000C945F030C9439031C
:100050000C9485000C9485000C9485000C9485000C
:100060000C9485000C94850000000008000201003B
:100070000003040700000000000000000000000072
:10008000250028002B0000000000240027002A0083
:10009000040404040404040402020202020203032E
:1000A0000303030301020408102040800102040836
:1000B0001020010204081020C40411241FBECFEF39
:1000C000D8E0DEBFCDBF11E0A0E0B1E0E6E3FAE0AA
:1000D00002C005900D92AC3FB107D9F722E0ACEF1A
:1000E000B1E001C01D92A23AB207E1F710E0CDE500
:1000F000D0E004C02197FE010E941305CC35D10742
:10010000C9F70E9491030C9419050C94000090E02B
:10011000FC01EC55FF4F249180579F4FFC018491C7
:10012000882399F090E0880F991FFC01EA57FF4F50
:10013000A591B491FC01E458FF4F859194918FB73C
:10014000F894EC91E22BEC938FBF089590E0FC01C2
:10015000E859FF4F2491FC01EC55FF4F3491FC010D
:10016000E057FF4FE491EE23C9F0222339F023300A
:1001700001F1A8F4213019F1223029F1F0E0EE0F5D
:10018000FF1FE458FF4FA591B4918FB7F894EC91FD
:10019000611126C030953E233C938FBF08952730D0
:1001A000A9F02830C9F0243049F7809180008F7D74
:1001B00003C0809180008F7780938000DFCF84B56B
:1001C0008F7784BDDBCF84B58F7DFBCF8091B0006E
:1001D0008F778093B000D2CF8091B0008F7DF9CF20
:1001E0003E2BDACF3FB7F894809101029091020242
:1001F000A0910302B091040226B5A89B05C02F3F31
:1002000019F00196A11DB11D3FBFBA2FA92F982F3C
:100210008827BC01CD01620F711D811D911D42E037
:10022000660F771F881F991F4A95D1F708958F92FF
:100230009F92AF92BF92CF92DF92EF92FF920E9475
:10024000F2004B015C0184E6C82ED12CE12CF12C8C
:100250000E94F200681979098A099B09683E734077
:1002600081059105A8F321E0C21AD108E108F1083F
:1002700088EE880E83E0981EA11CB11CC114D10425
:10028000E104F10429F7FF90EF90DF90CF90BF9049
:10029000AF909F908F900895AF92BF92CF92DF92D0
:1002A000EF92FF920F931F93CF93DF936C017B012B
:1002B0008B01040F151FEB015E01AE18BF08C017BC
:1002C000D10759F06991D601ED91FC910190F0812F
:1002D000E02DC6010995892B79F7C501DF91CF91F2
:1002E0001F910F91FF90EF90DF90CF90BF90AF9054
:1002F0000895FC01538D448D252F30E0842F90E02C
:10030000821B930B541710F0CF9608950197089510
:10031000FC01918D828D981761F0A28DAE0FBF2FD9
:10032000B11D5D968C91928D9F5F9F73928F90E02F
:1003300008958FEF9FEF0895FC01918D828D98179E
:1003400031F0828DE80FF11D858D90E008958FEFDB
:100350009FEF0895FC01918D228D892F90E0805CA4
:100360009F4F821B91098F739927089585E092E032
:100370000E94AA0121E0892B09F420E0822F089530
:1003800080E090E0892B29F00E94B60181110C9445
:1003900000000895FC01A48DA80FB92FB11DA35A28
:1003A000BF4F2C91848D90E001968F739927848F95
:1003B000A689B7892C93A089B1898C9183708064B8
:1003C0008C93938D848D981306C00288F389E02D59
:1003D00080818F7D80830895EF92FF920F931F930A
:1003E000CF93DF93EC0181E0888F9B8D8C8D9813E8
:1003F0001AC0E889F989808185FF15C09FB7F894F4
:10040000EE89FF896083E889F9898081837080643F
:1004100080839FBF81E090E0DF91CF911F910F918A
:10042000FF90EF900895F62E0B8D10E00F5F1F4F99
:100430000F731127E02E8C8D8E110CC00FB607FCA8
:10044000FACFE889F989808185FFF5CFCE010E9436
:10045000CA01F1CFEB8DEC0FFD2FF11DE35AFF4FD9
:10046000F0829FB7F8940B8FEA89FB8980818062C4
:10047000CFCFCF93DF93EC01888D8823B9F0AA8981
:10048000BB89E889F9898C9185FD03C0808186FD4F
:100490000DC00FB607FCF7CF8C9185FFF2CF80819E
:1004A00085FFEDCFCE010E94CA01E9CFDF91CF9148
:1004B0000895FC0101900020E9F73197AF01481B36
:1004C000590BBC0185E092E00C944C01CF93DF9373
:1004D0000E945902EC0182E191E00E9459028C0FC6
:1004E0009D1FDF91CF9108958F929F92AF92BF92FF
:1004F000CF92DF92EF92FF920F931F93CF93DF93F0
:10050000CDB7DEB7A1970FB6F894DEBF0FBECDBF53
:100510006B017C01F7FE41C06DE285E092E00E9434
:10052000EC018C0122273327A9012C193D094E0922
:100530005F0919A2CE0181967C019AE0892E912C47
:10054000A12CB12CCA01B901A50194010E94F104AA
:10055000605DF70162937F01211531054105510569
:1005600089F790E080E0309719F0CF010E9459029E
:10057000800F911FA1960FB6F894DEBF0FBECDBFBE
:10058000DF91CF911F910F91FF90EF90DF90CF906F
:10059000BF90AF909F908F900895AC019B0119A2DE
:1005A0008E010F5D1F4F8AE0C82ED12CE12CF12C5B
:1005B000CA01B901A70196010E94F104605DF8012A
:1005C00062938F01211531054105510589F790E0AE
:1005D00080E0309779F2CF010E945902CBCF1F9271
:1005E0000F920FB60F9211242F933F938F939F93E7
:1005F000AF93BF938091FD019091FE01A091FF0107
:10060000B09100023091FC0123E0230F2D3758F503
:100610000196A11DB11D2093FC018093FD019093D3
:10062000FE01A093FF01B09300028091010290911E
:100630000202A0910302B09104020196A11DB11D16
:100640008093010290930202A0930302B0930402EC
:10065000BF91AF919F918F913F912F910F900FBEBE
:100660000F901F90189526E8230F0296A11DB11D2B
:10067000D2CF1F920F920FB60F9211242F933F9358
:100680004F935F936F937F938F939F93AF93BF939A
:10069000EF93FF9385E092E00E94CA01FF91EF91F2
:1006A000BF91AF919F918F917F916F915F914F918A
:1006B0003F912F910F900FBE0F901F9018951F9292
:1006C0000F920FB60F9211242F938F939F93EF9356
:1006D000FF93E0911502F09116028081E0911B02D8
:1006E000F0911C0282FD1BC0908180911E028F5FE1
:1006F0008F7320911F02821741F0E0911E02F0E0FB
:10070000EB5FFD4F958F80931E02FF91EF919F91BC
:100710008F912F910F900FBE0F901F901895808191
:10072000F4CF789484B5826084BD84B5816084BD43
:1007300085B5826085BD85B5816085BD80916E007F
:10074000816080936E0010928100809181008260B0
:1007500080938100809181008160809381008091ED
:1007600080008160809380008091B10084608093DC
:10077000B1008091B00081608093B00080917A00D8
:10078000846080937A0080917A00826080937A00FE
:1007900080917A00816080937A0080917A008068ED
:1007A00080937A001092C100E0911502F091160238
:1007B00082E08083E0911102F09112021082E091B8
:1007C0001302F091140280E1808310921D02E091E7
:1007D0001902F0911A0286E08083E0911702F091ED
:1007E0001802808180618083E0911702F0911802E5
:1007F000808188608083E0911702F09118028081E7
:1008000080688083E0911702F091180280818F7DCB
:10081000808389E00E94870088E00E9487008DE045
:100820000E94870060E089E00E94A60060E088E006
:100830000E94A60085E191E00E94660288E491E0B2
:100840000E94660285E191E00E946602C3E0D0E06A
:1008500061E08DE00E94A6000E94170160E08DE03B
:100860000E94A6000E941701219791F78BE791E063
:100870000E946602C6E9D0E007EB11E020E4722E88
:100880003FE0E32EF12C94E6C92ED12C61E089E003
:100890000E94A60060E088E00E94A600C8010197BF
:1008A000F1F760E089E00E94A60061E088E00E9424
:1008B000A600C8010197F1F781E0C81AD10831F705
:1008C00024E630E0D12CC12C88248A9483E0982E31
:1008D00070927C0080917A00806480937A0080918D
:1008E0007A0086FDFCCF8091780090917900881580
:1008F00099050CF44C01C816D9060CF46C01C7011B
:100900000197F1F72150310919F75601A818B908D4
:100910008FEA91E00E945902B501BB0C880B990B3C
:100920000E94740287EC91E00E945902B401990C74
:10093000880B990B0E9474028FEC91E00E9459027F
:10094000B601DD0C880B990B0E94740287ED91E0D3
:100950000E946602219709F096CF60E089E00E942C
:10096000A60060E088E00E94A60089ED91E00E9468
:100970006602C0E0D0E02097F1F30E94B601882320
:10098000D1F30E940000F7CFE5E0F2E0138212827B
:1009900088EE93E0A0E0B0E084839583A683B783DC
:1009A00084E091E09183808385EC90E09587848753
:1009B00084EC90E09787868780EC90E0918B808B29
:1009C00081EC90E0938B828B82EC90E0958B848B12
:1009D00086EC90E0978B868B118E128E138E148E80
:1009E0000895A1E21A2EAA1BBB1BFD010DC0AA1F70
:1009F000BB1FEE1FFF1FA217B307E407F50720F088
:100A0000A21BB30BE40BF50B661F771F881F991F02
:100A10001A9469F760957095809590959B01AC014B
:100A2000BD01CF010895EE0FFF1F0590F491E02D59
:060A30000994F894FFCFC9
:100A360000000000EC014C0179013902AA0188018D
:100A46009C010D0A003D3D3D3D3D3D3D3D3D3D3D4D
:100A56003D3D3D3D3D3D3D3D3D3D3D3D3D3D3D3DC0
:100A66003D3D3D3D3D3D3D3D3D3D3D3D3D3D3D3DB0
:100A76003D3D3D3D3D3D3D0020205441502031301F
:100A86005620444946464552454E5449414C203528
:100A96002D5345434F4E44204C4F55442054455307
:100AA6005420544F4E452020202000F09F93A12033
:100AB6005354415254494E4720352D5345434F4ECA
:100AC6004420544F4E452042555253542028342E2C
:100AD60035206B487A2C20313056292E2E2E004C8C
:100AE60069766520546F6E65207C20416D706C6957
:100AF600747564653A2000205B4D696E3A20002CBF
:100B0600204D61783A20005D00F09F948720544F75
:100B16004E452042555253542046494E4953484566
:0C0B2600442E2053494C454E542E000034
:00000001FF
