:100000000C945D000C9485000C9485000C94850084
:100010000C9485000C9485000C9485000C9485004C
:100020000C9485000C9485000C9485000C9485003C
:100030000C9485000C9485000C9485000C9485002C
:100040000C944D040C9485000C94BD040C949704FE
:100050000C9485000C9485000C9485000C9485000C
:100060000C9485000C9485000000000024002700FB
:100070002A0000000000250028002B0004040404CE
:100080000404040402020202020203030303030342
:10009000010204081020408001020408102001021F
:1000A00004081020000000080002010000030407FB
:1000B0000000000000000000110611241FBECFEF59
:1000C000D8E0DEBFCDBF12E0A0E0B1E0E8EBFEE09B
:1000D00002C005900D92A03DB107D9F723E0A0ED35
:1000E000B2E001C01D92A737B207E1F710E0CDE5FD
:1000F000D0E004C02197FE010E945407CC35D107FF
:10010000C9F70E94EF040C945A070C940000E9EA26
:10011000F0E02491E5E9F0E09491E1E8F0E0E49189
:10012000EE23C9F0222339F0233001F1A8F4213065
:1001300019F1223029F1F0E0EE0FFF1FEE58FF4FCA
:10014000A591B4912FB7F894EC91811126C09095A8
:100150009E239C932FBF08952730A9F02830C9F023
:10016000243049F7209180002F7D03C0209180002A
:100170002F7720938000DFCF24B52F7724BDDBCFEE
:1001800024B52F7DFBCF2091B0002F772093B000B6
:10019000D2CF2091B0002F7DF9CF9E2BDACF80E413
:1001A00080937C0080917A00806480937A008091B3
:1001B0007A0086FDFCCF80917800909179000895B7
:1001C000CF93DF9390E0FC01E057FF4F24918458D8
:1001D0009F4FFC0184918823D1F090E0880F991FF4
:1001E000FC01E859FF4FA591B491FC01EE58FF4F77
:1001F000C591D491623071F49FB7F8943C91822FED
:10020000809583238C93E8812E2B28839FBFDF91D9
:10021000CF9108958FB7F894EC912E2B2C938FBF2C
:10022000F6CF8230910538F0880F991F880F991FFB
:1002300005970197F1F708953FB7F8948091D6029A
:100240009091D702A091D802B091D90226B5A89B6F
:1002500005C02F3F19F00196A11DB11D3FBFBA2F58
:10026000A92F982F8827BC01CD01620F711D811D18
:10027000911D42E0660F771F881F991F4A95D1F79D
:1002800008958F929F92AF92BF92CF92DF92EF929A
:10029000FF926B017C010E941C014B015C01C114A7
:1002A000D104E104F104B9F00E941C016819790934
:1002B0008A099B09683E73408105910580F321E01E
:1002C000C21AD108E108F10888EE880E83E0981E72
:1002D000A11CB11CE4CFFF90EF90DF90CF90BF90B6
:1002E000AF909F908F900895AF92BF92CF92DF9280
:1002F000EF92FF920F931F93CF93DF936C017B01DB
:100300008B01040F151FEB015E01AE18BF08C0176B
:10031000D10759F06991D601ED91FC910190F081DE
:10032000E02DC6010995892B79F7C501DF91CF91A1
:100330001F910F91FF90EF90DF90CF90BF90AF9003
:100340000895FC01538D448D252F30E0842F90E0DB
:10035000821B930B541710F0CF96089501970895C0
:10036000FC01918D828D981761F0A28DAE0FBF2F89
:10037000B11D5D968C91928D9F5F9F73928F90E0DF
:1003800008958FEF9FEF0895FC01918D828D98174E
:1003900031F0828DE80FF11D858D90E008958FEF8B
:1003A0009FEF0895FC01918D228D892F90E0805C54
:1003B0009F4F821B91098F73992708958AED92E0D0
:1003C0000E94D20121E0892B09F420E0822F0895B8
:1003D00080E090E0892B29F00E94DE0181110C94CD
:1003E00000000895FC01A48DA80FB92FB11DA35AD8
:1003F000BF4F2C91848D90E001968F739927848F45
:10040000A689B7892C93A089B1898C918370806467
:100410008C93938D848D981306C00288F389E02D08
:1004200080818F7D80830895EF92FF920F931F93B9
:10043000CF93DF93EC0181E0888F9B8D8C8D981397
:100440001AC0E889F989808185FF15C09FB7F894A3
:10045000EE89FF896083E889F989808183708064EF
:1004600080839FBF81E090E0DF91CF911F910F913A
:10047000FF90EF900895F62E0B8D10E00F5F1F4F49
:100480000F731127E02E8C8D8E110CC00FB607FC58
:10049000FACFE889F989808185FFF5CFCE010E94E6
:1004A000F201F1CFEB8DEC0FFD2FF11DE35AFF4F61
:1004B000F0829FB7F8940B8FEA89FB898081806274
:1004C000CFCFCF93DF93EC01888D8823B9F0AA8931
:1004D000BB89E889F9898C9185FD03C0808186FDFF
:1004E0000DC00FB607FCF7CF8C9185FFF2CF80814E
:1004F00085FFEDCFCE010E94F201E9CFDF91CF91D0
:100500000895FC0101900020E9F73197AF01481BE5
:10051000590BBC018AED92E00C947401CF93DF93E8
:100520000E948102EC0182E191E00E9481028C0F25
:100530009D1FDF91CF9108958F929F92AF92BF92AE
:10054000CF92DF92EF92FF920F931F93CF93DF939F
:10055000CDB7DEB7A1970FB6F894DEBF0FBECDBF03
:100560006C01990FEE08FF08F7FE41C06DE28AEDBD
:1005700092E00E9414028C0122273327A9012C1932
:100580003D094E095F0919A2CE0181967C019AE0CE
:10059000892E912CA12CB12CCA01B901A50194017D
:1005A0000E943207605DF70162937F0121153105DA
:1005B0004105510589F790E080E0309719F0CF01AF
:1005C0000E948102800F911FA1960FB6F894DEBFA2
:1005D0000FBECDBFDF91CF911F910F91FF90EF9094
:1005E000DF90CF90BF90AF909F908F900895A7011C
:1005F000960119A28E010F5D1F4F8AE0C82ED12CE3
:10060000E12CF12CCA01B901A70196010E94320721
:10061000605DF80162938F01211531054105510597
:1006200089F790E080E0309779F2CF010E94810253
:10063000CBCF2F923F924F925F926F927F928F9289
:100640009F92AF92BF92CF92DF92EF92FF920F9361
:100650001F93CF93DF93EC0185E191E00E9481022B
:10066000CE010E949C0283E491E00E948E02812CC4
:10067000912C54014FE4242E332433945FE1452E12
:1006800052E0552E340102E310E0C130D10509F0EB
:1006900084C081E00E948700C1010197F1F780E0EA
:1006A0000E948700C2010197F1F70150110989F7F3
:1006B00080E00E948700C501B4010E94410184E6E8
:1006C000C82ED12C10E000E0EE24EA9493E0F92E3D
:1006D0000E94CF008E159F050CF47C0108171907A6
:1006E0000CF48C018FE090E00197F1F781E0C81ADB
:1006F000D10871F76801CE18DF0889E491E00E9403
:100700008102C3010E949C0285E591E00E94810262
:10071000C6010E949C0285E691E00E948102C70109
:100720000E949C028DE691E00E948102C8010E9415
:100730009C0285E791E00E948E0268EC70E080E008
:1007400090E00E9441018AE0880E911CA11CB11C1E
:1007500086E3881681E09806A104B10409F092CFDF
:1007600087E791E00E948102CE010E949C0283E40F
:1007700091E0DF91CF911F910F91FF90EF90DF906B
:10078000CF90BF90AF909F908F907F906F905F9031
:100790004F903F902F900C948E02C230D10591F46F
:1007A00081E00E94870087ED90E00197F1F780E0FB
:1007B0000E94870087E992E00197F1F70150110943
:1007C00079F776CFC12CD12C2EE5E22E23E4F22E40
:1007D000C330D105A1F5C12CD12C3EEDE32E32E47E
:1007E000F32E81E00E94870021E835E943E45FE3CE
:1007F000C701B6010E949D060E943E06CB010E94E1
:10080000110180E00E9487002FE335E34EE95FE3AA
:10081000C701B6010E949D060E943E06CB010E94C0
:10082000110125E83BEE41E85FE3C701B6010E94F4
:100830009D066B017C010150110999F639CF81E0C9
:100840000E9487002CEF39EA41E75EE3C701B60159
:100850000E949D060E943E06CB010E94110180E08D
:100860000E94870021E835E943E45FE3C701B60150
:100870000E949D060E943E06CB010E94110125E8C0
:100880003BEE41E85FE3C701B6010E949D066B01A4
:100890007C010150110999F60BCF1F920F920FB6F0
:1008A0000F9211242F933F938F939F93AF93BF93F6
:1008B0008091D2029091D302A091D402B091D5023E
:1008C0003091D10223E0230F2D3758F50196A11D59
:1008D000B11D2093D1028093D2029093D302A093B2
:1008E000D402B093D5028091D6029091D702A09104
:1008F000D802B091D9020196A11DB11D8093D602F4
:100900009093D702A093D802B093D902BF91AF9130
:100910009F918F913F912F910F900FBE0F901F903D
:10092000189526E8230F0296A11DB11DD2CF1F9264
:100930000F920FB60F9211242F933F934F935F9313
:100940006F937F938F939F93AF93BF93EF93FF9397
:100950008AED92E00E94F201FF91EF91BF91AF9179
:100960009F918F917F916F915F914F913F912F91C7
:100970000F900FBE0F901F9018951F920F920FB6F9
:100980000F9211242F938F939F93EF93FF93E091F6
:10099000EA02F091EB028081E091F002F091F10225
:1009A00082FD1BC090818091F3028F5F8F73209135
:1009B000F402821741F0E091F302F0E0E652FD4FBD
:1009C000958F8093F302FF91EF919F918F912F91DB
:1009D0000F900FBE0F901F9018958081F4CF7894E0
:1009E00084B5826084BD84B5816084BD85B5826034
:1009F00085BD85B5816085BD80916E0081608093E5
:100A00006E0010928100809181008260809381004D
:100A1000809181008160809381008091800081605D
:100A2000809380008091B10084608093B1008091B8
:100A3000B00081608093B00080917A0084608093E0
:100A40007A0080917A00826080937A0080917A00A7
:100A5000816080937A0080917A00806880937A0028
:100A60001092C100E091EA02F091EB0282E08083F3
:100A7000E091E602F091E7021082E091E802F09145
:100A8000E90280E180831092F202E091EE02F0919F
:100A9000EF0286E08083E091EC02F091ED0280812C
:100AA00080618083E091EC02F091ED0280818860AA
:100AB0008083E091EC02F091ED0280818068808378
:100AC000E091EC02F091ED0280818F7D808361E006
:100AD00085E00E94E00061E08DE00E94E00062E0BD
:100AE0008EE00E94E00080E00E94870082EA91E0B0
:100AF0000E948E0285ED91E00E948E0289E092E0D4
:100B00000E948E0282EA91E00E948E0299249394C0
:100B10009FE0C92ED12C20E0E22E20E0F22E8AEDBB
:100B200092E00E94D201181619065CF48AED92E058
:100B30000E94B001813309F04FC081E090E00E9433
:100B400019038091D002882309F467C084E6A82E97
:100B5000B12CD0E0C0E00FEF13E00E94CF0080176F
:100B600091070CF48C01C817D9070CF4EC01C601ED
:100B70000197F1F781E0A81AB10879F75E01A01A90
:100B8000B10A86EB92E00E948102C5010E949C029C
:100B900085E691E00E948102C8010E949C028DE6D8
:100BA00091E00E948102CE010E949C0285E791E0C3
:100BB0000E948E0268EC70E080E090E00E944101AB
:100BC000E114F10409F4ABCF0E94DE01882309F49B
:100BD000A6CF0E940000A3CF823319F482E090E0F8
:100BE000AECF833319F483E090E0A9CF843319F4B6
:100BF00084E090E0A4CF803309F0A3CF8091D002AD
:100C000089258093D002882329F08FE592E00E9405
:100C10008E0297CF88E892E0FACF80E00E948700AA
:100C2000CFCFEAEDF2E01382128288EE93E0A0E0EB
:100C3000B0E084839583A683B78384E091E09183B9
:100C4000808385EC90E09587848784EC90E097879B
:100C5000868780EC90E0918B808B81EC90E0938B89
:100C6000828B82EC90E0958B848B86EC90E0978B66
:100C7000868B118E128E138E148E08950E94450657
:100C80006894B1110C94970608950E947C0688F030
:100C90009F5798F0B92F9927B751B0F0E1F0660F40
:100CA000771F881F991F1AF0BA95C9F714C0B13081
:100CB00091F00E949606B1E008950C949606672F75
:100CC000782F8827B85F39F0B93FCCF386957795B0
:100CD0006795B395D9F73EF4909580957095619599
:100CE0007F4F8F4F9F4F089557FD9058440F551FCA
:100CF00059F05F3F71F04795880F97FB991F61F09E
:100D00009F3F79F087950895121613061406551F14
:100D1000F2CF4695F1DF08C0161617061806991F80
:100D2000F1CF86957105610508940895E894BB2775
:100D300066277727CB0197F908950E94B0060C9497
:100D400021070E94130738F00E941A0720F095230C
:100D500011F00C940A070C94100711240C949706B8
:100D60000E94740670F3959FC1F3950F50E0551FD4
:100D7000629FF001729FBB27F00DB11D639FAA27F0
:100D8000F00DB11DAA1F649F6627B00DA11D661F3F
:100D9000829F2227B00DA11D621F739FB00DA11D60
:100DA000621F839FA00D611D221F749F3327A00D1A
:100DB000611D231F849F600D211D822F762F6A2FB6
:100DC00011249F5750409AF0F1F088234AF0EE0F1B
:100DD000FF1FBB1F661F771F881F91505040A9F748
:100DE0009E3F510580F00C940A070C9497065F3FD4
:100DF000E4F3983ED4F3869577956795B795F79584
:100E0000E7959F5FC1F7FE2B880F911D96958795FB
:100E100097F9089597F99F6780E870E060E008957A
:100E20009FEF80EC089500240A9416161706180602
:100E30000906089500240A941216130614060506DE
:100E40000895092E0394000C11F4882352F0BB0F6F
:100E500040F4BF2B11F460FF04C06F5F7F4F8F4FD2
:100E60009F4F0895A1E21A2EAA1BBB1BFD010DC0C6
:100E7000AA1FBB1FEE1FFF1FA217B307E407F5074A
:100E800020F0A21BB30BE40BF50B661F771F881F26
:100E9000991F1A9469F760957095809590959B01BC
:100EA000AC01BD01CF010895EE0FFF1F0590F49135
:080EB000E02D0994F894FFCF36
:100EB8000000000014027401A1016102D201B00116
:100EC800C4010D0A000A2D2D2D20535441525420DF
:100ED800543220434F484552454E434520444543EC
:100EE800415920535745455020284D4554484F44B3
:100EF8003A200029202D2D2D004465636179446531
:100F08006C61793A006D73207C20416D706C697456
:100F18007564653A00205B4D696E3A20002C204DBF
:100F280061783A20005D002D2D2D20454E44205437
:100F38003220434F484552454E434520444543419E
:100F48005920535745455020284D4554484F443A59
:100F580020003D3D3D3D3D3D3D3D3D3D3D3D3D3D13
:100F68003D3D3D3D3D3D3D3D3D3D3D3D3D3D3D3DA9
:100F78003D3D3D3D3D3D3D3D3D3D3D3D3D3D3D3D99
:100F88003D3D3D3D00202054415020554E494649A5
:100F9800454420434F524520284435202D3E2041CA
:100FA8003029202D20494E5445524E414C20505551
:100FB8004C4C2D555020202000202052656164792A
:100FC8002E20436F6D6D616E64733A202731272D93
:100FD8003E476F6C64656E2C202732272D3E333ACE
:100FE800312C202733272D3E43686972702C202727
:100FF80034272D3E46757365642C202730272D3EF7
:10100800546F67676C65204D6F6E69746F72000A64
:10101800202020202020202053494C454E54205287
:1010280045414C2D54494D45204D4F4E49544F5242
:1010380020414354495645000A20202020202020E2
:101048002053494C454E54205245414C2D54494D4E
:1010580045204D4F4E49544F522044454143544931
:101068005641544544005278204D6F6E69746F7232
:10107800207C20416D706C69747564653A200000AD
:00000001FF
