:100000000C945D000C9485000C9485000C94850084
:100010000C9485000C9485000C9485000C9485004C
:100020000C9485000C9485000C9485000C9485003C
:100030000C9485000C9485000C9485000C9485002C
:100040000C94C3020C9485000C9433030C940D03A0
:100050000C9485000C9485000C9485000C9485000C
:100060000C9485000C94850000000008000201003B
:100070000003040700000000000000000000000072
:10008000250028002B0000000000240027002A0083
:10009000040404040404040402020202020203032E
:1000A0000303030301020408102040800102040836
:1000B0001020010204081020300411241FBECFEFCD
:1000C000D8E0DEBFCDBF11E0A0E0B1E0E8E8F9E0A4
:1000D00002C005900D92AA3CB107D9F722E0AAEC24
:1000E000B1E001C01D92A037B207E1F710E0CDE505
:1000F000D0E004C02197FE010E94BC04CC35D1079A
:10010000C9F70E9465030C94C2040C94000090E0AF
:10011000FC01EC55FF4F249180579F4FFC018491C7
:10012000882399F090E0880F991FFC01EA57FF4F50
:10013000A591B491FC01E458FF4F859194918FB73C
:10014000F894EC91E22BEC938FBF089590E0FC01C2
:10015000E859FF4F2491FC01EC55FF4F3491FC010D
:10016000E057FF4FE491EE23C9F0222339F023300A
:1001700001F1A8F4213019F1223029F1F0E0EE0F5D
:10018000FF1FE458FF4FA591B4918FB7F894EC91FD
:10019000611126C030953E233C938FBF08952730D0
:1001A000A9F02830C9F0243049F7809180008F7D74
:1001B00003C0809180008F7780938000DFCF84B56B
:1001C0008F7784BDDBCF84B58F7DFBCF8091B0006E
:1001D0008F778093B000D2CF8091B0008F7DF9CF20
:1001E0003E2BDACF3FB7F8948091CF019091D001A8
:1001F000A091D101B091D20126B5A89B05C02F3F97
:1002000019F00196A11DB11D3FBFBA2FA92F982F3C
:100210008827BC01CD01620F711D811D911D42E037
:10022000660F771F881F991F4A95D1F708958F92FF
:100230009F92AF92BF92CF92DF92EF92FF920E9475
:10024000F2004B015C0184E6C82ED12CE12CF12C8C
:100250000E94F200681979098A099B09683E734077
:1002600081059105A8F321E0C21AD108E108F1083F
:1002700088EE880E83E0981EA11CB11CC114D10425
:10028000E104F10429F7FF90EF90DF90CF90BF9049
:10029000AF909F908F900895AF92BF92CF92DF92D0
:1002A000EF92FF920F931F93CF93DF936C017B012B
:1002B0008B01040F151FEB015E01AE18BF08C017BC
:1002C000D10759F06991D601ED91FC910190F0812F
:1002D000E02DC6010995892B79F7C501DF91CF91F2
:1002E0001F910F91FF90EF90DF90CF90BF90AF9054
:1002F0000895FC01538D448D252F30E0842F90E02C
:10030000821B930B541710F0CF9608950197089510
:10031000FC01918D828D981761F0A28DAE0FBF2FD9
:10032000B11D5D968C91928D9F5F9F73928F90E02F
:1003300008958FEF9FEF0895FC01918D828D98179E
:1003400031F0828DE80FF11D858D90E008958FEFDB
:100350009FEF0895FC01918D228D892F90E0805CA4
:100360009F4F821B91098F739927089583ED91E028
:100370000E94AA0121E0892B09F420E0822F089530
:1003800080E090E0892B29F00E94B60181110C9445
:1003900000000895FC01A48DA80FB92FB11DA35A28
:1003A000BF4F2C91848D90E001968F739927848F95
:1003B000A689B7892C93A089B1898C9183708064B8
:1003C0008C93938D848D981306C00288F389E02D59
:1003D00080818F7D80830895EF92FF920F931F930A
:1003E000CF93DF93EC0181E0888F9B8D8C8D9813E8
:1003F0001AC0E889F989808185FF15C09FB7F894F4
:10040000EE89FF896083E889F9898081837080643F
:1004100080839FBF81E090E0DF91CF911F910F918A
:10042000FF90EF900895F62E0B8D10E00F5F1F4F99
:100430000F731127E02E8C8D8E110CC00FB607FCA8
:10044000FACFE889F989808185FFF5CFCE010E9436
:10045000CA01F1CFEB8DEC0FFD2FF11DE35AFF4FD9
:10046000F0829FB7F8940B8FEA89FB8980818062C4
:10047000CFCFCF93DF93EC01888D8823B9F0AA8981
:10048000BB89E889F9898C9185FD03C0808186FD4F
:100490000DC00FB607FCF7CF8C9185FFF2CF80819E
:1004A00085FFEDCFCE010E94CA01E9CFDF91CF9148
:1004B00008958F929F92AF92BF92CF92DF92EF9268
:1004C000FF92CF93DF93EC019C01DB010E947C043F
:1004D00028EE33E040E050E00E945D0449015A01FB
:1004E0009E01DD0F440B550B60E271EA87E090E05E
:1004F0000E945D04220F331F220F331FE90125974D
:10050000C12CD12C760161E085E00E94A600CE01CD
:100510000197F1F760E085E00E94A600CE01019707
:10052000F1F78FEFC81AD80AE80AF80A8C149D046C
:10053000AE04BF0441F7DF91CF91FF90EF90DF90C1
:10054000CF90BF90AF909F908F900895CF93DF93FF
:10055000FC0101900020E9F73197AF01481B590BCE
:10056000BC0183ED91E00E944C01EC0142E050E0BF
:1005700062E171E083ED91E00E944C018C0F9D1FC0
:10058000DF91CF9108951F920F920FB60F92112411
:100590002F933F938F939F93AF93BF938091CB0102
:1005A0009091CC01A091CD01B091CE013091CA01C2
:1005B00023E0230F2D3758F50196A11DB11D20937F
:1005C000CA018093CB019093CC01A093CD01B0934D
:1005D000CE018091CF019091D001A091D101B09135
:1005E000D2010196A11DB11D8093CF019093D0013E
:1005F000A093D101B093D201BF91AF919F918F9100
:100600003F912F910F900FBE0F901F90189526E8E5
:10061000230F0296A11DB11DD2CF1F920F920FB6CC
:100620000F9211242F933F934F935F936F937F9378
:100630008F939F93AF93BF93EF93FF9383ED91E0DD
:100640000E94CA01FF91EF91BF91AF919F918F914D
:100650007F916F915F914F913F912F910F900FBEBE
:100660000F901F9018951F920F920FB60F921124A2
:100670002F938F939F93EF93FF93E091E301F0917A
:10068000E4018081E091E901F091EA0182FD1BC063
:1006900090818091EC018F5F8F732091ED01821723
:1006A00041F0E091EC01F0E0ED52FE4F958F809328
:1006B000EC01FF91EF919F918F912F910F900FBEC1
:1006C0000F901F9018958081F4CF789484B5826044
:1006D00084BD84B5816084BD85B5826085BD85B5E6
:1006E000816085BD80916E00816080936E00109264
:1006F00081008091810082608093810080918100DF
:10070000816080938100809180008160809380006F
:100710008091B10084608093B1008091B0008160CD
:100720008093B00080917A00846080937A008091F9
:100730007A00826080937A0080917A008160809351
:100740007A0080917A00806880937A001092C100CC
:10075000E091E301F091E40182E08083E091DF0128
:10076000F091E0011082E091E101F091E20180E17D
:1007700080831092EB01E091E701F091E80186E0BF
:100780008083E091E501F091E601808180618083C2
:10079000E091E501F091E601808188608083E0913D
:1007A000E501F091E601808180688083E091E501B8
:1007B000F091E60180818F7D808385E00E94870033
:1007C0008DE00E94870060E085E00E94A60085E140
:1007D00091E00E94A60288E491E00E94A60285E1D1
:1007E00091E00E94A602C3E0D0E061E08DE00E94AB
:1007F000A6000E94170160E08DE00E94A6000E9402
:100800001701219791F78CE791E00E94A60264EF0F
:1008100071E080ED97E00E9459020E94170164EF99
:1008200071E088EB9BE00E9459020E94170168EE7C
:1008300073E080EA9FE00E94590260E085E00E9438
:10084000A6008BEA91E00E94A602C0E0D0E02097CB
:10085000F1F30E94B6018823D1F30E940000F7CF84
:10086000E3EDF1E01382128288EE93E0A0E0B0E0C5
:1008700084839583A683B78384E091E0918380830A
:1008800085EC90E09587848784EC90E09787868755
:1008900080EC90E0918B808B81EC90E0938B828B4D
:1008A00082EC90E0958B848B86EC90E0978B868B26
:1008B000118E128E138E148E0895052E97FB1EF442
:1008C00000940E94740457FD07D00E949A0407FC0C
:1008D00003D04EF40C9474045095409530952195B6
:1008E0003F4F4F4F5F4F089590958095709561955C
:1008F0007F4F8F4F9F4F08950E948404332312F43B
:100900008A1B9B0B0C949504A29FB001B39FC0015E
:10091000A39F700D811D1124911DB29F700D811D2B
:100920001124911D08950E948404B7FF0895821B2D
:10093000930B0895A1E21A2EAA1BBB1BFD010DC04B
:10094000AA1FBB1FEE1FFF1FA217B307E407F5077F
:1009500020F0A21BB30BE40BF50B661F771F881F5B
:10096000991F1A9469F760957095809590959B01F1
:10097000AC01BD01CF010895EE0FFF1F0590F4916A
:08098000E02D0994F894FFCF6B
:1009880000000000EC014C0179013902AA0188013C
:100998009C010D0A003D3D3D3D3D3D3D3D3D3D3DFC
:1009A8003D3D3D3D3D3D3D3D3D3D3D3D3D3D3D3D6F
:1009B8003D3D3D3D3D3D3D3D3D3D3D3D3D3D3D3D5F
:1009C8003D3D3D3D3D3D3D002020544150203556A4
:1009D8002053494E474C452D454E444544204A49ED
:1009E8004E474C45204F4E2050494E203520202060
:1009F800202020202020202020202000F09F93A1CC
:100A080020504C4159494E47203556204A494E47B7
:100A18004C45204F4E2050494E20352028444F2029
:100A2800444F20444F4F292E2E2E00F09F948720AC
:100A38004A494E474C452046494E49534845442E5D
:0A0A48002053494C454E542E000087
:00000001FF
