:100000000C945D000C9485000C9485000C94850084
:100010000C9485000C9485000C9485000C9485004C
:100020000C9485000C9485000C9485000C9485003C
:100030000C9485000C9485000C9485000C9485002C
:100040000C9432040C9485000C94A2040C947C044F
:100050000C9485000C9485000C9485000C9485000C
:100060000C9485000C9485000000000024002700FB
:100070002A0000000000250028002B0004040404CE
:100080000404040402020202020203030303030342
:10009000010204081020408001020408102001021F
:1000A00004081020000000080002010000030407FB
:1000B0000000000000000000930511241FBECFEFD8
:1000C000D8E0DEBFCDBF12E0A0E0B1E0ECEBFDE098
:1000D00002C005900D92A634B107D9F722E0A6E43C
:1000E000B2E001C01D92AC3EB207E1F710E0CDE5F1
:1000F000D0E004C02197FE010E94D606CC35D1077E
:10010000C9F70E94D4040C94DC060C940000E9EAC0
:10011000F0E02491E5E9F0E09491E1E8F0E0E49189
:10012000EE23C9F0222339F0233001F1A8F4213065
:1001300019F1223029F1F0E0EE0FFF1FEE58FF4FCA
:10014000A591B4912FB7F894EC91811126C09095A8
:100150009E239C932FBF08952730A9F02830C9F023
:10016000243049F7209180002F7D03C0209180002A
:100170002F7720938000DFCF24B52F7724BDDBCFEE
:1001800024B52F7DFBCF2091B0002F772093B000B6
:10019000D2CF2091B0002F7DF9CF9E2BDACF90E007
:1001A000FC01E057FF4F249184589F4FFC0184913C
:1001B000882399F090E0880F991FFC01E859FF4FC0
:1001C000A591B491FC01EE58FF4F859194918FB7A2
:1001D000F894EC91E22BEC938FBF08958230910557
:1001E00038F0880F991F880F991F05970197F1F72D
:1001F00008953FB7F89480914B0290914C02A091E2
:100200004D02B0914E0226B5A89B05C02F3F19F0B4
:100210000196A11DB11D3FBFBA2FA92F982F882786
:10022000BC01CD01620F711D811D911D42E0660F61
:10023000771F881F991F4A95D1F708958F929F9233
:10024000AF92BF92CF92DF92EF92FF926B017C014F
:100250000E94F9004B015C01C114D104E104F104D6
:10026000B9F00E94F900681979098A099B09683E6A
:1002700073408105910580F321E0C21AD108E1089D
:10028000F10888EE880E83E0981EA11CB11CE4CF13
:10029000FF90EF90DF90CF90BF90AF909F908F90A6
:1002A0000895AF92BF92CF92DF92EF92FF920F9399
:1002B0001F93CF93DF936C017B018B01040F151FFC
:1002C000EB015E01AE18BF08C017D10759F0699164
:1002D000D601ED91FC910190F081E02DC6010995C8
:1002E000892B79F7C501DF91CF911F910F91FF9075
:1002F000EF90DF90CF90BF90AF900895FC01538DA9
:10030000448D252F30E0842F90E0821B930B5417EF
:1003100010F0CF96089501970895FC01918D828D7C
:10032000981761F0A28DAE0FBF2FB11D5D968C9115
:10033000928D9F5F9F73928F90E008958FEF9FEF54
:100340000895FC01918D828D981731F0828DE80F10
:10035000F11D858D90E008958FEF9FEF0895FC01CA
:10036000918D228D892F90E0805C9F4F821B910997
:100370008F73992708958FE492E00E94AF0121E0E6
:10038000892B09F420E0822F089580E090E0892BEA
:1003900029F00E94BB0181110C9400000895FC011A
:1003A000A48DA80FB92FB11DA35ABF4F2C91848DD6
:1003B00090E001968F739927848FA689B7892C9333
:1003C000A089B1898C91837080648C93938D848D86
:1003D000981306C00288F389E02D80818F7D808389
:1003E0000895EF92FF920F931F93CF93DF93EC0149
:1003F00081E0888F9B8D8C8D98131AC0E889F989CC
:10040000808185FF15C09FB7F894EE89FF896083CE
:10041000E889F98980818370806480839FBF81E04F
:1004200090E0DF91CF911F910F91FF90EF90089591
:10043000F62E0B8D10E00F5F1F4F0F731127E02E6C
:100440008C8D8E110CC00FB607FCFACFE889F989A4
:10045000808185FFF5CFCE010E94CF01F1CFEB8DDA
:10046000EC0FFD2FF11DE35AFF4FF0829FB7F89478
:100470000B8FEA89FB8980818062CFCFCF93DF9396
:10048000EC01888D8823B9F0AA89BB89E889F989AC
:100490008C9185FD03C0808186FD0DC00FB607FCE1
:1004A000F7CF8C9185FFF2CF808185FFEDCFCE0114
:1004B0000E94CF01E9CFDF91CF910895FC01019017
:1004C0000020E9F73197AF01481B590BBC018FE4BD
:1004D00092E00C945101CF93DF930E945E02EC01F5
:1004E00082E191E00E945E028C0F9D1FDF91CF910F
:1004F00008958F929F92AF92BF92CF92DF92EF9228
:10050000FF920F931F93CF93DF93CDB7DEB7A197E1
:100510000FB6F894DEBF0FBECDBF6C01990FEE0889
:10052000FF08F7FE41C06DE28FE492E00E94F10106
:100530008C0122273327A9012C193D094E095F0997
:1005400019A2CE0181967C019AE0892E912CA12CD2
:10055000B12CCA01B901A50194010E94B406605DE5
:10056000F70162937F01211531054105510589F796
:1005700090E080E0309719F0CF010E945E02800F7A
:10058000911FA1960FB6F894DEBF0FBECDBFDF91CD
:10059000CF911F910F91FF90EF90DF90CF90BF9080
:1005A000AF909F908F900895A701960119A28E0198
:1005B0000F5D1F4F8AE0C82ED12CE12CF12CCA010F
:1005C000B901A70196010E94B406605DF80162932B
:1005D0008F01211531054105510589F790E080E033
:1005E000309779F2CF010E945E02CBCF2F923F92DB
:1005F0004F925F926F927F928F929F92AF92BF9233
:10060000CF92DF92EF92FF920F931F93CF93DF93DE
:10061000EC0185E191E00E945E02CE010E94790228
:1006200083E491E00E946B02412C512C32013FE1A6
:10063000232E32E0332E4FE0842E912C520102E320
:1006400010E0C130D10509F08DC081E00E94870023
:100650008FE491E00197F1F780E00E948700C101EB
:100660000197F1F70150110981F7C301B2010E940E
:100670001E0124E630E010E000E0EE24EA9483E07E
:10068000F82E81E480937C0080917A0080648093CE
:100690007A0080917A0086FDFCCF8091780090915D
:1006A00079008E159F050CF47C01081719070CF4CE
:1006B0008C01C4010197F1F72150310911F768014C
:1006C000CE18DF0889E491E00E945E02C5010E9415
:1006D000790285E591E00E945E02C6010E947902DE
:1006E00085E691E00E945E02C7010E9479028DE6D4
:1006F00091E00E945E02C8010E94790285E791E0C4
:100700000E946B0268EC70E080E090E00E941E01A5
:100710008AE0480E511C611C711C86E3481681E07A
:1007200058066104710409F089CF87E791E00E94BF
:100730005E02CE010E94790283E491E0DF91CF91C5
:100740001F910F91FF90EF90DF90CF90BF90AF90EF
:100750009F908F907F906F905F904F903F902F90E1
:100760000C946B02C230D10591F481E00E948700A5
:1007700087ED90E00197F1F780E00E94870087E91C
:1007800092E00197F1F70150110979F76ECFC12C72
:10079000D12C9EE5E92E93E4F92EC330D105A1F5C5
:1007A000C12CD12C2EEDE22E22E4F22E81E00E940B
:1007B000870021E835E943E45FE3C701B6010E9401
:1007C0001F060E94C005CB010E94EE0080E00E943F
:1007D00087002FE335E34EE95FE3C701B6010E94CE
:1007E0001F060E94C005CB010E94EE0025E83BEEEB
:1007F00041E85FE3C701B6010E941F066B017C015F
:100800000150110999F631CF81E00E9487002CEF49
:1008100039EA41E75EE3C701B6010E941F060E9464
:10082000C005CB010E94EE0080E00E94870021E815
:1008300035E943E45FE3C701B6010E941F060E9449
:10084000C005CB010E94EE0025E83BEE41E85FE3E6
:10085000C701B6010E941F066B017C0101501109FE
:1008600099F603CF1F920F920FB60F9211242F9378
:100870003F938F939F93AF93BF9380914702909143
:100880004802A0914902B0914A023091460223E009
:10089000230F2D3758F50196A11DB11D2093460257
:1008A0008093470290934802A0934902B0934A0272
:1008B00080914B0290914C02A0914D02B0914E025A
:1008C0000196A11DB11D80934B0290934C02A09301
:1008D0004D02B0934E02BF91AF919F918F913F9186
:1008E0002F910F900FBE0F901F90189526E8230FA1
:1008F0000296A11DB11DD2CF1F920F920FB60F927B
:1009000011242F933F934F935F936F937F938F9314
:100910009F93AF93BF93EF93FF938FE492E00E9476
:10092000CF01FF91EF91BF91AF919F918F917F91F7
:100930006F915F914F913F912F910F900FBE0F904C
:100940001F9018951F920F920FB60F9211242F939C
:100950008F939F93EF93FF93E0915F02F09160027A
:100960008081E0916502F091660282FD1BC090815A
:10097000809168028F5F8F7320916902821741F026
:10098000E0916802F0E0E15BFD4F958F8093680293
:10099000FF91EF919F918F912F910F900FBE0F902C
:1009A0001F9018958081F4CF789484B5826084BDBF
:1009B00084B5816084BD85B5826085BD85B5816063
:1009C00085BD80916E00816080936E0010928100E1
:1009D000809181008260809381008091810081609C
:1009E000809381008091800081608093800080915D
:1009F000B10084608093B1008091B00081608093E9
:100A0000B00080917A00846080937A0080917A00AF
:100A1000826080937A0080917A00816080937A006E
:100A200080917A00806880937A001092C100E091F2
:100A30005F02F091600282E08083E0915B02F091BE
:100A40005C021082E0915D02F0915E0280E18083A1
:100A500010926702E0916302F091640286E0808365
:100A6000E0916102F0916202808180618083E09177
:100A70006102F0916202808188608083E09161026E
:100A8000F0916202808180688083E0916102F09140
:100A9000620280818F7D808385E00E94CF008DE09F
:100AA0000E94CF0080E00E94870082EA91E00E94CD
:100AB0006B0285ED91E00E946B0288E092E00E945B
:100AC0006B0282EA91E00E946B02C0E0D0E08FE40A
:100AD00092E00E94AF011816190654F48FE492E0D8
:100AE0000E948D01813381F481E090E00E94F60242
:100AF00080E00E948700209751F30E94BB01882369
:100B000031F30E940000E3CF823319F482E090E0D9
:100B1000EDCF833319F483E090E0E8CF843341F7DD
:100B200084E090E0E3CFEFE4F2E01382128288EEFB
:100B300093E0A0E0B0E084839583A683B78384E04C
:100B400091E09183808385EC90E09587848784ECA5
:100B500090E09787868780EC90E0918B808B81EC8A
:100B600090E0938B828B82EC90E0958B848B86EC6B
:100B700090E0978B868B118E128E138E148E0895B3
:100B80000E94C7056894B1110C94190608950E943B
:100B9000FE0588F09F5798F0B92F9927B751B0F00C
:100BA000E1F0660F771F881F991F1AF0BA95C9F7F1
:100BB00014C0B13091F00E941806B1E008950C9471
:100BC0001806672F782F8827B85F39F0B93FCCF324
:100BD000869577956795B395D9F73EF4909580956E
:100BE000709561957F4F8F4F9F4F089557FD905897
:100BF000440F551F59F05F3F71F04795880F97FBE1
:100C0000991F61F09F3F79F087950895121613069A
:100C10001406551FF2CF4695F1DF08C016161706C9
:100C20001806991FF1CF86957105610508940895FE
:100C3000E894BB2766277727CB0197F908950E9490
:100C400032060C94A3060E94950638F00E949C067A
:100C500020F0952311F00C948C060C94920611242C
:100C60000C9419060E94F60570F3959FC1F3950F39
:100C700050E0551F629FF001729FBB27F00DB11D20
:100C8000639FAA27F00DB11DAA1F649F6627B00DB0
:100C9000A11D661F829F2227B00DA11D621F739F99
:100CA000B00DA11D621F839FA00D611D221F749FA7
:100CB0003327A00D611D231F849F600D211D822FEE
:100CC000762F6A2F11249F5750409AF0F1F0882315
:100CD0004AF0EE0FFF1FBB1F661F771F881F915042
:100CE0005040A9F79E3F510580F00C948C060C945F
:100CF00019065F3FE4F3983ED4F3869577956795A0
:100D0000B795F795E7959F5FC1F7FE2B880F911D6B
:100D10009695879597F9089597F99F6780E870E011
:100D200060E008959FEF80EC089500240A94161661
:100D3000170618060906089500240A9412161306C9
:100D4000140605060895092E0394000C11F4882357
:100D500052F0BB0F40F4BF2B11F460FF04C06F5F73
:100D60007F4F8F4F9F4F0895A1E21A2EAA1BBB1BE6
:100D7000FD010DC0AA1FBB1FEE1FFF1FA217B30767
:100D8000E407F50720F0A21BB30BE40BF50B661F7D
:100D9000771F881F991F1A9469F760957095809541
:100DA00090959B01AC01BD01CF010895EE0FFF1F8F
:0C0DB0000590F491E02D0994F894FFCF19
:100DBC0000000000F10151017E013E02AF018D01E6
:100DCC00A1010D0A000A2D2D2D20535441525420FF
:100DDC00543220434F484552454E434520444543E9
:100DEC00415920535745455020284D4554484F44B0
:100DFC003A200029202D2D2D00446563617944652E
:100E0C006C61793A006D73207C20416D706C697453
:100E1C007564653A00205B4D696E3A20002C204DBC
:100E2C0061783A20005D002D2D2D20454E44205434
:100E3C003220434F484552454E434520444543419B
:100E4C005920535745455020284D4554484F443A56
:100E5C0020003D3D3D3D3D3D3D3D3D3D3D3D3D3D10
:100E6C003D3D3D3D3D3D3D3D3D3D3D3D3D3D3D3DA6
:100E7C003D3D3D3D3D3D3D3D3D3D3D3D3D3D3D3D96
:100E8C003D3D3D3D00202054415020464F55522DB4
:100E9C004D4554484F44204153594D4D45545249AA
:100EAC004320434F524520284435202D3E204131CC
:100EBC0029202020202020002020436F6D6D616EA2
:100ECC0064733A202731272D3E476F6C64656E2C76
:100EDC00202732272D3E333A312C202733272D3E25
:100EEC0043686972702C202734272D3E4675736534
:060EFC0064205441500087
:00000001FF
