:100000000C945D000C9485000C9485000C94850084
:100010000C9485000C9485000C9485000C9485004C
:100020000C9485000C9485000C9485000C9485003C
:100030000C9485000C9485000C9485000C9485002C
:100040000C94EC020C9485000C945C030C94360325
:100050000C9485000C9485000C9485000C9485000C
:100060000C9485000C94850000000008000201003B
:100070000003040700000000000000000000000072
:10008000250028002B0000000000240027002A0083
:10009000040404040404040402020202020203032E
:1000A0000303030301020408102040800102040836
:1000B0001020010204081020D80411241FBECFEF25
:1000C000D8E0DEBFCDBF11E0A0E0B1E0ECE9FAE09E
:1000D00002C005900D92A23AB107D9F722E0A2EA38
:1000E000B1E001C01D92A834B207E1F710E0CDE500
:1000F000D0E004C02197FE010E944605CC35D1070F
:10010000C9F70E948E030C944C050C94000090E0FB
:10011000FC01EC55FF4F249180579F4FFC018491C7
:10012000882399F090E0880F991FFC01EA57FF4F50
:10013000A591B491FC01E458FF4F859194918FB73C
:10014000F894EC91E22BEC938FBF089590E0FC01C2
:10015000E859FF4F2491FC01EC55FF4F3491FC010D
:10016000E057FF4FE491EE23C9F0222339F023300A
:1001700001F1A8F4213019F1223029F1F0E0EE0F5D
:10018000FF1FE458FF4FA591B4918FB7F894EC91FD
:10019000611126C030953E233C938FBF08952730D0
:1001A000A9F02830C9F0243049F7809180008F7D74
:1001B00003C0809180008F7780938000DFCF84B56B
:1001C0008F7784BDDBCF84B58F7DFBCF8091B0006E
:1001D0008F778093B000D2CF8091B0008F7DF9CF20
:1001E0003E2BDACF3FB7F8948091A7019091A801F8
:1001F000A091A901B091AA0126B5A89B05C02F3FE7
:1002000019F00196A11DB11D3FBFBA2FA92F982F3C
:100210008827BC01CD01620F711D811D911D42E037
:10022000660F771F881F991F4A95D1F708958F92FF
:100230009F92AF92BF92CF92DF92EF92FF924B01CB
:100240005C010E94F2006B017C010E94F2006C19BB
:100250007D098E099F09683E734081059105A8F3C9
:1002600021E0821A9108A108B10888EEC80E83E047
:10027000D81EE11CF11C81149104A104B10429F7DA
:10028000FF90EF90DF90CF90BF90AF909F908F90B6
:100290000895AF92BF92CF92DF92EF92FF920F93A9
:1002A0001F93CF93DF936C017B018B01040F151F0C
:1002B000EB015E01AE18BF08C017D10759F0699174
:1002C000D601ED91FC910190F081E02DC6010995D8
:1002D000892B79F7C501DF91CF911F910F91FF9085
:1002E000EF90DF90CF90BF90AF900895FC01538DB9
:1002F000448D252F30E0842F90E0821B930B541700
:1003000010F0CF96089501970895FC01918D828D8C
:10031000981761F0A28DAE0FBF2FB11D5D968C9125
:10032000928D9F5F9F73928F90E008958FEF9FEF64
:100330000895FC01918D828D981731F0828DE80F20
:10034000F11D858D90E008958FEF9FEF0895FC01DA
:10035000918D228D892F90E0805C9F4F821B9109A7
:100360008F73992708958BEA91E00E94A70121E0FD
:10037000892B09F420E0822F089580E090E0892BFA
:1003800029F00E94B30181110C9400000895FC0132
:10039000A48DA80FB92FB11DA35ABF4F2C91848DE6
:1003A00090E001968F739927848FA689B7892C9343
:1003B000A089B1898C91837080648C93938D848D96
:1003C000981306C00288F389E02D80818F7D808399
:1003D0000895EF92FF920F931F93CF93DF93EC0159
:1003E00081E0888F9B8D8C8D98131AC0E889F989DC
:1003F000808185FF15C09FB7F894EE89FF896083DF
:10040000E889F98980818370806480839FBF81E05F
:1004100090E0DF91CF911F910F91FF90EF900895A1
:10042000F62E0B8D10E00F5F1F4F0F731127E02E7C
:100430008C8D8E110CC00FB607FCFACFE889F989B4
:10044000808185FFF5CFCE010E94C701F1CFEB8DF2
:10045000EC0FFD2FF11DE35AFF4FF0829FB7F89488
:100460000B8FEA89FB8980818062CFCFCF93DF93A6
:10047000EC01888D8823B9F0AA89BB89E889F989BC
:100480008C9185FD03C0808186FD0DC00FB607FCF1
:10049000F7CF8C9185FFF2CF808185FFEDCFCE0124
:1004A0000E94C701E9CFDF91CF910895FC0101902F
:1004B0000020E9F73197AF01481B590BBC018BEACB
:1004C00091E00C944901CF93DF930E945602EC0116
:1004D00082E191E00E9456028C0F9D1FDF91CF9127
:1004E00008958F929F92AF92BF92CF92DF92EF9238
:1004F000FF920F931F93CF93DF93CDB7DEB7A197F2
:100500000FB6F894DEBF0FBECDBF6B017C01F7FEC6
:1005100041C06DE28BEA91E00E94E9018C01222743
:100520003327A9012C193D094E095F0919A2CE01F3
:1005300081967C019AE0892E912CA12CB12CCA01C4
:10054000B901A50194010E940505605DF701629360
:100550007F01211531054105510589F790E080E0C3
:10056000309719F0CF010E945602800F911FA1967B
:100570000FB6F894DEBF0FBECDBFDF91CF911F91B4
:100580000F91FF90EF90DF90CF90BF90AF909F9032
:100590008F900895AC019B0119A28E010F5D1F4F32
:1005A0008AE0C82ED12CE12CF12CCA01B901A70197
:1005B00096010E940505605DF80162938F01211587
:1005C00031054105510589F790E080E0309779F2D7
:1005D000CF010E945602CBCF1F920F920FB60F92FF
:1005E00011242F933F938F939F93AF93BF93809149
:1005F000A3019091A401A091A501B091A601309111
:10060000A20123E0230F2D3758F50196A11DB11D3E
:100610002093A2018093A3019093A401A093A5012C
:10062000B093A6018091A7019091A801A091A90182
:10063000B091AA010196A11DB11D8093A7019093CD
:10064000A801A093A901B093AA01BF91AF919F9176
:100650008F913F912F910F900FBE0F901F90189583
:1006600026E8230F0296A11DB11DD2CF1F920F9233
:100670000FB60F9211242F933F934F935F936F9375
:100680007F938F939F93AF93BF93EF93FF938BEAE7
:1006900091E00E94C701FF91EF91BF91AF919F91AF
:1006A0008F917F916F915F914F913F912F910F901B
:1006B0000FBE0F901F9018951F920F920FB60F92BA
:1006C00011242F938F939F93EF93FF93E091BB019E
:1006D000F091BC018081E091C101F091C20182FDE5
:1006E0001BC090818091C4018F5F8F732091C501E1
:1006F000821741F0E091C401F0E0E555FE4F958F7F
:100700008093C401FF91EF919F918F912F910F9052
:100710000FBE0F901F9018958081F4CF789484B508
:10072000826084BD84B5816084BD85B5826085BDED
:1007300085B5816085BD80916E00816080936E007B
:10074000109281008091810082608093810080916D
:10075000810081608093810080918000816080931E
:1007600080008091B10084608093B1008091B000DE
:1007700081608093B00080917A00846080937A00D9
:1007800080917A00826080937A0080917A00816003
:1007900080937A0080917A00806880937A0010922A
:1007A000C100E091BB01F091BC0182E08083E09147
:1007B000B701F091B8011082E091B901F091BA014E
:1007C00080E180831092C301E091BF01F091C001EC
:1007D00086E08083E091BD01F091BE01808180615F
:1007E0008083E091BD01F091BE01808188608083AB
:1007F000E091BD01F091BE01808180688083E0912D
:10080000BD01F091BE0180818F7D808389E00E94CF
:10081000870088E00E9487008DE00E94870060E0EA
:1008200089E00E94A60060E088E00E94A60020E225
:10083000422E21EA522E27E0622E712C3FE0232E19
:10084000312C40E0842E40E0942E85E191E00E941E
:10085000630298EEC92E93E0D92EE12CF12CC3014E
:10086000B201A70196010E942705220F331F220F14
:10087000331F890105501109C2E3D0E061E089E02E
:100880000E94A60060E088E00E94A600C8010197CF
:10089000F1F760E089E00E94A60061E088E00E9434
:1008A000A600C8010197F1F7219741F760E089E0C0
:1008B0000E94A60060E088E00E94A60024E630E0E6
:1008C000D0E0C0E00FEF13E080E480937C008091E3
:1008D0007A00806480937A0080917A0086FDFCCF54
:1008E0008091780090917900801791070CF48C0129
:1008F000C817D9070CF4EC01C1010197F1F7215099
:10090000310911F75E01A01AB10A88E491E00E9452
:100910005602C701B6010E9471028EE491E00E9466
:100920005602B501BB0C880B990B0E9471028EE533
:1009300091E00E945602B801110F880B990B0E949A
:10094000710286E691E00E945602BE01DD0F880B1F
:10095000990B0E9471028EE691E00E94630262E3AD
:1009600070E080E090E00E94170184E6C80ED11C80
:10097000E11CF11C84E7C81687E2D806E104F10403
:1009800009F06DCF80E791E00E94630260E177E2B9
:1009900080E090E00E9417018114910409F455CF82
:1009A0000E94B301882309F450CF0E9400004DCF6C
:1009B000EBEAF1E01382128288EE93E0A0E0B0E06F
:1009C00084839583A683B78384E091E091838083B9
:1009D00085EC90E09587848784EC90E09787868704
:1009E00080EC90E0918B808B81EC90E0938B828BFC
:1009F00082EC90E0958B848B86EC90E0978B868BD5
:100A0000118E128E138E148E0895A1E21A2EAA1B37
:100A1000BB1BFD010DC0AA1FBB1FEE1FFF1FA217AE
:100A2000B307E407F50720F0A21BB30BE40BF50BAB
:100A3000661F771F881F991F1A9469F76095709534
:100A4000809590959B01AC01BD01CF010895052EC5
:100A500097FB1EF400940E943E0557FD07D00E94AC
:100A6000050507FC03D04EF40C943E0550954095C7
:100A7000309521953F4F4F4F5F4F0895909580954A
:100A8000709561957F4F8F4F9F4F0895EE0FFF1F19
:0C0A90000590F491E02D0994F894FFCF3C
:100A9C0000000000E901490176013602A701850139
:100AAC0099010D0A000A2D2D2D2053544152544901
:100ABC004E472031305620444946464552454E5407
:100ACC0049414C204652455155454E4359205357A8
:100ADC00454550202D2D2D00467265713A00487AFF
:100AEC00207C20416D706C69747564653A00205BE4
:100AFC004D696E3A20002C204D61783A20005D0043
:100B0C002D2D2D2031305620444946464552454E18
:100B1C005449414C204652455155454E435920535A
:100B2C005745455020434F4D504C455445202D2D95
:020B3C002D008A
:00000001FF
