:100000000C945D000C9485000C9485000C94850084
:100010000C9485000C9485000C9485000C9485004C
:100020000C9485000C9485000C9485000C9485003C
:100030000C9485000C9485000C9485000C9485002C
:100040000C9471020C9485000C94E1020C94BB0298
:100050000C9485000C9485000C9485000C9485000C
:100060000C9485000C94850000000008000201003B
:100070000003040700000000000000000000000072
:10008000250028002B0000000000240027002A0083
:10009000040404040404040402020202020203032E
:1000A0000303030301020408102040800102040836
:1000B00010200102040810205C0411241FBECFEFA1
:1000C000D8E0DEBFCDBF11E0A0E0B1E0E6E6F9E0A8
:1000D00002C005900D92A638B107D9F722E0A6E834
:1000E000B1E001C01D92AC32B207E1F710E0CDE5FE
:1000F000D0E004C02197FE010E94AB04CC35D107AB
:10010000C9F70E9413030C94B1040C94000090E012
:10011000FC01EC55FF4F249180579F4FFC018491C7
:10012000882399F090E0880F991FFC01EA57FF4F50
:10013000A591B491FC01E458FF4F859194918FB73C
:10014000F894EC91E22BEC938FBF089590E0FC01C2
:10015000E859FF4F2491FC01EC55FF4F3491FC010D
:10016000E057FF4FE491EE23C9F0222339F023300A
:1001700001F1A8F4213019F1223029F1F0E0EE0F5D
:10018000FF1FE458FF4FA591B4918FB7F894EC91FD
:10019000611126C030953E233C938FBF08952730D0
:1001A000A9F02830C9F0243049F7809180008F7D74
:1001B00003C0809180008F7780938000DFCF84B56B
:1001C0008F7784BDDBCF84B58F7DFBCF8091B0006E
:1001D0008F778093B000D2CF8091B0008F7DF9CF20
:1001E0003E2BDACF3FB7F89480918B0190918C0130
:1001F000A0918D01B0918E0126B5A89B05C02F3F1F
:1002000019F00196A11DB11D3FBFBA2FA92F982F3C
:100210008827BC01CD01620F711D811D911D42E037
:10022000660F771F881F991F4A95D1F708958F92FF
:100230009F92AF92BF92CF92DF92EF92FF924B01CB
:100240005C010E94F2006B017C010E94F2006C19BB
:100250007D098E099F09683E734081059105A8F3C9
:1002600021E0821A9108A108B10888EEC80E83E047
:10027000D81EE11CF11C81149104A104B10429F7DA
:10028000FF90EF90DF90CF90BF90AF909F908F90B6
:100290000895AF92BF92CF92DF92EF92FF920F93A9
:1002A0001F93CF93DF936C017B018B01040F151F0C
:1002B000EB015E01AE18BF08C017D10759F0699174
:1002C000D601ED91FC910190F081E02DC6010995D8
:1002D000892B79F7C501DF91CF911F910F91FF9085
:1002E000EF90DF90CF90BF90AF900895FC01538DB9
:1002F000448D252F30E0842F90E0821B930B541700
:1003000010F0CF96089501970895FC01918D828D8C
:10031000981761F0A28DAE0FBF2FB11D5D968C9125
:10032000928D9F5F9F73928F90E008958FEF9FEF64
:100330000895FC01918D828D981731F0828DE80F20
:10034000F11D858D90E008958FEF9FEF0895FC01DA
:10035000918D228D892F90E0805C9F4F821B9109A7
:100360008F73992708958FE891E00E94A70121E0FB
:10037000892B09F420E0822F089580E090E0892BFA
:1003800029F00E94B30181110C9400000895FC0132
:10039000A48DA80FB92FB11DA35ABF4F2C91848DE6
:1003A00090E001968F739927848FA689B7892C9343
:1003B000A089B1898C91837080648C93938D848D96
:1003C000981306C00288F389E02D80818F7D808399
:1003D0000895EF92FF920F931F93CF93DF93EC0159
:1003E00081E0888F9B8D8C8D98131AC0E889F989DC
:1003F000808185FF15C09FB7F894EE89FF896083DF
:10040000E889F98980818370806480839FBF81E05F
:1004100090E0DF91CF911F910F91FF90EF900895A1
:10042000F62E0B8D10E00F5F1F4F0F731127E02E7C
:100430008C8D8E110CC00FB607FCFACFE889F989B4
:10044000808185FFF5CFCE010E94C701F1CFEB8DF2
:10045000EC0FFD2FF11DE35AFF4FF0829FB7F89488
:100460000B8FEA89FB8980818062CFCFCF93DF93A6
:10047000EC01888D8823B9F0AA89BB89E889F989BC
:100480008C9185FD03C0808186FD0DC00FB607FCF1
:10049000F7CF8C9185FFF2CF808185FFEDCFCE0124
:1004A0000E94C701E9CFDF91CF910895FC0101902F
:1004B0000020E9F73197AF01481B590BBC018FE8C9
:1004C00091E00C944901CF93DF930E945602EC0116
:1004D00082E191E00E9456028C0F9D1FDF91CF9127
:1004E00008951F920F920FB60F9211242F933F93EE
:1004F0008F939F93AF93BF938091870190918801D1
:10050000A0918901B0918A013091860123E0230FE7
:100510002D3758F50196A11DB11D209386018093BA
:10052000870190938801A0938901B0938A018091FB
:100530008B0190918C01A0918D01B0918E0101965B
:10054000A11DB11D80938B0190938C01A0938D010F
:10055000B0938E01BF91AF919F918F913F912F9159
:100560000F900FBE0F901F90189526E8230F02964C
:10057000A11DB11DD2CF1F920F920FB60F92112461
:100580002F933F934F935F936F937F938F939F939B
:10059000AF93BF93EF93FF938FE891E00E94C70161
:1005A000FF91EF91BF91AF919F918F917F916F914B
:1005B0005F914F913F912F910F900FBE0F901F9021
:1005C00018951F920F920FB60F9211242F938F93AD
:1005D0009F93EF93FF93E0919F01F091A0018081A1
:1005E000E091A501F091A60182FD1BC09081809150
:1005F000A8018F5F8F732091A901821741F0E091CC
:10060000A801F0E0E157FE4F958F8093A801FF917C
:10061000EF919F918F912F910F900FBE0F901F9090
:1006200018958081F4CFCF93DF93CDB7DEB7A19734
:100630000FB6F894DEBF0FBECDBF789484B582604C
:1006400084BD84B5816084BD85B5826085BD85B576
:10065000816085BD80916E00816080936E001092F4
:10066000810080918100826080938100809181006F
:100670008160809381008091800081608093800000
:100680008091B10084608093B1008091B00081605E
:100690008093B00080917A00846080937A0080918A
:1006A0007A00826080937A0080917A0081608093E2
:1006B0007A0080917A00806880937A001092C1005D
:1006C000E0919F01F091A00182E08083E0919B0185
:1006D000F0919C011082E0919D01F0919E0180E1DA
:1006E00080831092A701E091A301F091A40186E01C
:1006F0008083E091A101F091A201808180618083DB
:10070000E091A101F091A201808188608083E09155
:10071000A101F091A201808180688083E091A10114
:10072000F091A20180818F7D808389E00E94870003
:100730008DE00E94870080E4382E9FE0892E912C66
:100740002AE0422E512C612C712C30E0A32E30E097
:10075000B32E02E310E061E089E00E94A60087EB7F
:1007600091E00197F1F760E089E00E94A60087EB35
:1007700091E00197F1F70150110969F744E650E063
:1007800010E000E02FEF33E030927C0080917A009F
:10079000806480937A0080917A0086FDFCCF8091FE
:1007A000780090917900821793070CF49C01081748
:1007B00019070CF48C01C4010197F1F7415051095C
:1007C00019F7021B130B61E08DE00E94A60062E3A3
:1007D00070E080E090E00E94170160E08DE00E94F0
:1007E000A60085E191E00E9456026801012E000CEE
:1007F000EE08FF0817FF4AC06DE28FE891E00E9403
:10080000E90122273327A9012C193D094E095F0967
:1008100019A2CE0181967C01CA01B901A3019201FE
:100820000E948904605DF70162937F012115310503
:100830004105510589F7E114F10419F0C7010E943F
:10084000560287E291E00E94560282E391E0013273
:10085000F3E01F073CF487E491E00739110514F435
:100860008BE691E00E94630268EE73E080E090E026
:100870000E941701A114B10409F46BCF0E94B301C7
:10088000882309F466CF0E94000063CFA701960178
:1008900019A2CE0181967C01CA01B901A30192017E
:1008A0000E948904605DF70162937F012115310583
:1008B0004105510589F7BFCFEFE8F1E013821282BD
:1008C00088EE93E0A0E0B0E084839583A683B783AD
:1008D00084E091E09183808385EC90E09587848724
:1008E00084EC90E09787868780EC90E0918B808BFA
:1008F00081EC90E0938B828B82EC90E0958B848BE3
:1009000086EC90E0978B868B118E128E138E148E50
:100910000895A1E21A2EAA1BBB1BFD010DC0AA1F40
:10092000BB1FEE1FFF1FA217B307E407F50720F058
:10093000A21BB30BE40BF50B661F771F881F991FD3
:100940001A9469F760957095809590959B01AC011C
:10095000BD01CF010895EE0FFF1F0590F491E02D2A
:060960000994F894FFCF9A
:1009660000000000E901490176013602A701850170
:1009760099010D0A00517562697420416D706C69A8
:10098600747564653A2000207C2053746174653A5E
:1009960020007C313E2028436F686572656E7420A6
:1009A60053746174652900287C303E202B207C31ED
:1009B6003E292F7371727428322920285375706569
:1009C60072706F736974696F6E29007C303E2028DF
:1009D6004465636F6865726564202F204162736F9A
:0609E60072626564290045
:00000001FF
